:020000040000FA
:10000000D8210020050500000D0500000F050000A7
:100010001105000013050000150500000000000098
:1000200000000000000000000000000017050000B4
:100030000000000000000000190500001B05000082
:100040001D0500001D0500003D080000D105000051
:100050001D0500001D0500001D0500001D05000018
:100060001D0500001D0500001D0500001D05000008
:100070001D0500001D0500001D0500001D050000F8
:100080001D0500001D0500001D0500001D050000E8
:100090001D0500001D0500001D0500001D050000D8
:1000A0001D0500001D0500001D0500001D050000C8
:1000B0001D0500001D0500000000000000000000FC
:1000C0001D0500001D0500001D0500001D050000A8
:1000D0001D0500001D0500000000000000000000DC
:1000E0000000000000000000000000000000000010
:1000F0000000000000000000000000000000000000
:1001000000000000000000000000000000000000EF
:1001100000000000000000000000000000000000DF
:10040000DFF80CD000F0B8F800480047010F0000FA
:10041000D8210020401E00BF00BF00BF00BF00BFAA
:1004200000BF00BF00BF00BF00BF00BF00BF00BFD4
:1004300000BF00BF00BF00BF00BF00BF00BF00BFC4
:1004400000BF00BF00BF00BF00BF00BF00BF00BFB4
:1004500000BF00BF00BF00BF00BF00BF00BF00BFA4
:1004600000BF00BF00BF00BF00BF00BF00BF00BF94
:1004700000BF00BF00BF00BF00BF00BF00BF00BF84
:1004800000BF00BF00BFC5D170470000401E00BFC5
:1004900000BF00BF00BF00BF00BF00BF00BF00BF64
:1004A00000BF00BF00BF00BF00BF00BF00BF00BF54
:1004B00000BF00BF00BF00BF00BF00BF00BF00BF44
:1004C00000BF00BF00BF00BF00BF00BF00BF00BF34
:1004D00000BF00BF00BF00BF00BF00BF00BF00BF24
:1004E00000BF00BF00BF00BF00BF00BF00BF00BF14
:1004F00000BF00BF00BF00BF00BF00BF00BFC5D12D
:10050000704700000648804706480047FEE7FEE7C0
:10051000FEE7FEE7FEE7FEE7FEE7FEE7FEE7000098
:10052000E10500000104000040EA01039B0703D03D
:1005300009E008C9121F08C0042AFAD203E011F822
:10054000013B00F8013B521EF9D2704730B50B4613
:10055000014600202022012409E021FA02F59D42F3
:1005600005D303FA02F5491B04FA02F52844151EC7
:10057000A2F10102F1DC30BD064C074D06E0E06857
:1005800040F0010394E8070098471034AC42F6D3DA
:10059000FFF73AFF841B0000A41B00001CB509A054
:1005A0000223006801900020009001AA4C21064817
:1005B00000F07CFD08B100F01FFB044841780029E1
:1005C000FCD01CBD07010000041B0000000000203F
:1005D0000149024800F000BC6C01002000300040DE
:1005E000F0B58C480022041D0378211D081D01264A
:1005F000062B17D125782D0714D10D78C5F30315D7
:10060000032D03D1077817F0F00F0ED0042D03D17E
:10061000077817F0F00F08D0052D03D1057815F0F5
:10062000F00F02D0062B09D014E04FF08055D5F81A
:100630004452794FC5F342353D6002E025782D07DD
:1006400008D10D78C5F30315032D03D1057815F0F6
:10065000F00F02D0062B06D01DE0704D2F6827F05A
:1006600080772F601AE025782D0714D10D78C5F317
:100670000315032D03D1077817F0F00F0ED0042DCA
:1006800003D1077817F0F00F08D0052D03D10578B6
:1006900015F0F00F02D0062B0AD015E04FF0804580
:1006A000C5F80C21C5F810215B4D2D1F2A6002E012
:1006B00025782D0708D10D78C5F30315032D03D137
:1006C000057815F0F00F02D0062B05D066E0524CED
:1006D00003236434236002E023781B075ED109788A
:1006E000C1F30311052959D1007810F0F00F55D14D
:1006F0004B4800684B4908604948001D0068091DC7
:100700000860474808300068091D086044480C30FC
:100710000068091D0860424810300068091D086023
:100720003F4814300068091D08603D4818300068D3
:100730003C49203108603A481C300068091D0860B7
:10074000374820300068091D0860354824300068AB
:10075000091D0860324828300068091D08603048CB
:100760002C300068091D08602D48303000682D4984
:10077000403108602A4834300068091D0860284864
:1007800038300068091D086025483C300068091DA4
:100790000860234840300068091D08601F4874380D
:1007A000016841F470010160BFF34F8FBFF36F8F99
:1007B0004FF01021D1F80002002803DBD1F800022D
:1007C000002822DA184B1E6018480468002CFCD060
:1007D0001524C1F800420568002DFCD0C1F8044280
:1007E00001680029FCD01A6001680029FCD0BFF321
:1007F0004F8F0A48F03801680D4A01F4E061114357
:100800000160BFF34F8F00BFFDE70B490948086047
:10081000F0BD0000E00F00F03C050040FCED00E002
:100820000404001020C5004004E5014000E401403C
:100830000400FA050090D0030C0000200348007F5C
:1008400008B101F0F3B801F06DB800009401002088
:100850000FB4054B10B503A9044A029800F018F82C
:1008600010BC5DF814FB0000CB0D00001800002048
:1008700002E008C8121F08C1002AFAD17047704769
:10088000002001E001C1121F002AFBD170470000C7
:100890002DE9FF4F8BB088460546002606E0252847
:1008A0000BD0DDE90D1290476D1C761C28780028CE
:1008B000F5D10FB03046BDE8F08F0024A146A24626
:1008C0000122AE4900E0044315F8013F203B02FA43
:1008D00003F00842F7D128782A2810D06FF02F02B1
:1008E0002878A0F13001092915D809EB890102EB1C
:1008F000410144F0020400EB01096D1CF0E758F8D7
:10090000041B5FEA010903D544F40054C9F100094E
:1009100044F002046D1C28782E2817D115F8010F19
:1009200044F004042A280ED06FF02F022878A0F19A
:10093000300109290AD80AEB8A0102EB410100EBD8
:10094000010A6D1CF2E758F804AB6D1C28786C287E
:100950000FD006DC4C2817D068280DD06A2814D197
:1009600004E0742810D07A280FD10DE044F400146C
:100970000AE044F4801401E044F4401469788142B0
:1009800002D104F580146D1C6D1C2878692865D08F
:1009900006DC00288DD0632827D0642806D15DE0CE
:1009A0006E2808D073282AD0752877D0DDE90D127B
:1009B0009047761CE0E0C4F30250022809D00328D7
:1009C0000DD0D8F8001004280DD00E6008F10408EE
:1009D000D2E0D8F80010F217C1E90062F6E7D8F8C3
:1009E00000100E80F2E70E70F0E718F8041B8DF887
:1009F000001000208DF80100EB46012003E058F8BC
:100A000004BB4FF0FF3061074FF0000701D40AE04C
:100A10007F1C57450DDA8742FADB1BF807100029C7
:100A2000F6D106E07F1C8742FCDB1BF8071000298B
:100A3000F8D1DDE90D23A9EB07008146214600F03E
:100A4000B1F83044C61904E0DDE90D121BF8010BC2
:100A500090477F1EF8D22146484688E058F8040B9C
:100A6000C4F302514FF00A0B032900D100B204294C
:100A700000D140B2002802DA40422D2102E02105D7
:100A800005D52B218DF82410012104E006E0E107B3
:100A900010D02021F6E708AF089113E058F8040BB6
:100AA000C4F302514FF00A0B032900D180B204298C
:100AB00000D1C0B20021EEE75946FFF747FD3031C3
:100AC00007F8011D0028F7D1ADEB070000F1200B5E
:100AD000600702D524F4803401E04FF0010ADA45C2
:100AE00002DDAAEB0B0000E00020824600EB0B01C8
:100AF00008980144A9EB01000A90E00306D4DDE95F
:100B00000D2321460A9800F04DF806444FF00009E5
:100B100008E009A911F80900DDE90D12904709F173
:100B20000109761C08998945F3DBE0030CD5DDE962
:100B30000D2321460A9800F035F8064404E0DDE96B
:100B40000D1230209047761CBAF10001AAF1010A7B
:100B5000F5DC05E0DDE90D1217F8010B9047761C76
:100B6000BBF10001ABF1010BF4DC0A982146DDE991
:100B70000D2300F005F806446D1C97E609280100D6
:100B80002DE9F041044600251E461746880404D48A
:100B900005E039462020B0476D1C641EF9D5284673
:100BA000BDE8F0812DE9F041044600251E4690463F
:100BB000C80301D5302700E02027880404D505E0CC
:100BC00041463846B0476D1C641EF9D52846BDE83D
:100BD000F0810000BFF34F8F05480168054A01F41A
:100BE000E06111430160BFF34F8F00BFFDE70000DC
:100BF0000CED00E00400FA050EB500210091CDE9EE
:100C000001106A4644F20100FFF7E4FF10B5826864
:100C1000C368934203D000F0C5F8002010BD052042
:100C200010BD29B112B1531E134203D009207047E1
:100C30000E2070470160838000218160C1600846FA
:100C4000704710B58268C3689A1A83889A4203D89D
:100C500000F0B2F8002010BD042010BD70B50446AD
:100C6000234888B01E460D00426035D0A888296808
:100C700082B22048FFF7D5FF00282ED1A889A968A5
:100C800082B21C481030FFF7CCFF002825D120226B
:100C900019496846FFF748FCA0680690207900B122
:100CA00001208DF814008DF81C60607900B10E20D1
:100CB0008DF81500E0780290A078039020780190DC
:100CC000607800900D49684600F01AFA002804D1B7
:100CD0009DF81D0018B104E0072008B070BD00F0B9
:100CE0009FFA03480121801C00F054FAF5E7000048
:100CF00010000020B4010020641B000069180000EF
:100D000010B50446074801214470401C00F02EFB3A
:100D1000112805D12146BDE810400348FFF791BFD7
:100D200010BD000010000020C40100202DE9F0419A
:100D30000446006800F0B8FB2078174F012606FA39
:100D400000F038600021606800F0A5FB1348144DE6
:100D5000007FA069C5F82405607D217D0843C5F8A2
:100D60006C05D4E90001C5F80C05C5F81415207D03
:100D700001280FD10021A06800F08DFBE06800F091
:100D800093FB207B86403E60D4E90201C5F808153C
:100D9000C5F81005BDE8F081080500509401002059
:100DA00000200040826883881A4003689A5C0A70B9
:100DB0008168491C81607047C26883881A40036853
:100DC0009954C168491CC160704710B50446C0B24F
:100DD000FFF796FF204610BD2DE9FF470D4604465C
:100DE0004FF4927100F072FB01274FF002084FF4AC
:100DF0008279002630B1C4F824614946204600F0CB
:100E000065FB70B34946204600F060FB01004FF0DF
:100E1000FF3039D0C4F8046105F10C010DF104096B
:100E20000EC989E80E0095F8231079B1297B0129B4
:100E300024D0D4F84C15C9B28DF80610297B0229AC
:100E40001FD0D4F84C15C9B28DF80710C4F86061F2
:100E5000C4F85C6195F8251091B395F8231079BB1F
:100E600034E0FFE7A868C4F80803C5F80880A8685C
:100E7000C4F8040327626761BDE8FF87D4F83C1516
:100E8000D9E7D4F83C15DEE7C4F84861297B69B19D
:100E90004FF40071C4F80012891CA960C4F808035B
:100EA000A868C4F80403A7602762E5E705F10C0110
:100EB0000DF104090EC989E80E0095F8251029B92D
:100EC0000021C4F80012AE60C4F80803D4F8C404CA
:100ED000C4F8C404810702D58DF8007006E040070D
:100EE00002D58DF8008001E08DF8006095F82500AE
:100EF00008B985F82460D5E9002168469047BBE72A
:100F00001B4A8AB006AB07CA83E8070019480125C7
:100F1000CDE9020518480490280205900323174ADA
:100F200002A906A8FFF79AFE08B1FFF765FE14A014
:100F3000FFF78EFC00F06EFBFFF730FB00260D4C38
:100F40008DF80460A41E642000F026F820BF2078ED
:100F50000028FBD00648012301AA4C21083800953F
:100F600000F0A4F808B1FFF747FE2670EBE7000099
:100F70000C1B0000020000206C0000201119000072
:100F80000A0D5457492073656E736F72206578613E
:100F90006D706C650D0A000031B540F2E73404E075
:100FA000401E00902046FFF735FA00980028F7D140
:100FB00038BD4907090E002806DA00F00F0202F1D9
:100FC000E02282F8141D03E000F1E02282F8001410
:100FD00000F01F02012191404009800000F1E02053
:100FE000C0F88012C0F8001170470121B1EB507FAA
:100FF00001D1012070470020704700000179064AA6
:1010000001EB8101006802EBC1010622C0F8002556
:10101000022081F8220070476C01002070B506465E
:1010200000790D461F4C00EB800104EBC10494F8DD
:10103000221009B1082070BD15B91B4901EB00153C
:101040000020C4E90023A06084F8250084F824006F
:101050002946304600F084FA296840F20C60890085
:1010600001F1A041C1F800076968890001F1A041C0
:10107000C1F80007D5E900123068C0F80815C0F8BB
:101080000C25A968C0F82415206828B13068297B90
:10109000000B40B2FFF78DFF012084F822000020F2
:1010A00070BD00006C010020281B00003EB500252B
:1010B0000095069C8DF8011002958DF80230019282
:1010C0000CB1202200E00022694600F001F83EBD8C
:1010D00030B4D30701D1930702D530BC0620704746
:1010E0000379064C03EB830304EBC3040068134647
:1010F0000A460146204630BC00F0A4BA6C0100202C
:101100002DE9F0411E4C07460D46E07E10B1082047
:10111000BDE8F08107B91B4F787F20773846FFF78D
:1011200005FE6560386920602800174E4FF0000505
:1011300016D0397F207F48B1C6F81051C6F820512B
:10114000C6F82451C6F84451104804E0C6F81C51B2
:10115000C6F844510E48C6F804030220FFF729FFE1
:10116000207F08B1082000E00420C6F80005E575DE
:101170002576A5750120E076A5760020C8E7000059
:1011800094010020441B00000020004010030200D6
:10119000800002002DE9F0411F4B1C7F3CB14FF451
:1011A0000052B2EB104F02D01020BDE8F081D3F80E
:1011B00004C00022194D4FF404764FF40177BCF1BE
:1011C000000F05D014B1C5F8086301E0C5F8087335
:1011D00093F817E0BEF1000F10D01A7E52B1BCF1A7
:1011E000000F05D014B1C5F8046301E0C5F804731D
:1011F0001120DAE718610122197604E0D97500257B
:10120000D8605D761D761CB1BDE8F04100F066B88F
:10121000BDE8F04100F014B8940100200020004027
:1012200010B5064C207F002806D1A07E002803D1EF
:1012300000F08AF90120A07610BD00009401002082
:101240002DE9F05F234DA87E104301D100F07CF919
:10125000214C686830B14FF40170C4F804030020D9
:10126000BDE8F09F4FF000094FF4A27AC4F8449112
:101270004FF4927BA8465946204600F02CF90546CB
:101280004FF48471204600F026F907465146204667
:1012900000F021F9064647EA06012943EBD055EA5A
:1012A000060007D100F028F998F8171098F81900EF
:1012B0008142E0D888F817900DB10320D0E70EB135
:1012C0000F20CDE798F81A10012009B12060C6E779
:1012D0006060C4E794010020002000402DE9F05F29
:1012E000204C00264FF48873C4F810614FF4A275A7
:1012F000C4F84461C4F83405C4F838158AB1D4F888
:10130000000240F02000C4F80002DFF85C80D8F84A
:10131000040048B14FF40470C4F804030020BDE891
:10132000F09F01202060F0E79A46A9464FF4927B97
:101330005146204600F0DAF805464946204600F0BE
:10134000D5F807465946204600F0D0F83D430543FE
:10135000EED088F8176008B10320E0E7002FDDD059
:101360000F20DCE700200040940100202DE9F04729
:101370001E4D2A7F3AB14FF40053B3EB104F02D009
:101380001020BDE8F087AB7D0BB11120F9E7A975FE
:101390000023A860AB822AB3154C00264FF490724C
:1013A0009846C4F820314FF4AC73C4F85881C4F89F
:1013B0004405C4F848150120A060686880B99246C9
:1013C00099465146204600F091F807464946204686
:1013D00000F08CF80743F4D000B10F2685F8168092
:1013E0003046CEE7BDE8F04700F004B89401002095
:1013F000002000402DE9F05F1C4F00254FF48E7A4D
:101400002E46C7F81C514FF00108C7F8088000F0BD
:1014100007FA174CB815616879B123E05F46514669
:10142000484600F058F810B9A08AB842F7D1A08A0F
:10143000B84204D000F0F4F901E08346B946A08A2E
:10144000A17D8842EAD3A08A584501D10F2508E042
:101450004F465146384600F03EF80028F9D0C7F80C
:101460000C80A6752846BDE8F09F000000200040D3
:101470009401002030B541EA4201DDE9034541EA2B
:101480008301800041EA042100F1A04041EA0541C6
:10149000C0F8001730BD1CB500220B460092114663
:1014A0000192FFF7E7FF1CBD1CB5002100910B4620
:1014B000012201911146FFF7DDFF1CBD0121814092
:1014C000014801607047000008050050405800289E
:1014D00000D0012070474058002800D001207047FC
:1014E000D0F80403084000D001207047405800287D
:1014F00000D001207047000009480A490022C37D3E
:10150000C1F8082143B1D1F81815437EC268D154FF
:10151000417E491C41767047D1F81805704700009C
:1015200094010020002000401FB501228DF8080022
:1015300004488DF800200191D0E9001268469047D8
:101540001FBD00009401002004480021C0F82411B0
:10155000C0F8081101210160704700000020004020
:101560002DE9F0410C46096840F20C60890001F158
:10157000A041C1F800076168890001F1A041C1F8EC
:1015800000072068FFF79AFF6068FFF797FF216860
:1015900040F20D60890001F1A041C1F800076168C7
:1015A000890001F1A041C1F800070420FEF76EFF99
:1015B000DFF8588000250126A8F104072079D8F823
:1015C0000010C14011F0010F02D0002D1BD00FE020
:1015D000207806FA00F038600420FEF757FF2068F4
:1015E000FFF76CFF0420FEF751FF6D1C092DE5DBB2
:1015F000207986403E600420FEF748FF6068BDE821
:10160000F041FFF75BBFBDE8F0810000100500501E
:10161000704700001FB5094B0FCB8DE80F0007483E
:101620000023074A69461438FFF7F8FC08B1FFF7B2
:10163000E3FA02481438FFF7E1FC1FBD181B000055
:10164000111600002DE9F05F06461F4615460C46B0
:101650004FF0000B4FF0080A4FF482795068FFF703
:10166000C4FC002879D04FF0FF30C4F8080396F886
:10167000240028B1B068C4F804031120BDE8F09F2D
:10168000780703D4F80601D4012000E0002086F892
:10169000240095E8070006F10C0383E80700C7F370
:1016A000001086F825006878C4F888050020C4F882
:1016B0000401C4F824012A784FF4A47040F20221F6
:1016C0004FF00108F2B3012A77D0022A47D0032A4B
:1016D00013D04FF0070B380704D42878032801D023
:1016E00044F80A80306878B3780702D54FF4007068
:1016F000B060B068C4F804038DE0A868FFF775FC1B
:1017000008B34FF48070C4F80002A8786968C4F880
:101710004415C4F848050020C4F85001C4F860011D
:10172000C4F84801C4F82080C4F808804FF4A871B8
:101730002046FFF7CBFE0028F8D00020C4F8500167
:10174000E97802E01DE008E045E0A868C4F8440537
:10175000C4F848153148B060BDE710208EE7AA787C
:101760006868C4F84405C4F84825E878AA68C4F84D
:101770003425C4F838054FF48450C4F80002B16031
:10178000A9E7AA786B68C4F84435C4F84825BA06B6
:101790000AD54FF48071C4F800122049B1600021CD
:1017A000C4F84811814604E04FF40070C4F8000208
:1017B000B160C4F820808EE7FFE7A8786A68C4F8B3
:1017C0003425C4F838054FF48050C4F80002B160E5
:1017D0004FF0000AEDE7474600254FF4827A4FF4B8
:1017E000927809E041462046FFF770FE20B1C4F828
:1017F000245127626761D14649462046FFF766FEBD
:101800000028EFD0D4F8C404C4F8C40486F82450E7
:1018100008B14FF0030B584630E700000002040007
:10182000064A0020C2F81C010548838A8168C95C09
:10183000838A5B1C8382C2F81C157047002000401D
:10184000940100201FB500218DF8080005488DF88F
:101850000010826801928175D0E9001268469047B5
:101860001FBD0000940100207CB50178264D0129A0
:1018700009D002292CD0002929D129462348FFF775
:10188000C5F980B334E04068017820481038FFF78C
:10189000D8F91E4C103C20B101218DF800100190A8
:1018A00007E0A068E168081A012805D100208DF83A
:1018B0000000696868468847A068E168081AA1883E
:1018C000884204D810480121801CFFF763FC7CBDCE
:1018D00002218DF80010C06801900B480121801C86
:1018E000FFF758FC0CE0FFE701210748FFF73EFD3A
:1018F00006488168C0688842E9D103208DF800005D
:101900006968684688477CBD10000020C40100203B
:101910000178012901D0022902D14068FFF76CB992
:10192000704700002DE9FF413E4D4FF400712846FD
:10193000FFF7D6FD01273C4C4FF40178002600B399
:101940004FF492712846FFF7C6FDD0B1C5F8246167
:10195000C5F80883A07E00B96F6002208DF80000F2
:10196000D5F88004C5F880040390E07D8DF8080068
:10197000E0680190E6752676D4E900126846904743
:1019800024E004212846FFF7ABFDF8B14FF4847141
:101990002846FFF7A0FDC8B1FFF7AEFDE07D617EF0
:1019A000884213D1227E3AB1607EE168E2752269F5
:1019B000E2602676667607E0A07E00B96F60C5F823
:1019C0000883E675607EE168FFF7AEFD4FF48E7127
:1019D0002846FFF780FD58B1A18AA07D814202D23E
:1019E000FFF71EFF04E0C5F81C6108B1FFF72AFFEE
:1019F0004FF4A2712846FFF76EFD00280FD0C5F8FE
:101A00004461A07E00B12F60E07D002807D0E6751C
:101A1000607EE16804B0BDE8F041FFF785BDBDE838
:101A2000FF81000000200040940100207FB5334C6E
:101A30004FF492712046FFF759FD314D0026B0B1A9
:101A4000C4F8246102208DF80000D4F88004C4F8A2
:101A500080040390D4F83C058DF80800E8680190F4
:101A6000EE752E76D5E90012684690471FE04FF4D8
:101A700088712046FFF73AFDC8B1C4F81061D4F868
:101A80003C05E97DC0B2814211D12A7E5AB1E96894
:101A9000D4F8003223F02003C4F80032EA752A6932
:101AA000EA602E7601E0EE75E968FFF73DFD4FF440
:101AB000A2712046FFF71AFD50B1C4F84461E87DD9
:101AC00030B1EE75D4F83C05E968C0B2FFF72CFDE3
:101AD0004FF490712046FFF709FD00280CD0C4F8A0
:101AE0002061A87D002807D0D4F84C0504B0C0B20E
:101AF000BDE87040FFF7A6BE7FBD0000002000409B
:101B00009401002000300040000100000806050795
:101B10000000000000509D001B0000001A000000A3
:101B200000009801010000001B0000001A000000E6
:101B30000000980103000000010000000000000008
:101B40000000000006000000080000000700000080
:101B500005000000000000000000000000009D00E3
:101B6000030000000600000008000000070000005D
:101B700005000000000000000000000000009D00C3
:101B800003000000A41B0000000000201C00000057
:101B900070080000C01B00001C000020BC210000D9
:101BA00080080000010000000000000000000000AC
:101BB0000090D003000000000000000000000000C2
:0400000500000401F2
:00000001FF
