:020000040000FA
:10000000D0200020050500000D0500000F050000B0
:100010001105000013050000150500000000000098
:1000200000000000000000000000000017050000B4
:100030000000000000000000190500001B05000082
:100040001D0500001D05000001090000D906000083
:100050001D0500001D0500004D0500001D050000E8
:100060001D0500001D0500001D0500001D05000008
:100070001D0500001D0500001D0500001D050000F8
:100080001D0500001D0500001D0500001D050000E8
:100090001D0500001D0500001D0500001D050000D8
:1000A0001D0500001D0500001D0500001D050000C8
:1000B0001D0500001D0500000000000000000000FC
:1000C0001D0500001D0500001D0500001D050000A8
:1000D0001D0500001D0500000000000000000000DC
:1000E0000000000000000000000000000000000010
:1000F0000000000000000000000000000000000000
:1001000000000000000000000000000000000000EF
:1001100000000000000000000000000000000000DF
:10040000DFF80CD000F090F800480047E90C00003D
:10041000D0200020401E00BF00BF00BF00BF00BFB3
:1004200000BF00BF00BF00BF00BF00BF00BF00BFD4
:1004300000BF00BF00BF00BF00BF00BF00BF00BFC4
:1004400000BF00BF00BF00BF00BF00BF00BF00BFB4
:1004500000BF00BF00BF00BF00BF00BF00BF00BFA4
:1004600000BF00BF00BF00BF00BF00BF00BF00BF94
:1004700000BF00BF00BF00BF00BF00BF00BF00BF84
:1004800000BF00BF00BFC5D170470000401E00BFC5
:1004900000BF00BF00BF00BF00BF00BF00BF00BF64
:1004A00000BF00BF00BF00BF00BF00BF00BF00BF54
:1004B00000BF00BF00BF00BF00BF00BF00BF00BF44
:1004C00000BF00BF00BF00BF00BF00BF00BF00BF34
:1004D00000BF00BF00BF00BF00BF00BF00BF00BF24
:1004E00000BF00BF00BF00BF00BF00BF00BF00BF14
:1004F00000BF00BF00BF00BF00BF00BF00BFC5D12D
:10050000704700000648804706480047FEE7FEE7C0
:10051000FEE7FEE7FEE7FEE7FEE7FEE7FEE7000098
:10052000FD06000001040000064C074D06E0E068EF
:1005300040F0010394E8070098471034AC42F6D32A
:10054000FFF762FF6C1800008C1800002DE9FE4FC9
:100550000026B1464FF4807002900125002412E07D
:10056000029800F095FD40B100BF46480068284061
:1005700018B1029800F07EFD2E436D000298001D18
:1005800080B20290641C082CEAD34FF4BE7000F0D5
:100590007FFD48B14FF4BE7000F06CFD46F00046A0
:1005A00000BF394800688146F0B2F8B10125002447
:1005B0001AE005EA0600A8B100BF344850F824004C
:1005C000C0F30420074600BF304850F82400C0F3B1
:1005D00001408046204600F0DFF982464146384619
:1005E000D04700BF6D00641C082CE2D306F0004029
:1005F000002844D0002440E025480057401C002833
:100600003AD0234810F804A02AF0C007384600F07A
:10061000CBF9804600F0C0F90190019858B34FEA39
:100620009A1B012000FA07F500BF1A4850F827006E
:10063000C0F30140804605EA090010B1B8F1020F8D
:1006400005D005EA0900A8B9B8F1030F12D1BBF132
:10065000030F0BD1B8F1020F01D1032000E00220FB
:1006600000903846009900F0DDFC00BF594638463E
:10067000019A904700BF00BF641C002CBCD0BDE8AD
:10068000FE8F00000463004010050050106500401C
:10069000800000200007005000BF00BF00BFBFF374
:1006A0004F8F00BF00BF00BF0948006800F4E06042
:1006B00008490843001D0649086000BF00BF00BF8D
:1006C000BFF34F8F00BF00BF00BF00BF00BFFDE7FB
:1006D0000CED00E00000FA0510B50249024800F0F8
:1006E0003BFA10BD84000020003000400148024960
:1006F000086070470090D0033800002010B500F06B
:1007000059F928B175480068C0F34230744908604F
:1007100000F08CF928B17348006820F080707149AE
:10072000086000F0A1F948B100206F4908604FF05F
:100730008041C1F810016A49091F086000F0D0F932
:1007400018B1032066496431086000F0E7F9002819
:1007500055D066480068664908606448001D006816
:10076000091D0860614808300068091D08605F487D
:100770000C300068091D08605C4810300068091DD5
:1007800008605A4814300068091D0860574818303E
:10079000006857492031086054481C300068091D22
:1007A0000860524820300068091D08604F48243016
:1007B0000068091D08604D4828300068091D086060
:1007C0004A482C300068091D0860484830300068ED
:1007D000474940310860454834300068091D0860C9
:1007E000424838300068091D086040483C300068C5
:1007F000091D08603D4840300068091D08603948FF
:100800007438006840F4700036497439086000BFDD
:1008100000BF00BFBFF34F8F00BF00BF00BF00BFCE
:1008200000BF00BFBFF36F8F00BF00BF00BF3148E4
:10083000006800F00100F0B101202F49086000BFFE
:100840002E4800680028FBD02A48006820F00100EC
:100850004FF01021C1F80C0200BF284800680028A2
:10086000FBD000202449086000BF2448006800280D
:10087000FBD0FFF711FF1F480C38006800F0004064
:1008800028B91C480C38006800F0004018B301205B
:100890001949086000BF194800680028FBD01520DE
:1008A00014490C39086000BF144800680028FBD0C8
:1008B000152110480838016000BF10480068002862
:1008C000FBD000200C49086000BF0C4800680028DD
:1008D000FBD0FFF7E1FEFFF709FF10BD4402001057
:1008E0003C050040FCED00E00C0100400404001059
:1008F00020C500400C12001004E5014000E4014056
:1009000010B50448007F10B100F0FAFE01E000F0DD
:1009100047FE10BDAC00002002E008C8121F08C14D
:10092000002AFAD170477047002001E001C1121F70
:10093000002AFBD17047000000BF00BF00BF00BF0E
:1009400000BFBFF34F8F00BF00BF00BF0948006862
:1009500000F4E06008490843001D0649086000BF34
:1009600000BF00BFBFF34F8F00BF00BF00BF00BF7D
:1009700000BFFDE70CED00E00000FA050EB50446EF
:10098000002000900190029002946A46002144F2F7
:100990000100FFF7D1FF00000146024850F8210096
:1009A000704700003C000020014601484056704757
:1009B000600000201C480078062832D11A48001D2B
:1009C000007800F00F0060BB17480830007800F096
:1009D000F000302807D114480C30007800F0F00007
:1009E00008B90120704710480830007800F0F00086
:1009F000402807D10C480C30007800F0F00008B90E
:100A00000120EFE708480830007800F0F000502897
:100A100007D105480C30007800F0F00008B901203B
:100A2000E0E70020DEE70000E00F00F00D4800786E
:100A3000062814D10B48001D007800F00F0070B993
:100A400008480830007800F0F000302807D1054849
:100A50000C30007800F0F00008B901207047002049
:100A6000FCE70000E00F00F01C480078062832D1B7
:100A70001A48001D007800F00F0060BB17480830CE
:100A8000007800F0F000302807D114480C300078CE
:100A900000F0F00008B901207047104808300078D5
:100AA00000F0F000402807D10C480C30007800F02E
:100AB000F00008B90120EFE708480830007800F09E
:100AC000F000502807D105480C30007800F0F00005
:100AD00008B90120E0E70020DEE70000E00F00F0A9
:100AE0000D480078062814D10B48001D007800F04E
:100AF0000F0070B908480830007800F0F000302886
:100B000007D105480C30007800F0F00008B901204A
:100B100070470020FCE70000E00F00F00D4800786F
:100B2000062814D10B48001D007800F00F0070B9A2
:100B300008480830007800F0F000502807D1054838
:100B40000C30007800F0F00008B901207047002058
:100B5000FCE70000E00F00F07FB506460C464FF4BE
:100B60009271304600F0A5FAE8B14FF49271304628
:100B700000F0A6FA4FF48271304600F09AFA90B96C
:100B8000A168304600F09FFA0220A060A1683046BC
:100B900000F09CFA2021304600F0A9FA14213046DA
:100BA00000F0A5FA7FBD4FF48271304600F081FA63
:100BB000002844D04FF48271304600F081FAD4E925
:100BC0000412E06801AB07C394F82300D8B1207B7E
:100BD000012804D1304600F082FAC0B203E030466A
:100BE00000F08EFAC0B28DF80600207B022804D1F6
:100BF000304600F074FAC0B203E0304600F080FAEC
:100C0000C0B28DF807004FF4B071304600F058FACA
:100C10004FF4AE71304600F053FA94F8250018B145
:100C200094F8230000283ED00021304600F05CFA02
:100C30000020A060411E304600F045FA33E04FF43A
:100C4000A471304600F03CFA207B90B9D4E904123C
:100C5000E06801AB07C394F8250020BB00213046B3
:100C600000F042FA0020A060411E304600F02BFA4E
:100C700019E04FF40071304600F036FA40F20220DD
:100C8000A0604FF0FF31304600F01DFAA1683046F9
:100C900000F01CFA0821304600F029FA20213046E5
:100CA00000F025FA7EE7304600F0FDF9054605F034
:100CB000020018B101208DF8000009E005F00400E1
:100CC00018B102208DF8000002E000208DF800002D
:100CD00094F8250010B9002084F824006846D4E96F
:100CE0000021904700BF5DE72DE9F04188B000BFCB
:100CF00000201AE00121814001F08061A1B100BF14
:100D000001210A4600231E461F4641EA420C4CEAD6
:100D1000830C4CEA062C4CEA0748DFF8D8C04CF8A4
:100D2000208000BF00BF00BF401C2028E2D300BFCE
:100D300000BF31490868090681432F4A121D11601E
:100D400000F08061121D116000BF4FF4FA7000F0D6
:100D500063F800BF2849086809068143264A121D26
:100D6000116000F08061121D116000BF4FF4FA7035
:100D700000F052F800F0A6FA2049072000F034FAFB
:100D800004460CB100BFFEE71D49082000F02CFA14
:100D900004460CB100BFFEE707A9002000F024FACA
:100DA000044606A9012000F01FFA044615A00068B9
:100DB000059015A00068049014A000680390022517
:100DC0000120034603AA40210090114800F0E8F8F2
:100DD0000446002005900290022302AA40210C48FC
:100DE00000F0C8F8044600200A49087008B0BDE8C1
:100DF000F081000000070050040500502C00002086
:100E00002D000020E700000084B80000E30000008F
:100E10002C1800000600002001B506E00098401ED6
:100E2000009040F2E730FFF7F5FA00980028F5D17E
:100E300008BD000070B50B4601461A46002907DAC6
:100E40005407260E104C01F00F052D1F665503E0C8
:100E50005407250E0D4C655400BF00BF00F01F0263
:100E6000012191400A4A440942F8241000BF00BF02
:100E700000F01F02012191404209920002F1E0229C
:100E8000C2F8001100BF70BD18ED00E000E400E002
:100E900080E200E00146C1F3073250B270470146DC
:100EA00001F06040B0F1005F01D1012070470020E7
:100EB000FCE70000027902EB8202064B03EBC20161
:100EC000026800BF0623C2F8003500BF022281F885
:100ED00022207047840000202DE9F04706460C468A
:100EE00017469846307900EB80001F4901EBC0059A
:100EF00095F8220010B10820BDE8F0871CB93079C0
:100F00001A4901EB00142F60C5F804800020A86086
:100F100085F8250085F824002146304600F088F940
:100F200040F20C611248226840F82210626840F8D2
:100F3000221030680146D4E90023C1F80825C1F821
:100F40000C3500BFA168C0F8241500BF286830B177
:100F50003068FFF79FFF8146217BFFF76BFF012081
:100F600085F822000020C7E7840000205018000008
:100F700000070050FEB507460C4615461E46074AB8
:100F800007CA8DE807008DF801408DF802600195D1
:100F900000226946384600F021F8FEBD60180000C6
:100FA0002DE9FE4307460C4615461E46DDF828800F
:100FB00000200090019002908DF801408DF80260B1
:100FC0000195B8F1000F01D0202000E0002002467A
:100FD0006946384600F002F8BDE8FE832DE9F0418D
:100FE00005460E4614464FF0000804F0010010B10B
:100FF0000620BDE8F08104F0020008B10620F8E701
:10100000287900EB8000064901EBC00723463246F1
:101010003846296800F074F980464046E9E7000048
:1010200084000020074A52F8202022F44033054A69
:1010300042F8203052F8202042EA0143014A42F8A7
:10104000203070470007005001218140014A1160A3
:10105000704700000C05005001218140014A1160D9
:1010600070470000080500500146014808447047D9
:101070000060004038B504462046FFF7F5FF002128
:1010800001602046FFF7F0FF0068009000BF38BD08
:1010900010B504462046FFF7E7FF0068012800D19D
:1010A00010BD0020FCE70146D1F8C404C1F8C40417
:1010B00070470246505808B1012070470020FCE7F5
:1010C000002242507047C0F808137047C0F804135C
:1010D0007047C0F834154FF4A7631A5070470146A3
:1010E00040F23C5040587047C0F80012704701224F
:1010F00042507047C0F844154FF4A9631A50704726
:10110000014640F24C50405870470146D1F88004E7
:10111000C1F8800470470246505808B1012070475A
:101120000020FCE7002242507047C0F808137047C7
:101130000246D2F80403084008B10120704700209D
:10114000FCE70122425070470146D1F88004C1F803
:10115000800470470246505808B1012070470020B3
:10116000FCE7002242507047014640F23C50405894
:101170007047000010B51048C07D40B94FF484712D
:101180000E48FFF7CFFF00BF0D48006810BD4FF4B9
:1011900084710A48FFF7C6FF00BF09480068C0B263
:1011A0000549C968044A527E88540348407E401C61
:1011B0000149487600BFE9E7AC000020002000406C
:1011C000182500407FB504460D4601208DF800002B
:1011D0008DF80840019503480168426868469047C9
:1011E0007FBD0000AC000020F8B504460D4601208C
:1011F00000900D4800EB840083780B4800EB8402DC
:1012000040210A48FFF7CCFE06460EB13046F8BD35
:10121000054800EB8400C3782A4640210348FFF7C5
:10122000A9FE06463046F2E7080000202C18000010
:1012300070B506460C4640F20C612048226840F822
:101240002210626840F822102068FFF705FF6068EE
:10125000FFF702FF40F20D611848226840F82210A3
:10126000626840F822100420FFF710F9002516E00C
:10127000606813490968C14001F0010111B105B965
:1012800070BD0EE02068FFF7DFFE0420FFF7FEF8D8
:101290002068FFF7E1FE0420FFF7F8F86D1C092D28
:1012A000E6DB00BF6068FFF7CFFE0420FFF7EEF833
:1012B0006068FFF7D1FE00BFE2E7000000070050C2
:1012C000100500507FB50C4B0FCB8DE80F000023AD
:1012D0001A4669460948FFF7FFFD044600BF254648
:1012E00025B100BF2846FFF749FB00BF00BF0348F8
:1012F000FFF7E0FD7FBD0000401800002C18000043
:101300002DE9F05F05460F4614461E464FF00009D2
:101310004FF0080A4FF4827B6068FFF7C0FD10B9F8
:101320001020BDE8F09F4FF0FF313846FFF7CBFEAD
:1013300095F8240028B1A9683846FFF7C7FE1120A8
:10134000EFE706F0040020B906F0100008B901200C
:1013500000E0002085F8240094E80700C5E90412A5
:10136000E860C6F3001085F825006078C7F88805A6
:1013700000BF4FF482713846FFF7A2FE4FF492711E
:101380003846FFF79DFE2078002854D0012878D0F9
:1013900002283DD0032873D1A068FFF780FD08B96B
:1013A0001020BEE74FF480713846FFF79DFEA2780B
:1013B00038466168FFF79EFE4FF4A8713846FFF784
:1013C0007FFE4FF4B0713846FFF77AFE4FF4A471F8
:1013D0003846FFF775FE20213846FFF788FE0821C2
:1013E0003846FFF784FE00BF4FF4A8713846FFF778
:1013F00060FE0028F8D04FF4A8713846FFF760FE71
:10140000E2783846A168FFF775FE4B48A8604FE0C8
:10141000A27838466168FFF76DFEE2783846A16829
:10142000FFF757FE4FF484513846FFF75DFE40F258
:101430000220A8603CE0A27838466168FFF75AFEB7
:1014400006F0200070B14FF480713846FFF74CFE73
:101450003948A8604FF4A4713846FFF731FE4FF4C5
:10146000A47B07E04FF400713846FFF73DFE40F2E1
:101470000220A86020213846FFF739FE18E000E07E
:1014800013E0A27838466168FFF723FE4FF48051DD
:101490003846FFF729FE40F20220A8604FF0000A0C
:1014A00020213846FFF723FE02E04FF0070900BF76
:1014B00000BF06F0080030B92078032803D0514659
:1014C0003846FFF714FE286850B106F0040010B14A
:1014D0004FF40070A860A9683846FFF7F7FD28E0D0
:1014E00014E04FF492713846FFF7E3FD70B14FF40A
:1014F00092713846FFF7E4FD20213846FFF7F7FDEB
:1015000014213846FFF7F3FD4FF4827B59463846E5
:10151000FFF7CFFD0028E4D03846FFF7C4FD804632
:10152000002085F82400B8F1000F01D04FF0030926
:1015300000BF4846F5E600000002040010B54FF475
:101540008E710948FFF7EEFD084880680749898ACF
:10155000445C0648808A401C04498882204604492D
:10156000086000BF10BD000000200040AC0000205B
:101570001C2500401FB5044600208DF800008DF8A2
:101580000840064880680190002004498875084694
:1015900001684268684690471FBD0000AC0000200B
:1015A0007FB54FF400715448FFF7C2FD68B34FF4A4
:1015B00092715148FFF7AFFD38B34FF492714E4826
:1015C000FFF7B0FD4FF401714B48FFF7AEFD4B48FC
:1015D000807E18B904214848FFF7B3FD02208DF83A
:1015E00000004548FFF791FD03904448C17D8DF808
:1015F0000810C068019000204049C8750876084668
:1016000001684268684690473CE004213A48FFF789
:101610008FFD002836D04FF484713748FFF77BFDEB
:1016200000282FD0FFF7A6FD3448C07D3349497EFE
:10163000884227D13148007E80B13048C468457E59
:10164000007E2E49C87508460069C86000200876EB
:10165000487621462846FFF7B5FD13E02748807EEF
:1016600018B904212448FFF76CFD4FF4017122489A
:10167000FFF75BFD00202149C8750A46D168507EFE
:10168000FFF7A0FD4FF48E711B48FFF744FDA0B19A
:101690001A48808A1949897D884202DAFFF74EFF8D
:1016A0000BE04FF48E711448FFF73CFD1348807D2A
:1016B00018B11249887DFFF75DFF4FF4A2710E4803
:1016C000FFF729FDB0B14FF4A2710B48FFF72AFDD7
:1016D0000A48807E18B100210748FFF732FD07480D
:1016E000C07D38B100200549C8750A46D168507ED2
:1016F000FFF768FD7FBD000000200040AC00002027
:101700007FB54FF492714648FFF724FDF0B14FF4D6
:1017100092714348FFF725FD02208DF800004048F4
:10172000FFF712FD03903E48FFF71EFDC1B28DF892
:1017300008103C48C068019000203A49C8750876F6
:101740000846016842686846904737E04FF4887160
:101750003348FFF7FFFC002830D04FF48871304841
:10176000FFF7FFFC2E48FFF7FFFCC4B22D48C07DF9
:10177000A04222D12B48007EB8B12A48C56820205B
:10178000294909688143264AC2F8001200BF25484A
:10179000007E2449C87508460069C86000200876A4
:1017A00029462046FFF70EFD07E000201D49C875B9
:1017B0000846C1682046FFF705FD00BF4FF4A2713F
:1017C0001748FFF7C7FC98B14FF4A2711448FFF710
:1017D000C8FC1448C07D58B100201249C875104893
:1017E000FFF7C2FCC4B20F48C1682046FFF7EAFC0D
:1017F0004FF490710A48FFF7ADFC78B14FF4907147
:101800000748FFF7AEFC0748807D38B1044840F236
:101810004C510958CCB22046FFF7ACFE7FBD00000A
:1018200000200040AC0000200022004000300040BA
:1018300000010000080605070000000000509D00A0
:101840000700000009000000000068060100000019
:101850001B0000001A0000000000980103000000B7
:101860000100000000000000000000008C180000D3
:10187000000000203C00000018090000C81800000B
:101880003C00002094200000280900000000000017
:1018900000000100E3000103F3000103FE0001006A
:1018A000E6000101E7000101FA0F0208FCC9020687
:1018B00084B80201FCC90201000000000000000021
:0818C000000000000090D003BD
:0400000500000401F2
:00000001FF
