:020000040001F9
:10B00000504700208DB4010095B4010097B40100B1
:10B0100099B401009BB401009DB401000000000040
:10B020000000000000000000000000009FB40100CC
:10B03000A1B4010000000000A3B40100A5B4010008
:10B04000A7B40100A7B40100A1B90100A7B4010091
:10B05000A7B40100A7B4010081B50100A7B40100A5
:10B06000A7B40100A7B40100A7B40100A7B4010070
:10B07000A7B40100A7B40100A7B40100A7B4010060
:10B08000A7B40100E9B60100A7B40100A7B401000C
:10B090000DB70100A7B4010011B70100A7B401006A
:10B0A000A7B40100A7B40100A7B40100A7B4010030
:10B0B000A7B40100A7B401000000000000000000D8
:10B0C000A7B40100A7B40100A7B40100A7B4010010
:10B0D000A7B40100A7B40100A7B40100000000005C
:10B0E0000000000000000000000000000000000060
:10B0F0000000000000000000000000000000000050
:10B10000000000000000000000000000000000003F
:10B11000000000000000000000000000000000002F
:10B40000DFF80CD000F08CF800480047C5E80100D8
:10B4100050470020401E00BF00BF00BF00BF00BF5C
:10B4200000BF00BF00BF00BF00BF00BF00BF00BF24
:10B4300000BF00BF00BF00BF00BF00BF00BF00BF14
:10B4400000BF00BF00BF00BF00BF00BF00BF00BF04
:10B4500000BF00BF00BF00BF00BF00BF00BF00BFF4
:10B4600000BF00BF00BF00BF00BF00BF00BF00BFE4
:10B4700000BF00BF00BF00BF00BF00BF00BF00BFD4
:10B4800000BF00BF00BFC5D170470000064880471D
:10B4900006480047FEE7FEE7FEE7FEE7FEE7FEE7B9
:10B4A000FEE7FEE7FEE7FEE735B7010001B4010065
:10B4B00040EA01039B0703D009E008C9121F08C036
:10B4C000042AFAD203E011F8013B00F8013B521EB6
:10B4D000F9D27047D2B201E000F8012B491EFBD22D
:10B4E00070470022F6E710B513460A46044619468F
:10B4F000FFF7F0FF204610BD421C10F8011B002989
:10B50000FBD1801A704730B504460020034600E0A6
:10B510005B1C934203D2E05CCD5C401BF8D030BD95
:10B52000064C074D06E0E06840F0010394E8070090
:10B5300098471034AC42F6D3FFF766FF88FF01004E
:10B54000A8FF010030B58C1810F8012B12F00F0382
:10B5500001D110F8013B120906D110F8012B03E0CC
:10B5600010F8015B01F8015B5B1EF9D101E001F805
:10B57000013B521EFBD1A142E6D3002030BD0000AA
:10B580002DE9F0470025DFF8F090A8464FF48076CB
:10B5900001242F46304603F0F3FB38B1D9F80403F9
:10B5A000204203D0304603F0E1FB2543361D640002
:10B5B0007F1CB6B2082FEDD34FF4BE74204603F0C3
:10B5C000DFFB38B1204603F0D1FB2C4845F00045A5
:10B5D000D0F800802A4E15F0FF0F14D00127002468
:10B5E0002F420CD009EB8401D1F81005D1F81015C9
:10B5F000C0F3042056F82420C1F3014190477F0096
:10B60000641C082CECD3002D32DA0024B14609EB7F
:10B6100004004E4690F95010491C26D090F8507006
:10B6200027F0C005284601F0C9FE56F82060E6B1B3
:10B63000BF090120A840A90001F1A041D1F80017DD
:10B6400010EA080FC1F3014102D0022902D00CE038
:10B6500003290AD1032F05D102290BD00221284644
:10B6600003F075FB39462846B047641C042CCED342
:10B67000BDE8F0870321F2E70060004010050050AC
:10B68000B826002000F01F020121914040098000EF
:10B6900000F1E020C0F88012704700F01F02012185
:10B6A00091404009800000F1E020C0F8001170478F
:10B6B00000F01F02012191404009800000F1E020CC
:10B6C000C0F8001270474907090E002806DA00F09A
:10B6D0000F0000F1E02080F8141D704700F1E02019
:10B6E00080F800147047000007480021C0F840119E
:10B6F000C0F84411C0F84811C0F84C11C0F800114E
:10B70000C0F8041104F0B0B90010014004F048B9C9
:10B71000074810B5406830B18047002807D0BDE821
:10B72000104000F0DFBABDE8104002F065BF10BD68
:10B730003820002070B58D480023021D0178101DAF
:10B740000124062907D115782D0704D10578C5F302
:10B750000315032D02D0062904D00FE0854E844D39
:10B7600075670EE015782D0708D10578C5F3031528
:10B77000032D06D0042D04D0052D02D0062909D0B2
:10B7800010E04FF08055D5F844527B4EC5F342355A
:10B79000356002E015782D0704D10578C5F303154F
:10B7A000032D02D0062906D011E0744D2E6826F034
:10B7B00080762E600EE015782D0708D10578C5F348
:10B7C0000315032D06D0042D04D0052D02D0062923
:10B7D0000AD011E04FF08045C5F80C31C5F81031A2
:10B7E000654D2D1F2B6002E015782D0704D10578DB
:10B7F000C5F30315032D02D0062905D00CE05E4ADF
:10B800000321643211600AE015782D0704D1057810
:10B81000C5F30315032D02D006290DD06AE0584A5E
:10B8200005211160564978310C60554908310B608B
:10B830003F21121D116002E0117809075AD10078EA
:10B84000C0F30310052855D14E4800684E490860E2
:10B850004C48001D0068091D08604A48083000680F
:10B86000091D086047480C300068091D08604548FC
:10B8700010300068091D0860424814300068091D36
:10B8800008604048183000683F49203108603D4852
:10B890001C300068091D08603A4820300068091D06
:10B8A0000860384824300068091D08603548283091
:10B8B0000068091D086033482C300068091D0860C5
:10B8C0003048303000683049403108602D4834300D
:10B8D0000068091D08602B4838300068091D0860A1
:10B8E00028483C300068091D086026484030006840
:10B8F000091D086021487438016841F47001016035
:10B90000BFF34F8FBFF36F8F4FF01021D1F80002BC
:10B91000002803DBD1F80402002822DA1B4A146055
:10B920001B480468002CFCD01524C1F800420568AF
:10B93000002DFCD0C1F8044201680029FCD013603E
:10B9400001680029FCD0BFF34F8F0C48F038016824
:10B95000104A01F4E06111430160BFF34F8F00BF53
:10B96000FDE70E490C48086070BD0000E00F00F0D4
:10B970000DF0ADBA00C007403C050040FCED00E012
:10B98000105600400404001020C5004004E50140AA
:10B9900000E401400400FA050090D003441F002099
:10B9A0000348007F08B104F049B904F0C3B80000AF
:10B9B0001027002002E008C8121F08C1002AFAD18F
:10B9C00070477047002001E001C1121F002AFBD11F
:10B9D00070472DE9FC5F0025168807461580406BEF
:10B9E00014468946A8464FF00C0A11234FF0020B6B
:10B9F00098B101784846032E48D380F800B02288D9
:10BA0000521C92B2228083542288521C92B222800D
:10BA100009F802102088401C20803A6BDAB1208897
:10BA2000494600F11205B54230D80B542088102346
:10BA3000401C80B220800B542088401C20800F20A6
:10BA40002388155C401ECD54238840B25B1C2380A4
:10BA50000028F5DA454697F82E0030B133462246E5
:10BA6000494602F037FE050011D197F82D0030B19C
:10BA700032462146484600F0B7FE050007D1B878A7
:10BA800020B32088C846001DB04202D95046BDE808
:10BA9000FC9F684679DF0028F9D12188032008F847
:10BAA000010020881921401C80B2208008F8001075
:10BAB0002088401C80B2208000EB0801BDF8000007
:10BAC00004F028F90146208808442080F878B8B1AD
:10BAD000228897F90310D31C4846B342D6D800F801
:10BAE00002B022880123521C92B222808354228801
:10BAF000521C92B2228009F802102088401C20803B
:10BB00007868B8B1218890F90020CB1C4846B34230
:10BB1000BCD800F801B021880A23491C89B22180D1
:10BB200043542188491C89B2218009F801202088CA
:10BB3000401C2080388950B1CDE900464B46062292
:10BB4000022107F1080004F05FF905009FD1388A4F
:10BB500050B1CDE900464B460722032107F1100002
:10BB600004F052F9050092D1388B50B1CDE900466E
:10BB70004B461522142107F1180004F045F9050081
:10BB800085D1386A30B133462246494601F0C6FDB8
:10BB90000500DBD1786A30B133462246494602F0CF
:10BBA00037FF0500D2D197F82C0038B13346224632
:10BBB0004946384603F058FC0500C7D1387838B1FB
:10BBC000334622464946384602F054FF0500BDD1AF
:10BBD00028465CE710B501220221002001F008FA96
:10BBE00008B1072810D107220221012001F000FA34
:10BBF00008B1072808D100210A22084601F0F8F907
:10BC000008B1072800D1002010BD000006480068D8
:10BC10004FF40021044A8143121D1160111D00F4EC
:10BC200000200860704700000405005070B5002433
:10BC3000064D06E06868012110F8340002F08AFF22
:10BC4000641C28788442F5D3002070BD04200020B5
:10BC5000F8B515460C460646052A01D20720F8BD60
:10BC600003F05AF818B903F02DF80028F7D110495D
:10BC700000204E600C70C1E902500E4D08610DE0CD
:10BC800006EBC4006968009181788DF80110007896
:10BC9000094A694602F0B0FF0028E0D1641EE4B210
:10BCA000EED2BDE8F840054A0021024800F052B843
:10BCB0000420002080FF010029E50100CDD801000B
:10BCC000BFF34F8F05480168054A01F4E061114355
:10BCD0000160BFF34F8F00BFFDE700000CED00E0F7
:10BCE0000400FA050EB500210091CDE901106A4665
:10BCF00044F20100FFF7E4FF014B1B681847000006
:10BD0000BC25002038B50C46074BA268097802EB29
:10BD1000420253F82250054A126A0092024604F188
:10BD200008002369A84738BDAC260020E01F00208A
:10BD3000074910B50A7802EB820201EB8201091D66
:10BD4000FFF7E0FFBDE81040042003F09BBC0000BB
:10BD5000E0250020074B9B6823B12AB120B1006881
:10BD6000037C1BB108207047072070474174426173
:10BD700000207047182000202DE9F04780469946A2
:10BD800014460F4690074FF0000634D11C4D8CB37B
:10BD900003F09CFA0320C5F81490287004F11800F1
:10BDA000002107EB4703AC6004EBC102491C16708D
:10BDB00056709770506000EBC3000329F4DBEE600F
:10BDC0006E70AE701420FFF75DFC03211420FFF7A6
:10BDD0007AFC1420FFF761FC0A49C1F800800321B6
:10BDE0001120FFF770FC0748001F00682861002041
:10BDF000BDE8F08701E00720FAE7AE60FBE700004E
:10BE000018200020081501402DE9F843DFF8709054
:10BE10000D461746D9F80810044651B34CB3052D0A
:10BE200002D20720BDE8F883606910B3607C012866
:10BE300021D0002603F0B2FFD9F80810804601EBAC
:10BE4000C800694603F0CCFFB8B1012100F8041B1B
:10BE50000C4910C0096880E8E200D9F8081001EB2D
:10BE6000C8009DF8001041701420FFF721FC00204D
:10BE7000D8E70820D6E72E46DCE70420D2E700000A
:10BE80001820002004150140F8B5124E0446B16890
:10BE9000E1B1DCB16069C8B10027277403F07EFF0F
:10BEA0000546B068694600EBC50003F099FF78B11C
:10BEB000022101704460B0689DF8001000EBC500DD
:10BEC00041701420FFF7F4FB3846F8BD0820F8BD98
:10BED0000420F8BD182000202DE9F0430546007D20
:10BEE00093B00E460024A0B107949DF81C0020F0EA
:10BEF0000F00401C20F0F00010308DF81C00707B0B
:10BF00008DF81D009DF81E0020F00600801C8DF8A5
:10BF10001E001C216846FFF7E4FA9DF8000040F07F
:10BF200002008DF80000297D11B140F0100001E001
:10BF300020F010008DF80000019403940494287DF3
:10BF400000B107A8CDE9050401278DF8427042F63B
:10BF50001920ADF840000D94B07B8DF83400F07BD3
:10BF60008DF835009DF83600142120F00600801C65
:10BF700020F019008DF83600307B8DF8440008A8B9
:10BF8000FFF7AFFA0DF140080DF13409ADF8287054
:10BF900011A8CDE90889ADF82A40ADF82C700C90B5
:10BFA000A888AB1D08AA6946A2DF002838D1B0686E
:10BFB00098B38DF8427042F60810ADF840000D9429
:10BFC000307C8DF834009DF8350020F0FF008DF8AE
:10BFD00035009DF8360020F00600801C20F0190086
:10BFE0008DF836000EA8B16800F00BFD064614214E
:10BFF00008A8FFF776FAADF828600EA8CDE9088901
:10C00000ADF82A40ADF82C600C90E88805F10E02DE
:10C0100008A9A3DF002803D101E0FFE7EC8100209D
:10C0200013B0BDE8F083000010B50D490D4803F0D2
:10C030000EFAC1B20A48743800F042FA00280DD056
:10C0400008280BD0A0F54051043907D043F2014134
:10C05000884203D0BDE81040FFF744BE10BD000089
:10C06000F0220020101F0020F0B50C4693B01F21D5
:10C070000726ADF80010ADF80410002750B1C178C4
:10C0800049070DD56A4602A9FFF7A3FC002808D18D
:10C0900002AD02E00025ADF800706CB1E07810B19F
:10C0A000304613B0F0BD01AA0AA92046FFF791FC63
:10C0B0000028F6D10AAA02E00022ADF80470BDF80B
:10C0C0000400C3B2BDF80000C1B2284672DFE8E741
:10C0D00070B50D4604991646040040D0F6B34148A9
:10C0E00000224271C0E90331242231463E48FFF765
:10C0F000DFF900F0D5F83C493431A1F110000160BE
:10C100002031816038215C38FFF7EBF9364821781F
:10C1100038380170A1788170E178C1706178417020
:10C12000D4E90412C0E90412D4E90212C0E90212EF
:10C13000D4E90612C0E90612616AD1B100F1AC017E
:10C1400000F1B80241628A60636A1B880B80616AF1
:10C15000436A898899800021436A07E0FFE70E203F
:10C1600070BD666AB668765C5654491C9E888E42DD
:10C17000F7D8A16AD9B11C4AAC32A2F10C018A608D
:10C180008162A36A9B888B80A16A836A098819806F
:10C190000021836A04E0A66AB668765C5654491C9E
:10C1A0009E888E42F7D894F82C1080F82C10216AC3
:10C1B00049B10C4914310162226A52884A80216ACD
:10C1C000026A09881180616821B10649891D4160B0
:10C1D000616841602946BDE8704003483838FFF780
:10C1E00043BF0000481F0020A423002010B5028890
:10C1F0001D4C102A18D00021112A1BD0192A18D141
:10C200008079002815D16079012820D0022824D017
:10C21000032824D004280CD12171E2680846002AA2
:10C2200007D0BDE810401047017D012901D1808869
:10C23000208110BD6170808821898842F9D1012058
:10C2400006E021690029F4D0BDE81040084702202B
:10C2500000F04AF80028F4D110BD0320F8E70320CD
:10C2600020710420F4E70000481F002010B50228C8
:10C2700001D0032810D1094C207800280CD00020D0
:10C280002070607900F030F8002805D0216900297D
:10C2900002D0BDE81040084710BD0000481F002034
:10C2A000024800218161818381777047481F002007
:10C2B0000B4810B50078012810D10A4C607868B995
:10C2C000607910B174DF002809D1012060706079B5
:10C2D00000F00AF810B1216901B18847002010BDB3
:10C2E000A4230020481F00202DE9F04F724C87B096
:10C2F0000026607106A8069602F0E0FD01270828D6
:10C3000005D0002871D1069810B12770C0E00696BC
:10C31000FFF7C6FF694D687810B16079012804D035
:10C32000A87848B16079022806D1E16819B1E770B0
:10C330000820884700E0E6706079DFF87C814FF0E4
:10C34000020A08F118084FF0030B012806D168789B
:10C3500040B108F1010002F057FD18B160790228E0
:10C3600002D00AE084F805A0A87820B108F1010005
:10C3700002F04AFD08B984F805B0287B4FF00409A3
:10C3800020B96079032801D184F80590287E20B96E
:10C390006079042801D166712671E16841B1607944
:10C3A000032801D0042803D1287808B16078C0B1EF
:10C3B000A67018216846FFF794F88DF80060019682
:10C3C0008DF808600396607901280FD0022817D0F5
:10C3D0003A4E2436A6F15C0703281ED004284DD11E
:10C3E0003BE0A77007208847E3E752E0ADF8126012
:10C3F000CDF804808DF80070ADF8106027713FE033
:10C40000CDF804808DF800702889ADF81200A88856
:10C41000ADF8100084F804A032E0A88AADF812004C
:10C42000288AADF810002548243003F054FD18B1D7
:10C43000287808B1607810B184F804B01EE01F4875
:10C440008DF808A0039687F8039000213838FFF78D
:10C450000BFE00281DD105202BE0A88BADF81000A5
:10C46000288CADF812001548243003F034FD18B1C3
:10C47000287808B1607878B184F80490607918B1B0
:10C48000684673DF002804D1E16809B12079884744
:10C49000002007B0BDE8F08F08488DF808A003968B
:10C4A00087F8039000213838FFF7DEFD0028F0D12F
:10C4B00006202071E2E70000481F0020A42300208E
:10C4C00073B586B0040034D0217C9DF81C20002078
:10C4D00091422CD0002501260095ADF8006007A8F8
:10C4E000ADF802500190E188608A6A46A4DF002816
:10C4F0001DD19DF81C002074608AA0F57F41FF3992
:10C5000019D0207DB8B10295039504950595E08872
:10C51000ADF80800BDF80200ADF80C0001988DF8E8
:10C520000A60CDF810D00590608A02A9A6DF08B095
:10C5300070BD0E20FBE70820F9E738B50D46040072
:10C540001BD0D5B1286820604FF6FF706082287933
:10C550002075FF20207401208DF8020041F60F00A5
:10C56000ADF80000221D69460120A0DF002803D19C
:10C5700029462046FFF7B0FC38BD0E2038BD08B56F
:10C58000002821D000291FD00A88102A17D0112A8C
:10C5900017D0502A18D1027D002A15D031F8062F65
:10C5A00043899A4210D10A8B022A0DD10268002ACF
:10C5B0000AD0897E11F0010F07D0002106E089889A
:10C5C00001E04FF6FF71418208BD01218DF8001096
:10C5D0006946904708BD38B50446086820604FF6A4
:10C5E000FF70E0824889208301208DF8020041F627
:10C5F00010000D46ADF80000221D69460120A0DFA5
:10C60000002809D12946204600F0C9FA002803D1A4
:10C610002946204600F07AFA38BD3EB50C46002186
:10C6200002220191ADF80420ADF80610CDF808D033
:10C630004189C08A01AAA5DF002804D19DF8001015
:10C64000C1F3400121703EBD30B50446C08A8BB0B5
:10C65000A0F57F42FF3A23D005AA204600F005FB53
:10C660000546ADF800000020019002900390049070
:10C67000E188ADF804100221ADF808008DF806102D
:10C6800005A8CDF80CD00490E08A01A9A6DF002807
:10C6900004D1BDF80010A94200D00C200BB030BD71
:10C6A0000820FBE708B50A88102A0ED0112A0ED000
:10C6B000502A10D0532A0DD1C988C288914209D17D
:10C6C00002218DF80010026819E0898801E04FF618
:10C6D000FF71C18208BD31F8062F43899A42F9D112
:10C6E0000A8B022AF6D10268002AF3D0897EC1F3B0
:10C6F000400109B1002100E001218DF800106946D8
:10C70000904708BD70B5054601461C220F48FEF74C
:10C71000CFFE0F4C00262670286830B1016861609A
:10C720004068A060201D7ADF02E00948001D7BDF21
:10C7300000280AD14FF6FF7060806670BDE8704037
:10C74000044A00210448FFF705BB70BD9024002077
:10C75000681F00203DFD010024FF010070B5204C42
:10C76000068800251D49E289102E15D01D4B112E7B
:10C770001ED0122E2BD0502E19D130F8061F914208
:10C7800015D1018B022912D1807E10F0010F13D038
:10C79000BDE8704001F008B883884B80D0F81630AF
:10C7A000CB60D0F81A0008614D70002AF0D070BD3F
:10C7B0004FF6FF7048804D701868FFF765FB002842
:10C7C000F5D0A1690029F2D0BDE87040084750F8C3
:10C7D000062FCA6040680861DAE70000681F002081
:10C7E0009024002024FF01007CB5054608880C46F3
:10C7F0000930904201D90C207CBD684671DF0028C9
:10C80000FAD121880820685420881B21401C80B25E
:10C81000208029542088401C80B220802844DDF8E4
:10C8200001100160BDF8051081802088801D80B254
:10C8300020809DF8001001B1012129542088401C5E
:10C84000208000207CBD00007FB5044601208DF8CB
:10C85000060041F60A00ADF80400454A01A901208E
:10C86000A0DF00287ED1228804F13C0552B1404867
:10C870002B46801C009042F62920616800F0A6FD3E
:10C88000002873D1228952B139482B460A300090D2
:10C8900042F62420E16800F099FD002866D1228A42
:10C8A00052B133482B461230009042F62520616980
:10C8B00000F08CFD002859D1228B52B12C482B4618
:10C8C0001A30009042F62720E16900F07FFD002831
:10C8D0004CD1228C52B126482B462230009042F691
:10C8E0002620616A00F072FD00283FD1228D52B1EE
:10C8F0001F482B462A30009042F62820E16A00F0BB
:10C9000065FD002832D1216B71B102A803F01DF83A
:10C9100017482B4632300090082202A942F6232005
:10C9200000F054FD002821D1606B58B110492B460E
:10C930003A3100910279016842F62A2000F046FD62
:10C94000002813D1A16B81B102A802F09DFA08481A
:10C950002B4642300090072202A942F6502000F0F8
:10C9600035FD00E002E0002800D1002004B070BDD9
:10C970007C1F002070B5044601461B48FFF792FE5D
:10C98000194821461838FFF7FAFD2046FFF7E6FE62
:10C99000204601F0B5F8204600F056FA2088134DE5
:10C9A000102804D011280BD0552817D10EE00720ED
:10C9B00000F040FB08B1FFF795F9A088A8800DE0D2
:10C9C0004FF6FF70A8800020287007E0A07928B9F2
:10C9D0001321A88876DF08B1FFF784F92046BDE867
:10C9E0007040FFF703BC000094220020001F0020CD
:10C9F00070B504460D460846FEF77EFD2080656052
:10CA000070BD0A78027049784170022070470000BA
:10CA100000B585B0002348221449082002F07AFEB0
:10CA200008B1FFF75FF96A460121002002F05CFEC1
:10CA300008B1FFF757F90E4802F08EFC08B1FFF776
:10CA400051F9684602F046FE08B1FFF74BF9094874
:10CA500002F036FE08B1FFF745F9074802F072FE12
:10CA6000002801D0FFF73EF905B000BD34220020B8
:10CA7000001E002075C9010039F9010010B58AB007
:10CA800009A90E48FFF7C9FD08B1FFF72BF90C4CB7
:10CA90009DF82400217888430BD0684600F062F9A5
:10CAA00069460648FFF7D0FD28B1082801D0FFF7F6
:10CAB00019F90AB010BD01202070FAE79422002075
:10CAC000001F00201CB5044681786A460C4802F01D
:10CAD00007FA002813D160780A49C0EBC00001EBC7
:10CAE00080001C231A46694602F0A4FA054806494C
:10CAF0004C30807A51F820202146684690471CBD72
:10CB0000D81F00207025002038FF010070B590B0BC
:10CB10000E4605461C2101A8FEF7E3FC9DF8040023
:10CB2000002440F002008DF8040001208DF836004A
:10CB3000059442F64920ADF8340000949DF80200B7
:10CB4000029420F00600801C8DF8020004940694E4
:10CB50000794F1798DF80010317A8DF8011020F0EA
:10CB600019008DF80200142108A8FEF7BAFC70899C
:10CB70000EA903F0D4F8ADF828000DA9ADF82C00EB
:10CB800008910EA8CDF824D0ADF82A400C90A888C2
:10CB900005F10E0308AA01A9A2DF10B070BD70B59F
:10CBA0009EB00024064608949DF820000D4620F013
:10CBB0000F00401C20F0F00010308DF820009DF890
:10CBC000220020F00600801C8DF8220008798DF8E4
:10CBD00021001C2101A8FEF784FC9DF804000294AA
:10CBE00040F020008DF8040008A80494CDE9054029
:10CBF00001208DF8720042F63520ADF870000094E7
:10CC00009DF80200079420F00600801C8DF80200B9
:10CC100069798DF80010A9798DF8011020F01800BD
:10CC200040F001008DF80200142109A8FEF759FC1C
:10CC300024210EA8FEF755FC1CA80990CDF828D099
:10CC400017AA0EA9304600F010F8ADF82C001420F9
:10CC5000ADF8300017A8ADF82E400D90B088B31D88
:10CC600009AA01A9A2DF1EB070BD2DE9F04708781E
:10CC700016460C46002700B1012794F906104FF61E
:10CC8000FF7909EA01302189C846C1F30B01084345
:10CC9000711C03F044F8401C94F90A10C5B208EA6C
:10CCA0000130A189C1F30B010843711903F037F872
:10CCB000284494F90E10C5B208EA0130218AC1F364
:10CCC0000B010843711903F02AF82844C5B26078B3
:10CCD00000B3711947F002078846608A03F01FF815
:10CCE000227D08F80020401CC0B2627D08F80020B8
:10CCF000401CC0B2A27D08F80020401CC0B2E27DFA
:10CD000008F80020401CC0B2227E08F80020401C19
:10CD10002844C5B2A07870B194F91A1047F00407FE
:10CD200009EA0130A18BC1F30B010843711902F02C
:10CD3000F6FF2844C5B2E07828B1A07F70556D1C7D
:10CD400047F00807EDB2207938B147F010077119A4
:10CD5000208C02F0E4FF2844C5B237702846BDE8B5
:10CD6000F087000030B5234C00220270637853B383
:10CD7000022B28D0002141703BB3012B25D000218C
:10CD800000F8021F1C49427001EB031182704D88AC
:10CD9000C5800D780571CD8845810D7905724D8965
:10CDA000C5810D7A0573D4F806500561D4F80A5090
:10CDB0004561CD894583097B01765B1CD8B26070E3
:10CDC000042804D004E00121D5E70121D8E76270EE
:10CDD0000848801D81791B31C9B281713B2908D96E
:10CDE0003C3981714179491CC9B241713B2900D953
:10CDF000427130BD001F0020B02200207CB5114ED2
:10CE00000C004FF00005306015D06946002000F09E
:10CE1000B1F8002815D101A9012000F0ABF80028D5
:10CE20000FD19DF8041009B1022003E09DF8001015
:10CE300001B10B202070706810B9FEF7CBFE0546DB
:10CE400028467CBD3C1F002010B51A4C0188606844
:10CE500010290ED011292BD1401E606028D1FEF779
:10CE6000B9FE002824D02168002921D0BDE8104057
:10CE70000847D0B900210122084600F0B9F808B1EE
:10CE800007280FD107220221012000F0B1F808B1D4
:10CE9000072807D104220221002000F0A9F820B1C0
:10CEA000072802D0216801B188476068401C606093
:10CEB00010BD00003C1F002010B5032000F02AFA2E
:10CEC00008B1062800D1002010BD00002DE9F04770
:10CED00007460024244802E0641C042C41D250F888
:10CEE0002420BA42F8D1042C3BD21F48DFF87C90B2
:10CEF0001F4E0C38A9F1140841B301290FD00229A3
:10CF00002FD104EB440030444578002D29D0D8F8C7
:10CF10001010002925D02846BDE8F047084704EB4B
:10CF20004401755C0E44717861B1D8F804100F4A61
:10CF300001EB81014900133A8068FEF765FF08B9EB
:10CF400088F80170B17809F80410DEE78068FEF710
:10CF50009BFF04EB4401314419F804008D78A8428A
:10CF6000D3D0BDE8F0870000F4FE0100381F002098
:10CF70004023002004280CD2074A1268074B13F8FC
:10CF8000203001209840904300D0012008700020FC
:10CF900070470020FAE7000010050050F4FE010081
:10CFA0000146124810B58088042911D0072918D0ED
:10CFB0000A2909D00D2918D1A0F57F41FF3914D0D5
:10CFC000BDE81040FFF75ABDBDE8104002F046BB77
:10CFD000132176DF07E0002807D0BDE81040FEF7F8
:10CFE00081BEFFF765F90828F5D110BD001F0020AC
:10CFF00070B50023042810D20D4D00EB4004012A27
:10D0000002D101290CD00022094E00EB400030442F
:10D0100061B1012906D0022906D00723184670BD48
:10D020000D30C2B22A55F9E74270F7E78270F5E792
:10D0300040230020044A01460020127AD20702D081
:10D04000084600F055B87047241F002070B50E4602
:10D050002149054600200A61C1E90165A9071BD5E0
:10D060000024012211462046FFF7C2FF641C042C55
:10D0700002D20028F5D00FE070B9720804211748D9
:10D08000FEF7E6FD40B9FEF7D1FD28B91348144A72
:10D0900000211438FEF75EFEE9070AD0114A4FF46A
:10D0A000F01111600F4B00221B1D1A600D4A103247
:10D0B000116000280FD109480B4A00211C38FEF7E7
:10D0C00049FE002807D1BDE8704004480121074A05
:10D0D0001838FEF73FBE70BD241F002004FF01007A
:10D0E00051D301000805005029E701000DBC0100E3
:10D0F0002DE9F84F854EDFF810A24FF4E01CF168DF
:10D1000007462CEA010C0091002071680AF1040422
:10D11000251D7F4B4FF400324FF4802B01EB810E25
:10D120008146182F16D2DFE807F00C17173A4E6029
:10D130007083868F868FEAA0A0A0A0A0CAD1D8E174
:10D14000EAEA009A4FF4F01191432160C5F800908B
:10D1500086F80090BDE8F88FC4F800C04846C5F8CE
:10D160000090DAF800C08CF4F01C5FEA8C3C09D522
:10D1700022602860022F02D14FF4E16008E04FF4F2
:10D180007A6005E02A602060022F3CD04FF4C8701E
:10D190006422B0FBF2F04143377000225EE0C4F835
:10D1A00000C04846C5F80090DAF800C08CF4F01CC6
:10D1B0005FEA8C3C04D5226028604FF44870E7E7B2
:10D1C0002A6020601FE0C4F800C04846C5F80090FF
:10D1D000DAF800C08CF4F01C5FEA8C3C02D52260C7
:10D1E0002860CCE72A602060D0E7C4F800C0484639
:10D1F000C5F80090DAF800C08CF4F01C5FEA8C3CB3
:10D20000DED522602860C820C2E7C4F800C04846C6
:10D21000C5F80090DAF800C08CF4F01C5FEA8C3C92
:10D2200002D52260286001E02A602060377014E097
:10D23000C4F800C04DE0DAF800002BEA00022260DA
:10D2400000F48020286008E0DAF800002BEA0001F2
:10D25000216000F480202860714600221868BDE833
:10D26000F84FFEF7D1BD21602EE098465868FEF7D2
:10D270000BFED7F1110100D040B1F16801F4F011BB
:10D280002160C5F80090C6F80C9063E74FF40022C7
:10D29000F26001290CD9C82011FB00F16420B1FB18
:10D2A000F0F1706800224143D8F80400FEF7ACFDAD
:10D2B000F16801F4F0112960C4F800904AE74FF4D6
:10D2C000F0112160C5F80090377043E74FF4E0118A
:10D2D00021604946C5F8009006E04FF4D011216066
:10D2E0004946C5F800905A462A60BCE74FF4C01181
:10D2F00021604946C5F800904FF4C022F4E74FF48E
:10D30000F01129604946AEE704050050241F0020B3
:10D31000E8FE010070B500210C4D012455F82120D4
:10D32000920002F1A042D2F8006704FA01F3034030
:10D3300000D0032326F4403646EA0343C2F8003700
:10D34000491C0429EAD3002070BD0000F4FE01004E
:10D3500000780221FFF7BABD05494FF0FF320828D7
:10D3600041F8202002D3084480F84820704700008C
:10D37000B8260020F0B54FF0FF3512B10023082683
:10D3800001E008230C260C4C05E000BF54F8237084
:10D390007F1C04D05B1CB342F8D32846F0BD26188E
:10D3A0005DB286F8305044F82310002AF5D1E11818
:10D3B00081F84800F1E70000B8260020024908443F
:10D3C00090F9300070470000B82600202DE9F043A6
:10D3D0008FB01E46DDF8589015460F00804602D1EA
:10D3E0000020FEF77FFC15B90020FEF77BFC1C2116
:10D3F0006846FEF776F800249DF80000039440F09C
:10D4000002008DF80000012001948DF8360004948C
:10D4100005940694ADF834800C9430788DF8300083
:10D4200070788DF831009DF83200142120F006004C
:10D43000801C20F019008DF8320007A8FEF751F883
:10D440000DA807900CA808900748ADF82450ADF837
:10D450002640ADF828500B974B4607AA694600882E
:10D46000A2DF0FB0BDE8F0837C1F00202DE9F04162
:10D470003B48017801EB810100EB8104D4E903060C
:10D4800000EB40013648241DCC3000EB8100B0F8A1
:10D4900008804589476801F0A2FDB6FBF0F100FB6A
:10D4A000116088B35FF0000008FB05776188A288EF
:10D4B000DFF8B08011448D190022C8F8102040B167
:10D4C00001F08DFD6188884221D0BD4201D1A08844
:10D4D000E8B1A06802281AD001F081FDA188444675
:10D4E0003144B1FBF0F200FB12108008C8F80C00C8
:10D4F00001F075FDB5FBF0F100FB115078B1002093
:10D50000BD4228D068B126E0FFE70120CCE701F05A
:10D5100066FDB6FBF0F10320C8F814101CE00120F2
:10D52000EEE7ADB2BEB201F05AFDB6FBF0F701F086
:10D5300056FDB5FBF0F0874201D1701B09E001F008
:10D540004EFD064601F04BFDB5FBF0F100FB11501E
:10D55000301A800820610220BDE8F04102F092B844
:10D56000E0250020E01F00200648017801EB810142
:10D5700000EB81000079042801D000F059B80120A7
:10D5800002F080B8E02500200A480B4A017801EB40
:10D59000810100EB8100C18811620079012805D06A
:10D5A000032801D0042804D1FFF760BF012002F056
:10D5B00069B87047E0250020E01F002000EB8002E2
:10D5C0000548002100EB820001220171C180C0E901
:10D5D0000321416101817047E02500202DE9F041E0
:10D5E000114D069E6C780A2C1BD02F783C440A2CD7
:10D5F00000D30A3C04EB840405EB840420716261CF
:10D60000D1E90001C4E90301E38026816878401C68
:10D6100068700648007808B9FFF7B6FF0020BDE83B
:10D62000F0810420FBE70000E0250020E01F00203F
:10D6300010B50E4C207800EB800004EB8001002038
:10D64000091DFEF75FFB2078FFF7B8FF6078401EEA
:10D6500060702078401CC0B220700A2801D10020E0
:10D660002070BDE81040002002F00CB8E02500203A
:10D670002DE9F05F2648C168F1B3DFF898B00E6875
:10D680008146DBF800400769C078E11B21F07F4547
:10D69000ED1CB0B9DFF880804FF48030C8F8440347
:10D6A000C8F804031120FDF7EDFF1120FDF7F5FF89
:10D6B0004FF0010AC8F800A02F20FDF7ABFE89F853
:10D6C00003A0B54200D23546124BE8193C3320F096
:10D6D0007F401860DBF800105A46091B21F07F419B
:10D6E000001B20F07F40C91C81420FD910681860D0
:10D6F0002F20FDF78FFE00E004E0BDE8F05F112071
:10D70000FDF7D6BFBDE8F05F01F0E0BDBDE8F09FDA
:10D710001820002004150140001001402DE9F041BF
:10D7200017880646B81D14460D46984202D90C20AB
:10D73000BDE8F0813188072206290AD34FF4486CEE
:10D740004FF6FF73614501D9994202D170880628CE
:10D7500001D21046ECE7604501D99842F9D19942CF
:10D7600003D0984201D08142F3D80520E8552088A3
:10D770001221401C80B2208029542088401C80B295
:10D7800020804119308802F0C5FA2188084480B20F
:10D7900020804119708802F0BDFA21880844208059
:10D7A0000020C5E7FEF79EBAF8B5134800F05CFF0D
:10D7B000114D0026114C0C3D30B16169B9B1012009
:10D7C0008DF80000684611E0287820B1616971B1D8
:10D7D0008DF80060F6E7687858B1A1680848002223
:10D7E0000068FEF711FB10B1A16901B188472E70E6
:10D7F000F8BD6168F2E70000741F0020902400204B
:10D8000024FF010070B5094B044608209E7A0025CC
:10D810000E4208D0A4F57F40FF3802D01889A042FC
:10D8200002D10020156070BD052070BDB02500201C
:10D8300000EB40020748012100EB820081724FF6A5
:10D84000FF710181FF21C17200210160818081711E
:10D8500070470000B025002010B5134C2079000758
:10D860001ED46069401C6061E06808B104200AE0D1
:10D8700000F008FF08B1022005E0206960B160688F
:10D88000C10704D00320BDE8104002F04BB840F0BF
:10D89000010060600020F6E7BDE81040FFF764BEBD
:10D8A000BDE8104002F034B8E01F00200649486887
:10D8B000020707D4820702D540F001004860022029
:10D8C00002F030B802F024B8E01F00202DE9F0414A
:10D8D00000260125144C22E06068226900EBC6078F
:10D8E000387805FA00F1114217D08A43226101F01D
:10D8F000DFF902463878E36805FA00F1194002FAC8
:10D9000000F3994209D17978012901D0012100E081
:10D91000002151407A6802B19047761CF6B2207817
:10D920008642D9D3BDE8F081042000202DE9FC41D6
:10D930000E46044681786A46254801F0D1FA00284F
:10D9400028D16078234F00EB400007EB8000807AFD
:10D95000400621D4022E1FD0012E1FD01E4DA078CC
:10D960001E49C0EBC00001EB800100231C22684669
:10D97000A847A8B1022E0DD02078164900EB400030
:10D980000C3101EB80001649807A51F820202146A5
:10D9900068469047BDE8FC81124DE0E7124DDEE796
:10D9A000022EF7D0607800EB400007EB8000817A10
:10D9B00021F040018172074960784039C0EBC00016
:10D9C00001EB80011C231A466846A847D4E70000F3
:10D9D000D81F0020B025002099F80100AC240020B9
:10D9E00028FF01004DF2010085F101002DE9F0470B
:10D9F00005250F4F9046894606460024C4EBC40017
:10DA000007EB800036B1072231461030FDF77BFD71
:10DA100018B106E0018B414503D10025C9F800404B
:10DA200002E0641C072CE9D32846BDE8F08700001B
:10DA3000AC2400207CB5054681B26A46074801F057
:10DA40004FFA040008D16021684601F06FFA040023
:10DA500002D1284601F0E2F920467CBDD81F002003
:10DA600038B50C46100001D0FEF73CF92078152897
:10DA70000BD169460648FEF7D0FD08B1FEF732F932
:10DA80009DF8000008B1FEF7F9FF002038BD000046
:10DA9000942200201FB58DF80C0001F0A5FA08B102
:10DAA000FEF720F903A800F063FA08B1FEF71AF9AF
:10DAB0000020CDF805008DF809009DF805006946A5
:10DAC00020F01E0040F001000C3020F020008DF806
:10DAD000050007208DF8060010208DF80700064885
:10DAE000009001208DF80400044800F057FB002846
:10DAF00001D0FEF7F7F81FBD61DA0100021F002018
:10DB00002DE9F04F054693B0FA48FF240E940078B3
:10DB10004FF0000A002858D0DFF8DC83D8F8000066
:10DB2000002852D001A800F017FA08B1FEF7DAF881
:10DB3000281D05902A20ADF818000027FF208DF839
:10DB400006008DF804700097EB4C28880C3CBB460F
:10DB500010280FD0A8886A460221FFF753FE48B963
:10DB6000009800EB400104EB8101C97A8DF80610A2
:10DB70008DF80500DFF880932888A9F14C0913215E
:10DB800009F11C02A2F1E006172875D010DC10285C
:10DB90001ED011285ED013286FD0142815D10098FC
:10DBA00000EB400004EB8000C07AFF287DD09AE0B3
:10DBB000D24B182877D01C2876D0522805D198F857
:10DBC0000A0053F8201001A8884713B0BDE8F08F71
:10DBD0004FF6FF766A4601213046FFF713FE002814
:10DBE000F3D10099022201EB410004EB8000827224
:10DBF00011228DF810208DF80510A9880181D5F823
:10DC00000610016069898180297B8171687DC10767
:10DC100008D0B849083101EB50000078FF2808D03F
:10DC20000E9006E032460EA9A81DFFF7DFFE002881
:10DC30000FD100990E9801EB410104EB8101C872EC
:10DC40008A7A42F008028A728DF8060001A8FEF76F
:10DC500039FF6BE1009800EB400004EB8001887A0B
:10DC600020F002008872010708D500060FD50021B8
:10DC700001A8FFF75BFE0AE0B8E043E09DF806006C
:10DC8000FF2804D001F0CAF8FF208DF806000099A3
:10DC9000102001EB410104EB8101887212208DF804
:10DCA000100043E101E0F9E03EE1EA890EA900201D
:10DCB000FFF79CFE78B900990E9801EB410104EB47
:10DCC0008101C8728A7A42F008028A728DF80600D1
:10DCD00001A8FEF7F7FE009800EB400004EB80007F
:10DCE000C07AFF2804D00098C0EBC00109EB810A7C
:10DCF00000980023C0EBC00006EB8002A8885146C4
:10DD000082DF62E700988DF8101000EB400104EB11
:10DD100081018B7A43F004038B72CB7AFF2B32D0D4
:10DD2000162100EBC0008DF8101002EB80001A21C4
:10DD30000830FDF7D6FB009800EB400004EB8000B4
:10DD4000817A41F0400181720099CDF82CB001EB4D
:10DD5000410204EB820208ABD27ACDF828B0C2EBC4
:10DD6000C20206EB8202CDE90C2BC1EBC10209EB2A
:10DD70008201CDE9081BA88808F1040200217FDF99
:10DD80000028BED1D2E00DF1380C48F24302002049
:10DD9000C0EBC00306EB83039B7EFF2B04D0401C2B
:10DDA0000728F5D31746CFE70A78022A0CD0C0EB34
:10DDB000C00206EB8202FD2393760B6813618B8809
:10DDC00093828979917505E0C0EBC00106EB810172
:10DDD000FE228A768CF8000000990E9801EB410132
:10DDE00004EB81018DF80600C872ADE798F80910C0
:10DDF00021F0010188F80910DDF800C00CEB4C039C
:10DE000004EB8300817A21F00402827214218DF8E0
:10DE10001010A97921B1C07AFFF70CFEAF7985E027
:10DE2000E979490739D59DF80610FF297ED042F0DF
:10DE300008028272EA7A920707D5C1EBC10206EBAB
:10DE40008202957E25F001059576C27AFF2A6DD073
:10DE500014F82320022A0ED0C1EBC10106EB810188
:10DE600002680A6182888A8280798875887E20F0BB
:10DE7000020088760DE0CCEBCC0209EB8200428AEE
:10DE8000C1EBC10006EB80000283817E21F001011D
:10DE90008176012101A8FFF749FD47E0A87901211A
:10DEA000B1EB101F2CD100F00F00012828D10098F1
:10DEB00000EB400104EB8101897A090720D500EBD2
:10DEC000C00002EB80001A210830FDF70AFB162083
:10DED0008DF81000009800EB400004EB8000817A80
:10DEE00041F06001817298F8091041F0020188F850
:10DEF000091017E0C81F0020BC25002048FF0100C2
:10DF0000009800EB400004EB8000817A41F0800132
:10DF1000817215208DF8100098F80A0053F820102F
:10DF200001A88847002701E08DF810103A4604A99F
:10DF300001A8FDF7E1FE9DF8100012287FF4E1AE84
:10DF4000009800EB400104EB8101897A01293FF43C
:10DF5000D8AEFFF76DFC38E630B1FF21017041709B
:10DF60008170C1700020704748F20E0070470000B9
:10DF70002DE9FF4105003AD02B480024046044728B
:10DF800084722046FFF754FC274824213038FDF7DF
:10DF9000A8FA0026DFF89480FF27304600F03EFF05
:10DFA00008F80670761C072EF7D36020ADF8040041
:10DFB0000720ADF806001E481C490090083168464D
:10DFC00001F086F800280FD1184E0120083E30706D
:10DFD000287878B1BDF80400BDF80610484381B236
:10DFE00006F1100000F0A2FF04B0BDE8F08148F295
:10DFF0000E00F9E70F4F00250C48A9B202AA08301D
:10E0000000F06EFF48B9C5EBC50007EB80000023A8
:10E010001C2202A901F00EF808B13470E4E76D1C6F
:10E02000072DE9D3E0E70000BC250020D01F002029
:10E0300039E00100AC2400202DE9F0478046544827
:10E0400090B01E460068189F92468946002850D01E
:10E05000602F4ED86846FFF77FFF08B1FDF742FEFC
:10E0600000248DF800408DF80440CDE90576254662
:10E07000A9B20DAA474800F033FF28B908220DA91C
:10E080004046FDF740FAE8B16D1C072DF0D300BF04
:10E090009DF80200FF282CD0202540230DF1100808
:10E0A000B9F1030F11D03C4F4FF01C0CF11BB1FB29
:10E0B000FCF1012207292AD2CDF80880BAF1000F1D
:10E0C0001AD01FE08DF80250E2E7602F02D08DF8E1
:10E0D000043001E08DF804509DF8040040F0030086
:10E0E0008DF80400524601A96846CDF80880FDF776
:10E0F00003FE10B0BDE8F087264982401039496818
:10E100000A42F6D001F010FE8DF8045035E02049A7
:10E110004C39701AB0FBFCF048B101F11C00311A07
:10E120002425B1FBF5F1C9B18DF80430E1E71848B9
:10E130008DF804508DF801400C30CDE90A409DF86F
:10E140000200CDF80880C0EBC00007EB800008900B
:10E1500007A806901820079105900EE030218DF851
:10E1600004100B498DF801400C398DF80320897A91
:10E17000890702D42421FDF7B4F99DF80400B9F110
:10E18000020F02D040F00200AAE740F00100A7E72A
:10E19000BC250020D81F0020AC240020164A10B552
:10E1A00012785AB148F20E0258B151B10B6843B11E
:10E1B000124A14683CB148F2040010BD48F208004D
:10E1C00010BD104610BD0D4C1360103CD1F8053049
:10E1D00063614B7A23760979917223F0050141F04E
:10E1E00002011172D17921F0040141F00301D171D2
:10E1F00000210170084610BDC81F0020BC2500206A
:10E200000E4910B54A788C780023A24212D0521CD5
:10E21000D2B24A70022A00D14B70084A4B781832A9
:10E2200052F8232002600869104420F07F40086102
:10E23000012010BD0360002010BD00001820002048
:10E24000002808D0112801D0FDF772BD02484168AE
:10E2500041F0080141607047E01F002010B51F4CDD
:10E26000204621784068012910D002292DD00329A9
:10E2700032D1000725D46069401C606100F002FAC9
:10E28000D8B12078BDE8104001F0FCB9000718D4DF
:10E290001348A28B017801EB810100EB8100C1885A
:10E2A000891A0904090CC18003D0BDE8104001F0AF
:10E2B000F5BABDE81040FFF7BBB9BDE81040FFF765
:10E2C00053B9BDE8104000F099BB0648617850F89A
:10E2D0002100BDE81040004710BD0000E01F0020F5
:10E2E000E02500206CFF010028DFFFF7A9BF29DF30
:10E2F000FFF7A6BF0EB516A19DF8080020F00F008D
:10E30000401C20F0F00010308DF808000A2202A80E
:10E310007CDF08B1FDF7E6FC4FF4607078DF08B1F0
:10E32000FDF7E0FC00204FF4C87100900190ADF8BB
:10E330000400ADF800104A00ADF80220ADF8061058
:10E3400068467ADF002801D0FDF7CCFC0EBD000046
:10E350004E6F726469635F42505300000020704743
:10E3600000207047002070472DE9F0474178DFF822
:10E37000A890054601EBC10209EB8200002401EBE5
:10E38000410109F1240A4368274626460AEB810128
:10E3900063B191F80AC05FEA0C6807D55FEA4C6C7C
:10E3A00004D459F8226000F108049FB20889D046CD
:10E3B00033463A462146A9DF48F241090B281ED0D0
:10E3C00000B14846012E18D168784FF6FF7200EB75
:10E3D000400008EB80000C210089A7DF00280CD04A
:10E3E000A0F54051023915D0082813D0A0F54051AE
:10E3F00004390FD011280DD00020BDE8F0876878CF
:10E40000012300EB400008EB80003A4600892146DA
:10E41000A9DFD9E74846F0E78C25002070B50C4607
:10E42000014660780A4D00EBC00005EB8000382300
:10E43000242200F0FFFD002808D1617801EBC10122
:10E4400005EB81014A68521C00D14A6070BD000092
:10E450008C2500202DE9F04188B0804603271A2042
:10E46000ADF81C0048782A4E00EB400006EB800017
:10E470000D4600893B4607AA6946AADF28BB687893
:10E48000A6F1240400EBC00004EB8000BDF81C20C2
:10E4900069460830FDF737F80028687807D000EBA8
:10E4A000C00004EB8001496881B11A4E0FE000EB17
:10E4B000400106EB8101897A890724D400EBC00072
:10E4C00004EB80002421FDF70CF81CE0124E44F808
:10E4D00020706878BDF81C2000EBC00004EB8000C1
:10E4E00069464260687800EBC00004EB80000830A9
:10E4F000FCF7DEFF6878382300EBC00004EB8001F6
:10E5000024224046B04708B00020BDE8F08100005A
:10E51000B02500204DF2010085F10100FFF724BF76
:10E52000FFF77CBFFFF796BF2DE9F041124E07467B
:10E530000125BD403068FDF7A7FC00280DD10F4C28
:10E540002069284207D1384600F0B2FB0028E06875
:10E5500005D0284304E0A8432061BDE8F081A8432A
:10E56000E060206928432061A1683068BDE8F0417F
:10E570000022FDF749BC000080FF010004200020BC
:10E5800070B51B4C207900072DD41A48017801EB97
:10E59000810100EB81052E6900F021FDE9882A89BF
:10E5A000761E11443144B1FBF0F02169002549B1D8
:10E5B0006169814206D1E560606840F001006060F9
:10E5C000002008E000F05EF810B10220E56002E0F3
:10E5D000206920B10320BDE8704001F0A3B9BDE877
:10E5E0007040FEF7C1BFBDE8704001F091B9000076
:10E5F000E01F0020E0250020F8B51A4C2078002804
:10E600002ED0206928B10026E06820B1002526B16F
:10E6100010E00126F8E70125F9E7684652DF0528F2
:10E6200003D020B1FDF75EFB04E0012602E0216982
:10E630000098884785B96088ADF800006946A068F1
:10E6400061DF052803D020B1FDF74CFB04E0012574
:10E6500002E0D4E902018847002EDED0002DD6D09A
:10E66000F8BD000038200020054940880A88904203
:10E6700004D34988884201D80120704700207047A0
:10E680006C1F002070B50E48017801EB810100EB92
:10E690008104256900F0A3FCE18822896D1E1144E4
:10E6A0002944B1FBF0F1074842698A4205D301D100
:10E6B000006910B14FF0000070BD4FF0010070BD57
:10E6C000E0250020E01F0020800701D000207047D7
:10E6D0000120704730B51488E51C9D4201D90C20FB
:10E6E00030BD02250D5513881C245B1C9BB2138082
:10E6F000CC5413885B1C9BB21380012807D00228DE
:10E7000007D0032807D0042807D0072030BD0020F9
:10E7100004E0012002E0CD5401E00320C854108839
:10E72000401C1080002030BD0348017AC90702D088
:10E730000078FEF7DDBC7047241F00202DE9F0476C
:10E74000DFF8ACA0DAF80C009AF8004080469AF89E
:10E750000460DAF80890DAF810703AE009EBC405C2
:10E760002A7833E002EB42016B68521C03EBC101D3
:10E77000AB78D2B2934200D100220B78022B02D0A8
:10E78000032B23D11FE0D1F804C00346014603E068
:10E79000614503D00B46C969C1B1F9E7B1B18B42FC
:10E7A00005D1C06918B9134F0126BE600027D1F802
:10E7B00000C0C969D96149B10B6863440B6005E0C9
:10E7C0000174C06900E000210028F9D16978914204
:10E7D000C8D1641EE4B2C1D2CAE903078AF8046052
:10E7E000404502D00120BDE8F0870020FBE7000093
:10E7F00018200020001001402DE9F04705462F4861
:10E80000002680460778D0F80C904BE0D8F8080036
:10E8100000EBC70440E002D02846ED691EE02078F6
:10E82000616800EB4002401CC0B201EBC2012070E5
:10E83000A278904200D126700A784868012A2DD12A
:10E84000027C5ABB8A684260CA6882600A69C260F8
:10E850004969816198F8041001B146604268D8F8AE
:10E860001030DFF85CC0D11A21F07F41614502D23F
:10E870008268114406E0991A826821F07F418A4239
:10E8800002D9511A016000E00660466001218660ED
:10E890000174C66101F0CAF8002DBCD120786178FE
:10E8A0008842BCD17F1EFFB2B0D2D8F80C104945C7
:10E8B00002D00120BDE8F0870020FBE718200020EF
:10E8C000FFFF7F00002398B0444A05211846FDF75A
:10E8D00053FA08B1FDF706FA414A01214148FDF714
:10E8E00039FA08B1FDF7FEF93F4A40F6CD41032061
:10E8F000FEF7ACFB08B1FDF7F5F969460020FEF71D
:10E900007DFA08B1FDF7EEF99DF8000002285CD011
:10E910005FF00004FEF77CF82046FFF7BBF8FFF736
:10E92000E9FC382101A8FCF7DCFD02208DF8040089
:10E9300001248DF8064006208DF807002B4803259A
:10E940000690ADF8145024210FA8FCF7CAFD8DF8ED
:10E950004840282000241390B42000941490244BA5
:10E960000FAA214601A8FDF7B3FB08B1FDF7BAF9DC
:10E9700000F0BEFD00F0F8FC1C216846FCF7B1FD7C
:10E980004FF42030CDE900404FF470200290194838
:10E99000059019488DF80C500690ADF80E408DF892
:10E9A00010406846FDF7AEFE08B1FDF79BF90D4833
:10E9B00000224FF480310068FDF726FA08B1FDF718
:10E9C00091F90320FDF790FC02E00124A2E748DF63
:10E9D0000028FCD0FDF786F9F9E700006C20002044
:10E9E00029C00100E4FE0100A1CF0100181F002092
:10E9F000B1ED0100EDED0100A5D70100034841682C
:10EA000021F008014160007800F03CBEE01F0020CA
:10EA100070B5144682880E4605462088111D0144B3
:10EA2000921C994201D8FE2A01D90C2070BD521CBB
:10EA300032542088FF21401C80B22080315420882D
:10EA4000401C80B220808119288801F063F9218858
:10EA5000084480B22080AA8842B1A96841B13044FC
:10EA6000FCF726FD2088A98808442080002070BD7E
:10EA7000072070BDF8B50E460178144605460129F9
:10EA800001D1687830B12088821C9A422DD80129A2
:10EA900002D006E00720F8BD69780144891C99423C
:10EAA00023D8181A801E87B2ADF800702188B01CD8
:10EAB000084469467DDF0028EDD12878022805D179
:10EAC000BDF80010B94201D809210AE00821012847
:10EAD00005D16878B84202D8ADF8000001E0ADF881
:10EAE0000070BDF80000FE2801D90C20F8BD228876
:10EAF000401CB0542088401C80B2208031542088B3
:10EB0000401C2080BDF80010084420800020F8BD83
:10EB10000020704700207047002070474907090E09
:10EB2000002806DA00F00F0202F1E02282F8141D3C
:10EB300003E000F1E02282F8001400F01F0201213E
:10EB400091404009800000F1E020C0F88012C0F838
:10EB5000001170472DE9F0478846814600F07CF9A6
:10EB60000124224E0028484618D0FEF727FC3044E6
:10EB700090F848008009032802D0012806D007E059
:10EB80001B48006804FA09F4204201D1022100E088
:10EB900003214846BDE8F04700F0D9B800F068F915
:10EBA000002820D04846FEF709FC0546114F4FF4D7
:10EBB000807007EB850100EB8500D1F8102580B24D
:10EBC00042F00102C1F8102500F0D0F8B8F1000FB2
:10EBD00009D04846FEF7F2FB56F82000002802D084
:10EBE000AC40C7F80443BDE8F0870000B826002019
:10EBF00010050050006000402DE9FC41DFF8A480C2
:10EC0000044608EB0400002790F930001346C017B3
:10EC10000E46401C01D0082740E0F27819462046F5
:10EC2000FEF7A8FB0546401C37D0B07848B1A000DD
:10EC300000F1A040D0F8001721F00201C0F8001741
:10EC400007E000217378204600910A46019100F008
:10EC50006DF8F078C0B11448317800EB8500D0F839
:10EC60001025124B1A40C0F810254FF4F8524FF4FB
:10EC7000403302EA042203EA01410A43D0F81015A6
:10EC80000A43C0F8102509E008EB0500327810F8B7
:10EC9000481F41EA8211017000E004273846BDE8B0
:10ECA000FC810000B826002000600040FFE0FCFF6F
:10ECB00003490968C14011F0010000D001207047EC
:10ECC0001005005070B5124D95F8540008B1082099
:10ECD00070BD0020411E2A18401CC0B282F83010BE
:10ECE0002028F8D300242046FEF736FB641CE4B24B
:10ECF0000C2CF8D303210620FFF710FF05494FF035
:10ED00000040C1F80403012085F85400002070BDC4
:10ED1000B826002000600040034890F85400002806
:10ED200000D0012070470000B826002030B541EA2D
:10ED30004201DDE9034541EA8301800041EA042103
:10ED400000F1A04041EA0541C0F8001730BD800045
:10ED500000F5E06000F1A040026822F44032026059
:10ED6000026842EA0141016070470000034908B5AA
:10ED70000844002101600068009008BD0060004068
:10ED800002494058012800D0002070470060004030
:10ED90004058002800D001207047D0F804030840F4
:10EDA00000D0012070474058002800D00120704753
:10EDB00010B550B103280CD10220FEF73BF9002812
:10EDC00007D0BDE81040FCF78DBFBDE8104000F053
:10EDD00045BC10BD087828B1022802D102490020A4
:10EDE00008707047FDF74ABE001F00200078002819
:10EDF00007D104483B21808876DF002801D0FCF74A
:10EE000071BF7047001F00200021425C0AB1012041
:10EE10007047491C0629F8D30020704770B5054695
:10EE2000C0EBC5010B4800EB81040020C4F81100C1
:10EE3000A4F8150020461021FCF753FBFF20207496
:10EE4000A0764FF6FF7020832846BDE8704000F0A2
:10EE50006BBF0000AC2400200449084490F9300046
:10EE6000082801DB0120704700207047B8260020E9
:10EE70000449084490F93000082801D20120704765
:10EE800000207047B826002070B50D00044602D15E
:10EE90000020FCF727FF14B90020FCF723FF287897
:10EEA000207069886170090AA170A988E170090A57
:10EEB0002171E8886071000AA07170BD0649097966
:10EEC000490701D40820704720B1044949780160FE
:10EED000002070470E207047E01F0020E025002032
:10EEE00030B5104B1B795B0701D4082030BD18B139
:10EEF00012B104687CB901E00E2030BD0A4B1D68D8
:10EF00004DB140681D8901FB050059685B8903FB11
:10EF10000511814201D8072030BDC2E90040002020
:10EF200030BD0000E01F0020AC260020F8B50546EB
:10EF300021480E460079400701D40820F8BD15B1DC
:10EF4000286870BB01E00E20F8BD1C4C002720682B
:10EF500038B361892289606801FB020168688142D7
:10EF60001FD9FFF7B1FB70B1D5E9000200EB4000FB
:10EF700004EB800043680189D41AB4FBF1FC01FB67
:10EF80001C4474B901E01020F8BDB6FBF1F401FB9C
:10EF9000146434B92EB14089324400FB01308242FE
:10EFA00001D90720F8BD33460022294603200097E7
:10EFB000FEF714FBF8BD0000E01F0020AC26002087
:10EFC00010B54FF010204469601C04D000F007F821
:10EFD000B4FBF0F010BD4FF08050406910BD4FF011
:10EFE0008050006980B2704770B5104800242546F3
:10EFF000047044702846FEF7E1FA6D1C0A2DF9D31F
:10F000000B4D6C80FFF7DCFF861EFFF7E8FF4643E1
:10F010000648AE60CC306C610460048144812C7081
:10F02000AC610420EC616860002070BDE025002028
:10F03000E01F00202DE9F843804623481F4616466E
:10F0400000790D46400702D40820BDE8F8832DB1B1
:10F05000B8F1000F02D0286898B901E00E20F4E75B
:10F060001A4C206868B162892089616802FB00112E
:10F070006A68914205D926B1B04202D3F1198142A2
:10F0800001D90720E1E74046FFF71EFBD0B1384623
:10F09000FFF71AFBB0B16868FFF716FB90B168681C
:10F0A0003246C1194046FCF703FA00962868002250
:10F0B00000EB4000434654F8204002212846A04778
:10F0C0000020C2E71020C0E7E01F0020AC2600208F
:10F0D0002DE9F041294D04460E462879400702D417
:10F0E0000820BDE8F081ECB1E6B12068D0B1FFF7AF
:10F0F00076FF0146A088814212D3102810D3E08801
:10F1000070B1FFF75DFF471EFFF769FF4743E288D5
:10F11000A188A86802FB0102974201D3890703D0A6
:10F120000720DEE70E20DCE76988012924D0C6E944
:10F130000010134A01EB410302EB83014860206891
:10F1400042F82300A0880881E0884881FFF747FF44
:10F15000A188E288401E01FB0204FFF740FF94FBF8
:10F16000F0F4FFF73CFFA96804FB0010A860688872
:10F17000401C68800020B4E70420B2E7E01F0020B4
:10F18000AC260020F8B504461C481E4615460079FA
:10F190000F46400701D40820F8BD1FB114B1206804
:10F1A00098B901E00E20F8BD1548016869B142899F
:10F1B0004168008902FB00116268914205D925B1BE
:10F1C000A84202D3A919814201D90720F8BD3846C7
:10F1D000FFF77AFA78B13046FFF776FA58B16068EF
:10F1E000FFF772FA38B12B463A46214601200096C5
:10F1F000FEF7F4F9F8BD1020F8BD0000E01F002074
:10F20000AC26002010490246087800281AD00428AD
:10F2100018D0022A14D0032A14D10A7912070FD465
:10F220008A69521C8A61B2F57A7F06D0022801D021
:10F2300000F028BA487800F075BB0D20FCF778BDC7
:10F24000FFF70CB870470000E01F0020F8B5044637
:10F250001C481E46154600790F46400701D4082079
:10F26000F8BD1FB114B1206898B901E00E20F8BDB7
:10F270001548016869B142894168008902FB0011A3
:10F280006268914205D925B1A84202D3A9198142E9
:10F2900001D90720F8BD3846FFF716FA78B1304695
:10F2A000FFF712FA58B16068FFF70EFA38B12B4633
:10F2B0003A46214604200096FEF790F9F8BD10204A
:10F2C000F8BD0000E01F0020AC26002070B501262C
:10F2D00070044FF0E0210025C1F88001084C401077
:10F2E000C4F84803C4F8080366602F20FCF792F8BE
:10F2F000A660044C2F202561FCF78CF8E57070BDEA
:10F30000001001401820002009480A490022C37D4E
:10F31000C1F8082143B1D1F81815437EC268D15411
:10F32000417E491C41767047D1F8180570470000AE
:10F3300010270020002000401FB501228DF8080092
:10F3400004488DF800200191D0E9001268469047EA
:10F350001FBD00001027002008B5024900200091C1
:10F3600008BD0000001F002070B52348512464250B
:10F3700001210460C0E90151017301461F4800F0FA
:10F380005BF81D48752140384C22418000210170F6
:10F39000C28001716722428101723C22C2810173E5
:10F3A000792242820174C48201756A224283017605
:10F3B0004822C28301778A22428480F82010582292
:10F3C000C28480F824107822428580F828106922AF
:10F3D000C28580F82C109122428680F83010C586B4
:10F3E00080F834108322428780F838107D22C2874B
:10F3F00080F83C1070BD0000F0220020101F00209B
:10F4000010B503680A6889689C1A8C4202D9591A97
:10F41000016010BD01210260017110BD10B54B6883
:10F42000026889689C1A8C4202D91144016010BD9F
:10F4300000210360017110BD0A7B1AB149680160A7
:10F44000002102E00968016001210171704710B5D7
:10F45000044600790028204602D0FFF7DFFF01E0D4
:10F46000FFF7CEFF206810BD2DE9F0410746806A06
:10F4700014468846C8B3002531E000BFB96A05EBE1
:10F48000450001EB8006B088801CFE2802D90C20C4
:10F49000BDE8F0812288401C08F80200208816226E
:10F4A000401C80B2208008F800202088401C80B2D8
:10F4B000208000EB0801308800F02CFC21880844F3
:10F4C00080B22080B28842B1B16871B14044FBF78C
:10F4D000EFFF2088B188084420806D1CEDB297F8BA
:10F4E0002C00A842CAD80020D2E7FFE70720CFE7C8
:10F4F00010B59CB000244C48009002941120019457
:10F50000ADF80A009DF80400694620F00F00401C89
:10F5100020F0F00020308DF804009DF8050020F068
:10F52000FF008DF805009DF8060020F0FF008DF823
:10F5300006009DF8070020F00F00401C20F0F000AE
:10F5400010308DF807009DF8080020F0FF008DF8BE
:10F5500008003648FDF73FF808B1FCF7C3FB14215B
:10F5600003A8FBF7BEFF9DF81900039420F00F00DD
:10F57000401C20F0F00010308DF819009DF81A00A2
:10F58000059420F00F00401C20F0F00010308DF8A2
:10F590001A009DF81B0003A920F0FF008DF81B0046
:10F5A0009DF81C0020F00F00401C20F0F0001030EF
:10F5B0008DF81C0001208DF8100064208DF81800D3
:10F5C0001A481838FCF7B9FF08B1FCF78BFB40214B
:10F5D00008A8FBF786FF16A108A8FDF709FA19A1EC
:10F5E0000AA8FDF705FA1B481121CDE918011A48B0
:10F5F0001A9018A814909DF85C0020F00F00401C91
:10F6000020F0F00010308DF85C009DF85D0020F0D7
:10F61000FF008DF85D0008A8FDF716F9002801D05D
:10F62000FCF760FB1CB010BDD5ED0100942200205A
:10F630004E6F7264696353656D69636F6E64756361
:10F64000746F72004E532D4250532D4558414D500A
:10F650004C450000554433228877660010B50020E1
:10F66000FDF7E8FC08B1FCF73DFBFDF725FC08B110
:10F67000FCF738FB3CDF002803D0BDE81040FCF766
:10F6800031BB10BD0C49087040B101280FD00228D1
:10F690000FD003280FD14869FEF726BE00208861ED
:10F6A000C86106484078002805D0FDF76DBF00F01E
:10F6B000F5B800F051B87047E01F0020E0250020A9
:10F6C00018B10349C860002070470E207047000041
:10F6D000382000201CB5034901910091694660DF84
:10F6E0001CBD0000001F002070B50E4605461446E4
:10F6F00014211046FBF7F5FE012020800021216136
:10F7000021732672657205B1A072002070BDFCF7EE
:10F71000D7BA000070B509B18C0701D0072070BDC1
:10F72000064C0125A16062800549636010DF002856
:10F73000F5D1257016202EDF70BD00003820002086
:10F740000FF7010018B103490861002070470E202F
:10F7500070470000382000202DE9F041164C606809
:10F7600020F0010060601548017801EB810100EB99
:10F7700081063569FFF733FCB5FBF0F76761FFF7EA
:10F780002EFCF1886D1E2944B1FBF0F087426068C1
:10F7900002D140F0020001E020F002006060207918
:10F7A000E16800F00200084304D00020BDE8F04109
:10F7B00000F0B8B80220F9E7E01F0020E0250020A3
:10F7C00001484069FEF790BDE01F002010B5FFF72B
:10F7D000F7FB441EFFF703FC4443FFF700FC054919
:10F7E0004A69521E5043CA682146BDE81040FEF7E0
:10F7F0007EBD0000E01F00202DE9F0411048017897
:10F8000001EB810100EB81042569FFF7E8FBE1884A
:10F81000228911442944B1FBF0F200FB1216FFF7D4
:10F82000CFFB471EFFF7DBFB07FB0061E088228967
:10F830001044044A28441269BDE8F041FEF757BD60
:10F84000E0250020E01F002010B5FFF7B9FB441EA3
:10F85000FFF7C5FB4443FFF7C2FBB4FBF0F0BDE884
:10F860001040FEF741BD000070B5FFF7B8FB8608F9
:10F87000FFF7B5FB0749496900FB01F4FFF7A0FB5F
:10F88000451EFFF7ACFB684332462146BDE8704099
:10F89000FEF72DBDE01F00200020704770B5144812
:10F8A000017801EB810100EB8104241DFFF797FB38
:10F8B0006188104E884211D2FFF791FB61880D1AC2
:10F8C000FFF78DFB8208A188E0680844216928447D
:10F8D0002944FEF70CFDFFF782FB07E0A288E068F1
:10F8E00010448A082169FEF702FD6088F06170BD4E
:10F8F000E0250020E01F002004480079000702D422
:10F90000012000F00FB800F003B80000E01F002055
:10F910000348416821F008014160407800F002B8D6
:10F92000E01F002002494870024951F820000047BA
:10F93000E01F002058FF010010B50446FFF762FCED
:10F940002046BDE81040FCF791BC70B50C000546A0
:10F9500002D10020FCF7C6F915B90020FCF7C2F966
:10F96000207828702088000A68702068000CA87031
:10F970002068000EE87020792871207A687120894B
:10F98000000AA871A068000CE87170BD03480079F6
:10F99000000701D4FDF7E8BDFFF7BABFE01F002064
:10F9A0002DE9F84F204C00256846D4E903B6FEF750
:10F9B00027FC8046FEF7C2FE0746A946B8F1000FB5
:10F9C00025D00023009ACC46E06819E0076801467C
:10F9D000974202D9BA1A026014E0C1F800C0D1F807
:10F9E0000C80D21BC8693B448A46B8F1000F07D08F
:10F9F000F71827F07F47C1E90178CAF81C500D4677
:10FA00000028E3D1E0602846FEF7F6FE04E0284631
:10FA1000FEF7F2FE00B917B15846FDF729FE84F84B
:10FA20000490BDE8F88F0000182000200D4B10B5A1
:10FA3000D96831B102680C68A24204D8A21A0A60DF
:10FA4000C161D86010BD0B4603E00B46C969121BAB
:10FA500021B10C689442F8D3A41A0C600260C16111
:10FA6000D86110BD182000202DE9F0411D4DEC6833
:10FA7000002C35D01C48002700682969B846401A78
:10FA800020F07F462068B04215D82246361A074437
:10FA9000E469107C68B182F810806B6933B1D2E9F7
:10FAA0000501984728B1FCF71DF902E0D2E90510DD
:10FAB0008847002CE6D16978A878814206D1401C9D
:10FAC000C0B2A870022801D185F802800548A97843
:10FAD000183040F82170BDE8F0411420FBF7E8BD74
:10FAE000BDE8F0811820002004150140064A0020DE
:10FAF000C2F81C010548838A8168C95C838A5B1C43
:10FB00008382C2F81C157047002000401027002097
:10FB10001FB500218DF8080005488DF80010826897
:10FB200001928175D0E90012684690471FBD000020
:10FB3000102700202DE9FF413E4D4FF4007128466B
:10FB4000FFF72BF901273C4C4FF40178002600B356
:10FB50004FF492712846FFF71BF9D0B1C5F8246124
:10FB6000C5F80883A07E00B96F6002208DF8000000
:10FB7000D5F88004C5F880040390E07D8DF8080076
:10FB8000E0680190E6752676D4E900126846904751
:10FB900024E004212846FFF700F9F8B14FF48471FE
:10FBA0002846FFF7F5F8C8B1FFF7AEFBE07D617EB0
:10FBB000884213D1227E3AB1607EE168E275226903
:10FBC000E2602676667607E0A07E00B96F60C5F831
:10FBD0000883E675607EE168FFF7AEFB4FF48E7137
:10FBE0002846FFF7D5F858B1A18AA07D814202D2FC
:10FBF000FFF77CFF04E0C5F81C6108B1FFF788FF40
:10FC00004FF4A2712846FFF7C3F800280FD0C5F8BB
:10FC10004461A07E00B12F60E07D002807D0E6752A
:10FC2000607EE16804B0BDE8F041FFF785BBBDE848
:10FC3000FF81000000200040102700207FB5334CDA
:10FC40004FF492712046FFF7AEF8314D0026B0B167
:10FC5000C4F8246102208DF80000D4F88004C4F8B0
:10FC600080040390D4F83C058DF80800E868019002
:10FC7000EE752E76D5E90012684690471FE04FF4E6
:10FC800088712046FFF78FF8C8B1C4F81061D4F826
:10FC90003C05E97DC0B2814211D12A7E5AB1E968A2
:10FCA000D4F8003223F02003C4F80032EA752A6940
:10FCB000EA602E7601E0EE75E968FFF73DFB4FF450
:10FCC000A2712046FFF76FF850B1C4F84461E87D97
:10FCD00030B1EE75D4F83C05E968C0B2FFF72CFBF3
:10FCE0004FF490712046FFF75EF800280CD0C4F85E
:10FCF0002061A87D002807D0D4F84C0504B0C0B21C
:10FD0000BDE87040FFF704BF7FBD00000020004049
:10FD1000102700200870000A487002207047087001
:10FD2000000A487002207047012181400248426861
:10FD30008A43426070470000C81F002038B515494B
:10FD40004888A0F57F42FF3A23D04A78124C521CD3
:10FD5000D2B24A70237B93420AD3091D75DF002873
:10FD600017D0A169002914D001B0BDE83040084780
:10FD700000254D70217C29B13B2176DF10B1A169AE
:10FD800001B188476169002903D08DF800506846A9
:10FD9000884738BD681F0020902400200F48006865
:10FDA000C005C00D13D0103840B2002806DA00F0AC
:10FDB0000F0000F1E02090F8140D03E000F1E020C6
:10FDC00090F800044009012803D0032803D0022042
:10FDD00070470020704701207047000004ED00E0EC
:10FDE00042788378521CD2B2934200D10022037829
:10FDF000934201D1002070470A704168407800EBBF
:10FE0000400001EBC00070472DE9FC411646DDE9DA
:10FE10000854CDE900541F468046022200F00CF839
:10FE2000002807D1CDE900543B4610223146404618
:10FE300000F002F8BDE8FC812DE9FC5F0026DDE959
:10FE40000C4B994692468E4680462788354630E0D0
:10FE5000D8F80400002200EB850069460068019094
:10FE600001A865DF002830D19DF8000050451FD162
:10FE70000EB1002100E002212288084411185945E2
:10FE800022D846B9521C90B2208009F800E02088A0
:10FE9000401C20800126218801A801EB0902694647
:10FEA00065DF002811D120889DF8001008442080CB
:10FEB0006D1CB8F80000A842CADC56B12088C01BEF
:10FEC000401E80B2FF2802D90C20BDE8FC9F09F833
:10FED00007000020F9E7017911B9007B002800D064
:10FEE000012070474C200020002300202023002008
:10FEF0004C2300200D0000000E0000000F00000049
:10FF0000100000000D000300CDCE01000E00030024
:10FF1000CDCE01000F000300CDCE01001000030084
:10FF2000CDCE01007024002019EB010055E4010042
:10FF300065E3010025E5010015EB01001DE401006A
:10FF400061E3010021E5010011EB010069E301001B
:10FF50005DE301001DE5010049F8010069F80100B9
:10FF6000C1F70100F9F70100CDF70100F9F8010030
:10FF7000ADD8010059D801008DF9010081E50100DB
:10FF80003027002003000000A8FF0100001F002010
:10FF90004C01000044B50100C8FF01004C200020C6
:10FFA00004270000C4B9010051CAFFFFDC070C059B
:10FFB0000B05030C23101801000F1801000A18018B
:08FFC0009490D00303FBFFFF46
:040000050001B40141
:00000001FF
