:020000040001F9
:10B00000104300208DB4010095B4010097B40100F5
:10B0100099B401009BB401009DB401000000000040
:10B020000000000000000000000000009FB40100CC
:10B03000A1B4010000000000A3B40100A5B4010008
:10B04000A7B40100A7B401003DB90100A7B40100F5
:10B05000A7B40100A7B401001DB50100A7B4010009
:10B06000A7B40100A7B40100A7B40100A7B4010070
:10B07000A7B40100A7B40100A7B40100A7B4010060
:10B08000A7B4010085B60100A7B40100A7B4010070
:10B09000A9B60100A7B40100ADB60100A7B4010034
:10B0A000A7B40100A7B40100A7B40100A7B4010030
:10B0B000A7B40100A7B401000000000000000000D8
:10B0C000A7B40100A7B40100A7B40100A7B4010010
:10B0D000A7B40100A7B40100A7B40100000000005C
:10B0E0000000000000000000000000000000000060
:10B0F0000000000000000000000000000000000050
:10B10000000000000000000000000000000000003F
:10B11000000000000000000000000000000000002F
:10B40000DFF80CD000F078F80048004781C901004F
:10B4100010430020401E00BF00BF00BF00BF00BFA0
:10B4200000BF00BF00BF00BF00BF00BF00BF00BF24
:10B4300000BF00BF00BF00BF00BF00BF00BF00BF14
:10B4400000BF00BF00BF00BF00BF00BF00BF00BF04
:10B4500000BF00BF00BF00BF00BF00BF00BF00BFF4
:10B4600000BF00BF00BF00BF00BF00BF00BF00BFE4
:10B4700000BF00BF00BF00BF00BF00BF00BF00BFD4
:10B4800000BF00BF00BFC5D170470000064880471D
:10B4900006480047FEE7FEE7FEE7FEE7FEE7FEE7B9
:10B4A000FEE7FEE7FEE7FEE7D1B6010001B40100CA
:10B4B00040EA01039B0703D009E008C9121F08C036
:10B4C000042AFAD203E011F8013B00F8013B521EB6
:10B4D000F9D27047D2B201E000F8012B491EFBD22D
:10B4E00070470022F6E710B513460A46044619468F
:10B4F000FFF7F0FF204610BD064C074D06E0E06860
:10B5000040F0010394E8070098471034AC42F6D3AA
:10B51000FFF77AFFB4D60100D4D601002DE9F04739
:10B520000025DFF8F090A8464FF4807601242F46DE
:10B53000304601F0C3FC38B1D9F80403204203D0EF
:10B54000304601F0B1FC2543361D64007F1CB6B2C5
:10B55000082FEDD34FF4BE74204601F0AFFC38B194
:10B56000204601F0A1FC2C4845F00045D0F80080B1
:10B570002A4E15F0FF0F14D0012700242F420CD0C3
:10B5800009EB8401D1F81005D1F81015C0F304209F
:10B5900056F82420C1F3014190477F00641C082C19
:10B5A000ECD3002D32DA0024B14609EB04004E46FC
:10B5B00090F95010491C26D090F8507027F0C00523
:10B5C000284600F0E3FE56F82060E6B1BF090120EE
:10B5D000A840A90001F1A041D1F8001710EA080F16
:10B5E000C1F3014102D0022902D00CE003290AD1A3
:10B5F000032F05D102290BD00221284601F045FC7A
:10B6000039462846B047641C042CCED3BDE8F087E9
:10B610000321F2E700600040100500507422002072
:10B6200000F01F02012191404009800000F1E0205C
:10B63000C0F88012704700F01F02012191404009BC
:10B64000800000F1E020C0F80011704700F01F02F8
:10B65000012191404009800000F1E020C0F8001273
:10B6600070474907090E002806DA00F00F0000F1C4
:10B67000E02080F8141D704700F1E02080F80014ED
:10B680007047000007480021C0F84011C0F844117D
:10B69000C0F84811C0F84C11C0F80011C0F80411EE
:10B6A00001F0E0BD0010014001F078BD074810B581
:10B6B000406830B18047002807D0BDE8104000F056
:10B6C000C3BABDE8104001F02BB810BD601F0020C8
:10B6D00070B58D480023021D0178101D0124062934
:10B6E00007D115782D0704D10578C5F30315032D6F
:10B6F00002D0062904D00FE0854E844D75670EE018
:10B7000015782D0708D10578C5F30315032D06D04C
:10B71000042D04D0052D02D0062909D010E04FF0E9
:10B720008055D5F844527B4EC5F34235356002E072
:10B7300015782D0704D10578C5F30315032D02D024
:10B74000062906D011E0744D2E6826F080762E6012
:10B750000EE015782D0708D10578C5F30315032DE4
:10B7600006D0042D04D0052D02D006290AD011E000
:10B770004FF08045C5F80C31C5F81031654D2D1FCF
:10B780002B6002E015782D0704D10578C5F3031569
:10B79000032D02D0062905D00CE05E4A0321643255
:10B7A00011600AE015782D0704D10578C5F303155B
:10B7B000032D02D006290DD06AE0584A05211160F8
:10B7C000564978310C60554908310B603F21121DF4
:10B7D000116002E0117809075AD10078C0F3031014
:10B7E000052855D14E4800684E4908604C48001D58
:10B7F0000068091D08604A4808300068091D086093
:10B8000047480C300068091D086045481030006842
:10B81000091D0860424814300068091D086040484E
:10B82000183000683F49203108603D481C300068EE
:10B83000091D08603A4820300068091D0860384832
:10B8400024300068091D0860354828300068091D4B
:10B85000086033482C300068091D086030483030DB
:10B8600000683049403108602D4834300068091DB7
:10B8700008602B4838300068091D086028483C30B3
:10B880000068091D0860264840300068091D0860EE
:10B8900021487438016841F470010160BFF34F8F93
:10B8A000BFF36F8F4FF01021D1F80002002803DBA7
:10B8B000D1F80402002822DA1B4A14601B480468ED
:10B8C000002CFCD01524C1F800420568002DFCD0E6
:10B8D000C1F8044201680029FCD013600168002906
:10B8E000FCD0BFF34F8F0C48F0380168104A01F4C8
:10B8F000E06111430160BFF34F8F00BFFDE70E49C8
:10B900000C48086070BD0000E00F00F00DF0ADBA0B
:10B9100000C007403C050040FCED00E01056004030
:10B920000404001020C5004004E5014000E401408B
:10B930000400FA050090D003281F00200348007F70
:10B9400008B101F079BD01F0F3BC0000CC22002069
:10B9500002E008C8121F08C1002AFAD170477047D8
:10B96000002001E001C1121F002AFBD170472DE920
:10B97000FC5F0025168807461580406B14468946F3
:10B98000A8464FF00C0A11234FF0020B98B1017832
:10B990004846032E48D380F800B02288521C92B249
:10B9A000228083542288521C92B2228009F802100D
:10B9B0002088401C20803A6BDAB12088494600F18B
:10B9C0001205B54230D80B5420881023401C80B299
:10B9D00020800B542088401C20800F202388155C79
:10B9E000401ECD54238840B25B1C23800028F5DA2A
:10B9F000454697F82E0030B133462246494600F0BE
:10BA0000C7FE050011D197F82D0030B1324621460E
:10BA1000484600F02DFA050007D1B87820B32088F9
:10BA2000C846001DB04202D95046BDE8FC9F68469A
:10BA300079DF0028F9D12188032008F80100208847
:10BA40001921401C80B2208008F800102088401C7A
:10BA500080B2208000EB0801BDF8000001F058FD25
:10BA60000146208808442080F878B8B1228897F9E8
:10BA70000310D31C4846B342D6D800F802B022883F
:10BA80000123521C92B2228083542288521C92B20B
:10BA9000228009F802102088401C20807868B8B104
:10BAA000218890F90020CB1C4846B342BCD800F84E
:10BAB00001B021880A23491C89B22180435421887E
:10BAC000491C89B2218009F801202088401C20806F
:10BAD000388950B1CDE900464B460622022107F1D4
:10BAE000080001F051FD05009FD1388A50B1CDE921
:10BAF00000464B460722032107F1100001F044FDE8
:10BB0000050092D1388B50B1CDE900464B46152245
:10BB1000142107F1180001F037FD050085D1386ABE
:10BB200030B133462246494600F038FD0500DBD1EE
:10BB3000786A30B133462246494600F0F5FF0500E9
:10BB4000D2D197F82C0038B13346224649463846C0
:10BB500001F092FA0500C7D1387838B13346224651
:10BB60004946384601F012F80500BDD128465CE789
:10BB7000064800684FF40021044A8143121D1160F9
:10BB8000111D00F4002008607047000004050050FB
:10BB900070B50024064D06E06868012110F83400F5
:10BBA00001F076F8641C28788442F5D3002070BD3B
:10BBB0002C1F0020F8B515460C460646052A01D272
:10BBC0000720F8BD01F046F918B901F019F900286D
:10BBD000F7D1104900204E600C70C1E902500E4DA3
:10BBE00008610DE006EBC4006968009181788DF86A
:10BBF00001100078094A694601F09CF80028E0D15C
:10BC0000641EE4B2EED2BDE8F840054A00210248C5
:10BC100000F024B82C1F0020ACD60100C9C60100DA
:10BC200029C60100BFF34F8F05480168054A01F49A
:10BC3000E06111430160BFF34F8F00BFFDE70000DB
:10BC40000CED00E00400FA050EB500210091CDE9ED
:10BC500001106A4644F20100FFF7E4FF074B9B68BE
:10BC600023B12AB120B10068037C1BB108207047C2
:10BC7000072070474174426100207047401F002038
:10BC80002DE9F0478046994614460F4690074FF03D
:10BC9000000634D11C4D8CB301F0A0F90320C5F887
:10BCA0001490287004F11800002107EB4703AC60E2
:10BCB00004EBC102491C167056709770506000EB7F
:10BCC000C3000329F4DBEE606E70AE701420FFF742
:10BCD000A7FC03211420FFF7C4FC1420FFF7ABFCE2
:10BCE0000A49C1F8008003211120FFF7BAFC074878
:10BCF000001F006828610020BDE8F08701E00720F0
:10BD0000FAE7AE60FBE70000401F00200815014085
:10BD10002DE9F843DFF870900D461746D9F8081062
:10BD2000044651B34CB3052D02D20720BDE8F88379
:10BD3000606910B3607C012821D0002601F0EEFB81
:10BD4000D9F80810804601EBC800694601F008FCEC
:10BD5000B8B1012100F8041B0C4910C0096880E843
:10BD6000E200D9F8081001EBC8009DF800104170FE
:10BD70001420FFF76BFC0020D8E70820D6E72E46FA
:10BD8000DCE70420D2E70000401F0020041501403A
:10BD9000F8B5124E0446B168E1B1DCB16069C8B1D2
:10BDA0000027277401F0BAFB0546B068694600EB2E
:10BDB000C50001F0D5FB78B1022101704460B06884
:10BDC0009DF8001000EBC50041701420FFF73EFC09
:10BDD0003846F8BD0820F8BD0420F8BD401F0020FB
:10BDE00010B5084C6068FFF7D3FF08B1FFF72CFFD0
:10BDF0002068FFF7CDFF002803D0BDE81040FFF713
:10BE000023BF10BD58D60100F0B50C4693B01F21DA
:10BE10000726ADF80010ADF80410002750B1C17826
:10BE200049070DD56A4602A9FFF7A1FD002808D1F0
:10BE300002AD02E00025ADF800706CB1E07810B101
:10BE4000304613B0F0BD01AA0AA92046FFF78FFDC6
:10BE50000028F6D10AAA02E00022ADF80470BDF86D
:10BE60000400C3B2BDF80000C1B2284672DFE8E7A3
:10BE70007CB5054608880C460930904201D90C2053
:10BE80007CBD684671DF0028FAD1218808206854FB
:10BE900020881B21401C80B2208029542088401C0F
:10BEA00080B220802844DDF801100160BDF8051043
:10BEB00081802088801D80B220809DF8001001B113
:10BEC000012129542088401C208000207CBD01F0E5
:10BED0000DB8000000B585B00023482214490820A1
:10BEE00001F038F908B1FFF7AFFE6A4601210020E2
:10BEF00001F01AF908B1FFF7A7FE0E4801F0B4F8F7
:10BF000008B1FFF7A1FE684601F004F908B1FFF798
:10BF10009BFE094801F0F4F808B1FFF795FE0748C9
:10BF200001F030F9002801D0FFF78EFE05B000BD0A
:10BF30007C210020001E0020CFBE010099D101000D
:10BF40002DE9F04707460024244802E0641C042C35
:10BF500041D250F82420BA42F8D1042C3BD21F48D9
:10BF6000DFF87C901F4E0C38A9F1140841B3012969
:10BF70000FD002292FD104EB440030444578002D26
:10BF800029D0D8F81010002925D02846BDE8F04760
:10BF9000084704EB4401755C0E44717861B1D8F830
:10BFA00004100F4A01EB81014900133A8068FFF742
:10BFB000AFFE08B988F80170B17809F80410DEE71F
:10BFC0008068FFF7E5FE04EB4401314419F80400F2
:10BFD0008D78A842D3D0BDE8F08700007CD6010060
:10BFE000241F00204822002004280CD2074A12688F
:10BFF000074B13F8203001209840904300D00120D7
:10C000000870002070470020FAE70000100500507B
:10C010007CD6010070B50023042810D20D4D00EB32
:10C020004004012A02D101290CD00022094E00EB64
:10C030004000304461B1012906D0022906D007230F
:10C04000184670BD0D30C2B22A55F9E74270F7E7C5
:10C050008270F5E74822002070B50E46214905465A
:10C0600000200A61C1E90165A9071BD5002401224E
:10C0700011462046FFF7CEFF641C042C02D2002894
:10C08000F5D00FE070B9720804211748FFF792FD50
:10C0900040B9FFF77DFD28B91348144A0021143830
:10C0A000FFF7DCFDE9070AD0114A4FF4F0111160E7
:10C0B0000F4B00221B1D1A600D4A10321160002820
:10C0C0000FD109480B4A00211C38FFF7C7FD002893
:10C0D00007D1BDE8704004480121074A1838FFF72E
:10C0E000BDBD70BD101F00208CD6010021C3010012
:10C0F00008050050E5C7010071BB01002DE9F84FAC
:10C10000854EDFF810A24FF4E01CF16807462CEAD8
:10C11000010C0091002071680AF10404251D7F4B79
:10C120004FF400324FF4802B01EB810E8146182F23
:10C1300016D2DFE807F00C17173A4E607083868F2F
:10C14000868FEAA0A0A0A0A0CAD1D8E1EAEA009A0E
:10C150004FF4F01191432160C5F8009086F80090EB
:10C16000BDE8F88FC4F800C04846C5F80090DAF87A
:10C1700000C08CF4F01C5FEA8C3C09D5226028607A
:10C18000022F02D14FF4E16008E04FF47A6005E03D
:10C190002A602060022F3CD04FF4C8706422B0FBAC
:10C1A000F2F04143377000225EE0C4F800C0484618
:10C1B000C5F80090DAF800C08CF4F01C5FEA8C3C03
:10C1C00004D5226028604FF44870E7E72A602060B9
:10C1D0001FE0C4F800C04846C5F80090DAF800C077
:10C1E0008CF4F01C5FEA8C3C02D522602860CCE71E
:10C1F0002A602060D0E7C4F800C04846C5F8009027
:10C20000DAF800C08CF4F01C5FEA8C3CDED52260CA
:10C210002860C820C2E7C4F800C04846C5F80090AE
:10C22000DAF800C08CF4F01C5FEA8C3C02D5226086
:10C23000286001E02A602060377014E0C4F800C074
:10C240004DE0DAF800002BEA0002226000F48020C2
:10C25000286008E0DAF800002BEA0001216000F411
:10C2600080202860714600221868BDE8F84FFFF76B
:10C270004FBD21602EE098465868FFF789FDD7F141
:10C28000110100D040B1F16801F4F0112160C5F84E
:10C290000090C6F80C9063E74FF40022F260012989
:10C2A0000CD9C82011FB00F16420B1FBF0F17068DB
:10C2B00000224143D8F80400FFF72AFDF16801F499
:10C2C000F0112960C4F800904AE74FF4F0112160A2
:10C2D000C5F80090377043E74FF4E01121604946FC
:10C2E000C5F8009006E04FF4D01121604946C5F82A
:10C2F00000905A462A60BCE74FF4C01121604946BD
:10C30000C5F800904FF4C022F4E74FF4F011296013
:10C310004946AEE704050050101F002070D601000A
:10C3200000780221FFF70CBE05494FF0FF320828C4
:10C3300041F8202002D3084480F8482070470000CC
:10C3400074220020F0B54FF0FF3512B1002308260B
:10C3500001E008230C260C4C05E000BF54F82370C4
:10C360007F1C04D05B1CB342F8D32846F0BD2618CE
:10C370005DB286F8305044F82310002AF5D1E11858
:10C3800081F84800F1E700007422002002490844C7
:10C3900090F93000704700007422002030B58FB053
:10C3A0000024054607949DF81E001C2120F006007D
:10C3B000801C8DF81E009DF81C0020F00F00401C12
:10C3C00020F0F00010308DF81C009DF81D0020F0CA
:10C3D0000F00401C20F0F00010308DF81D00684662
:10C3E000FFF77FF89DF80000039440F012008DF8ED
:10C3F000000007A8CDE904408DF83A5041F22450DE
:10C40000ADF838000D949DF83400019420F00F0031
:10C41000401C20F0F00010308DF834009DF83500FD
:10C42000069420F0FF008DF835009DF836001421A9
:10C4300020F00600801C20F019008DF8360008A8B6
:10C44000FFF74FF80EA808900DA809901420ADF83A
:10C450002800ADF82C000848084B0C90981FADF848
:10C460002A4008AA69468088A2DF002801D0FFF789
:10C47000EBFB0FB030BD0000DC210020061F0020C8
:10C4800000B585B018491420ADF810004888A0F513
:10C490007F42FF3A25D00978002922D00021124B93
:10C4A00001229B1D00910191ADF810201B88ADF871
:10C4B000041004A902910D49ADF8003003918DF8E4
:10C4C00002206946A6DF00280BD0082809D0A0F575
:10C4D0004051043905D043F20141884201D0FFF7B1
:10C4E000B3FB05B000BD0000001F0020DC210020D0
:10C4F0002DE9F05F2648C168F1B3DFF898B00E6807
:10C500008146DBF800400769C078E11B21F07F45D8
:10C51000ED1CB0B9DFF880804FF48030C8F84403D8
:10C52000C8F804031120FFF77BF81120FFF783F808
:10C530004FF0010AC8F800A02F20FEF76BFF89F822
:10C5400003A0B54200D23546124BE8193C3320F027
:10C550007F401860DBF800105A46091B21F07F412C
:10C56000001B20F07F40C91C81420FD91068186061
:10C570002F20FEF74FFF00E004E0BDE8F05F112040
:10C58000FFF764B8BDE8F05F00F028BDBDE8F09F9C
:10C59000401F002004150140001001402DE9F0412A
:10C5A00017880646B81D14460D46984202D90C203D
:10C5B000BDE8F0813188072206290AD34FF4486C80
:10C5C0004FF6FF73614501D9994202D17088062860
:10C5D00001D21046ECE7604501D99842F9D1994261
:10C5E00003D0984201D08142F3D80520E855208835
:10C5F0001221401C80B2208029542088401C80B227
:10C6000020804119308800F083FF2188084480B2DF
:10C6100020804119708800F07BFF21880844208029
:10C620000020C5E7FFF72CBF2DE9F04100260125CA
:10C63000144C22E06068226900EBC607387805FADE
:10C6400000F1114217D08A43226100F0CFFB02466D
:10C650003878E36805FA00F1194002FA00F39942CC
:10C6600009D17978012901D0012100E00021514050
:10C670007A6802B19047761CF6B220788642D9D308
:10C68000BDE8F0812C1F00200E4910B54A788C7847
:10C690000023A24212D0521CD2B24A70022A00D108
:10C6A0004B70084A4B78183252F823200260086910
:10C6B000104420F07F400861012010BD036000207D
:10C6C00010BD0000401F00202DE9F041124E07462A
:10C6D0000125BD403068FFF75BFB00280DD10F4CF2
:10C6E0002069284207D1384600F080FB0028E06826
:10C6F00005D0284304E0A8432061BDE8F081A843A9
:10C70000E060206928432061A1683068BDE8F041FD
:10C710000022FFF7FDBA0000ACD601002C1F00205C
:10C72000F8B51A4C207800282ED0206928B10026B0
:10C73000E06820B1002526B110E00126F8E70125C8
:10C74000F9E7684652DF052803D020B1FFF77CFAED
:10C7500004E0012602E021690098884785B96088D5
:10C76000ADF800006946A06861DF052803D020B15C
:10C77000FFF76AFA04E0012502E0D4E902018847E4
:10C78000002EDED0002DD6D0F8BD0000601F0020A6
:10C7900030B51488E51C9D4201D90C2030BD02251E
:10C7A0000D5513881C245B1C9BB21380CC5413883A
:10C7B0005B1C9BB21380012807D0022807D00328F6
:10C7C00007D0042807D0072030BD002004E0012056
:10C7D00002E0CD5401E00320C8541088401C1080B2
:10C7E000002030BD0348017AC90702D00078FFF766
:10C7F00085BC7047101F00202DE9F047DFF8ACA082
:10C80000DAF80C009AF8004080469AF80460DAF8EA
:10C810000890DAF810703AE009EBC4052A7833E0A2
:10C8200002EB42016B68521C03EBC101AB78D2B240
:10C83000934200D100220B78022B02D0032B23D18C
:10C840001FE0D1F804C00346014603E0614503D070
:10C850000B46C969C1B1F9E7B1B18B4205D1C069D5
:10C8600018B9134F0126BE600027D1F800C0C9696E
:10C87000D96149B10B6863440B6005E00174C0697C
:10C8800000E000210028F9D169789142C8D1641EE6
:10C89000E4B2C1D2CAE903078AF80460404502D075
:10C8A0000120BDE8F0870020FBE70000401F0020CA
:10C8B000001001402DE9F04705462F48002680462C
:10C8C0000778D0F80C904BE0D8F8080000EBC704CC
:10C8D00040E002D02846ED691EE02078616800EB58
:10C8E0004002401CC0B201EBC2012070A27890420D
:10C8F00000D126700A784868012A2DD1027C5ABBE3
:10C900008A684260CA6882600A69C2604969816156
:10C9100098F8041001B146604268D8F81030DFF88A
:10C920005CC0D11A21F07F41614502D28268114476
:10C9300006E0991A826821F07F418A4202D9511A91
:10C94000016000E006604660012186600174C661F6
:10C9500000F06AFC002DBCD1207861788842BCD1FF
:10C960007F1EFFB2B0D2D8F80C10494502D001208A
:10C97000BDE8F0870020FBE7401F0020FFFF7F009D
:10C98000002494B023468DF800408DF804405B4AA3
:10C9900005212046FFF774F908B1FFF755F9584A09
:10C9A00001215848FFF75AF908B1FFF74DF95548EA
:10C9B000554A0021001DFFF751F908B1FFF744F96E
:10C9C000002240F6CD410320FFF746FB08B1FFF7F8
:10C9D0003BF969460020FFF707FB08B1FFF734F980
:10C9E0009DF8000030B901A90120FFF7FDFA08B158
:10C9F000FFF72AF9FFF76EFA9DF800009DF8041082
:10CA0000084303D13CDF08B1FFF71EF99DF814007D
:10CA10003EA120F00F00401C20F0F00010308DF8F7
:10CA20001400112205A87CDF08B1FFF70DF902946C
:10CA30001020ADF808000394ADF80A00ADF80C40E2
:10CA40004FF4C870ADF80E0002A87ADF08B1FFF706
:10CA5000FBF89DF80000324D1E2600284FF018010B
:10CA600028461FD0FEF73DFD2C706C602C722020F4
:10CA700028826E8241F22350ADF8080021480DF162
:10CA80000A01083063DF08B1FFF7DEF8254A02A982
:10CA90000120A0DF08B1FFF7D7F89DF80A00FFF7E3
:10CAA0007DFC08E0FEF71DFD032028706C602C72F1
:10CAB000A02028826E820524382102A8FEF711FDED
:10CAC0005920ADF840001820ADF8440014488DF806
:10CAD0000B402C30129010A80B90002102A8FFF7F9
:10CAE00093F908B1FFF7B0F80D4873DF00E048DFB5
:10CAF0000028FCD0FFF7A8F8F9E70000B41F0020D9
:10CB000025C6010058D6010029CC01004E6F726481
:10CB100069635F506F7765725F4D676D74000000E9
:10CB2000C4210020041F002070B5144682880E46E0
:10CB300005462088111D0144921C994201D8FE2A05
:10CB400001D90C2070BD521C32542088FF21401C9A
:10CB500080B2208031542088401C80B2208081190E
:10CB6000288800F0D5FC2188084480B22080AA885B
:10CB700042B1A96841B13044FEF79AFC2088A988E7
:10CB800008442080002070BD072070BDF8B50E4617
:10CB9000017814460546012901D1687830B1208812
:10CBA000821C9A422DD8012902D006E00720F8BD48
:10CBB00069780144891C994223D8181A801E87B2CB
:10CBC000ADF800702188B01C084469467DDF00285C
:10CBD000EDD12878022805D1BDF80010B94201D85E
:10CBE00009210AE00821012805D16878B84202D855
:10CBF000ADF8000001E0ADF80070BDF80000FE28BF
:10CC000001D90C20F8BD2288401CB0542088401C5B
:10CC100080B2208031542088401C2080BDF8001054
:10CC2000084420800020F8BD094810B50068FFF7CF
:10CC3000AFF808B1FFF708F806481321408876DFFF
:10CC4000002803D0BDE81040FEF7FEBF10BD000075
:10CC500058D60100001F00204907090E002806DAF7
:10CC600000F00F0202F1E02282F8141D03E000F14F
:10CC7000E02282F8001400F01F02012191404009D7
:10CC8000800000F1E020C0F88012C0F80011704769
:10CC90002DE9F0478846814600F088F90124224EAC
:10CCA0000028484618D0FFF771FB304490F8480040
:10CCB0008009032802D0012806D007E01B4800683D
:10CCC00004FA09F4204201D1022100E00321484680
:10CCD000BDE8F04700F0D9B800F074F9002820D082
:10CCE0004846FFF753FB0546114F4FF4807007EBA2
:10CCF000850100EB8500D1F8102580B242F00102D9
:10CD0000C1F8102500F0D0F8B8F1000F09D048465E
:10CD1000FFF73CFB56F82000002802D0AC40C7F8D3
:10CD20000443BDE8F0870000742200201005005085
:10CD3000006000402DE9FC41DFF8A480044608EBC8
:10CD40000400002790F930001346C0170E46401C1F
:10CD500001D0082740E0F27819462046FFF7F2FAA2
:10CD60000546401C37D0B07848B1A00000F1A04083
:10CD7000D0F8001721F00201C0F8001707E00021E9
:10CD80007378204600910A46019100F06DF8F07822
:10CD9000C0B11448317800EB8500D0F81025124B53
:10CDA0001A40C0F810254FF4F8524FF4403302EA0D
:10CDB000042203EA01410A43D0F810150A43C0F8DF
:10CDC000102509E008EB0500327810F8481F41EA09
:10CDD0008211017000E004273846BDE8FC810000A4
:10CDE0007422002000600040FFE0FCFF0349096856
:10CDF000C14011F0010000D0012070471005005023
:10CE000070B5124D95F8540008B1082070BD00208F
:10CE1000411E2A18401CC0B282F830102028F8D3D6
:10CE200000242046FFF780FA641CE4B20C2CF8D3EF
:10CE300003210620FFF710FF05494FF00040C1F81D
:10CE40000403012085F85400002070BD74220020E6
:10CE500000600040034890F85400002800D00120F2
:10CE6000704700007422002030B541EA4201DDE93C
:10CE7000034541EA8301800041EA042100F1A0401A
:10CE800041EA0541C0F8001730BD800000F5E060C0
:10CE900000F1A040026822F440320260026842EAD7
:10CEA0000141016070470000034908B508440021B2
:10CEB00001600068009008BD0060004002494058D1
:10CEC000012800D000207047006000404058002832
:10CED00000D001207047D0F80403084000D00120A2
:10CEE00070474058002800D00120704710B50188D5
:10CEF000144C19291DD00ADC102917D0112917D17B
:10CF00004FF6FF706080FEF76BFF3CDF08E05029B2
:10CF100014D052290CD10323002211466088A9DFC6
:10CF2000002805D0BDE81040FEF78EBE80886080E6
:10CF300010BD80790028FBD13CDFF1E7BDE810404F
:10CF400000F002B8001F002010B5164A30F8061F86
:10CF50009288914225D1018B022922D11149807EEC
:10CF6000A1F1060110F00100087016D00E4C00224D
:10CF700040F28F212068FEF7CBFE08B1FEF764FE79
:10CF800000224FF420316068FEF7C2FE08B1FEF7C0
:10CF90005BFEBDE81040FFF773BABDE81040FEF736
:10CFA0001FBF10BD061F002058D6010004490844C9
:10CFB00090F93000082801DB0120704700207047FD
:10CFC000742200200449084490F93000082801D256
:10CFD00001207047002070477422002070B50126A0
:10CFE00070044FF0E0210025C1F88001084C40108A
:10CFF000C4F84803C4F8080366602F20FEF70AFA55
:10D00000A660044C2F202561FEF704FAE57070BD80
:10D0100000100140401F002009480A490022C37D3A
:10D02000C1F8082143B1D1F81815437EC268D15424
:10D03000417E491C41767047D1F8180570470000C1
:10D04000CC220020002000401FB501228DF80800EE
:10D0500004488DF800200191D0E9001268469047FD
:10D060001FBD0000CC22002008B50249002000911D
:10D0700008BD0000001F00202DE9F0410746806A2E
:10D0800014468846C8B3002531E000BFB96A05EBF5
:10D09000450001EB8006B088801CFE2802D90C20D8
:10D0A000BDE8F0812288401C08F802002088162282
:10D0B000401C80B2208008F800202088401C80B2EC
:10D0C000208000EB0801308800F022FA2188084413
:10D0D00080B22080B28842B1B16871B14044FEF79D
:10D0E000E7F92088B188084420806D1CEDB297F8DC
:10D0F0002C00A842CAD80020D2E7FFE70720CFE7DC
:10D1000018B10349C860002070470E207047000026
:10D11000601F00201CB5034901910091694660DF42
:10D120001CBD0000001F002070B50E4605461446C9
:10D1300014211046FEF7D5F901202080002121613D
:10D1400021732672657205B1A072002070BDFEF7D2
:10D1500069BD000070B509B18C0701D0072070BD12
:10D16000064C0125A16062800549636010DF00283C
:10D17000F5D1257016202EDF70BD0000601F002045
:10D180004FD1010018B103490861002070470E20FB
:10D1900070470000601F0020704700002DE9F84F25
:10D1A000204C00256846D4E903B6FFF76DFA8046A7
:10D1B000FFF722FB0746A946B8F1000F25D0002350
:10D1C000009ACC46E06819E007680146974202D908
:10D1D000BA1A026014E0C1F800C0D1F80C80D21B6A
:10D1E000C8693B448A46B8F1000F07D0F71827F00A
:10D1F0007F47C1E90178CAF81C500D460028E3D1E9
:10D20000E0602846FFF756FB04E02846FFF752FB94
:10D2100000B917B15846FFF76BF984F80490BDE8E0
:10D22000F88F0000401F00200D4B10B5D96831B1B8
:10D2300002680C68A24204D8A21A0A60C161D860D0
:10D2400010BD0B4603E00B46C969121B21B10C68E7
:10D250009442F8D3A41A0C600260C161D86110BD79
:10D26000401F00202DE9F0411D4DEC68002C35D009
:10D270001C48002700682969B846401A20F07F46FC
:10D280002068B04215D82246361A0744E469107C5B
:10D2900068B182F810806B6933B1D2E90501984713
:10D2A00028B1FEF7D1FC02E0D2E905108847002C36
:10D2B000E6D16978A878814206D1401CC0B2A87036
:10D2C000022801D185F802800548A978183040F875
:10D2D0002170BDE8F0411420FEF7B8B9BDE8F08137
:10D2E000401F002004150140064A0020C2F81C011E
:10D2F0000548838A8168C95C838A5B1C8382C2F883
:10D300001C15704700200040CC2200201FB50021D2
:10D310008DF8080005488DF800108268019281752B
:10D32000D0E90012684690471FBD0000CC220020C3
:10D330002DE9FF413E4D4FF400712846FFF7CBFD2C
:10D3400001273C4C4FF40178002600B34FF4927152
:10D350002846FFF7BBFDD0B1C5F82461C5F80883A6
:10D36000A07E00B96F6002208DF80000D5F880041F
:10D37000C5F880040390E07D8DF80800E068019016
:10D38000E6752676D4E900126846904724E0042129
:10D390002846FFF7A0FDF8B14FF484712846FFF747
:10D3A00095FDC8B1FFF738FEE07D617E884213D15C
:10D3B000227E3AB1607EE168E2752269E2602676FB
:10D3C000667607E0A07E00B96F60C5F80883E67551
:10D3D000607EE168FFF738FE4FF48E712846FFF754
:10D3E00075FD58B1A18AA07D814202D2FFF77CFF72
:10D3F00004E0C5F81C6108B1FFF788FF4FF4A27183
:10D400002846FFF763FD00280FD0C5F84461A07ED1
:10D4100000B12F60E07D002807D0E675607EE168EE
:10D4200004B0BDE8F041FFF70FBEBDE8FF8100008A
:10D4300000200040CC2200207FB5334C4FF4927185
:10D440002046FFF74EFD314D0026B0B1C4F82461EF
:10D4500002208DF80000D4F88004C4F88004039002
:10D46000D4F83C058DF80800E8680190EE752E763A
:10D47000D5E90012684690471FE04FF488712046B6
:10D48000FFF72FFDC8B1C4F81061D4F83C05E97D61
:10D49000C0B2814211D12A7E5AB1E968D4F8003273
:10D4A00023F02003C4F80032EA752A69EA602E7678
:10D4B00001E0EE75E968FFF7C7FD4FF4A271204661
:10D4C000FFF70FFD50B1C4F84461E87D30B1EE754F
:10D4D000D4F83C05E968C0B2FFF7B6FD4FF490718F
:10D4E0002046FFF7FEFC00280CD0C4F82061A87D80
:10D4F000002807D0D4F84C0504B0C0B2BDE8704095
:10D50000FFF704BF7FBD000000200040CC220020B8
:10D510000870000A48700220704700000F48006839
:10D52000C005C00D13D0103840B2002806DA00F054
:10D530000F0000F1E02090F8140D03E000F1E0206E
:10D5400090F800044009012803D0032803D00220EA
:10D5500070470020704701207047000004ED00E094
:10D5600042788378521CD2B2934200D100220378D1
:10D57000934201D1002070470A704168407800EB67
:10D58000400001EBC00070472DE9FC411646DDE983
:10D590000854CDE900541F468046022200F00CF8E2
:10D5A000002807D1CDE900543B46102231464046C1
:10D5B00000F002F8BDE8FC812DE9FC5F0026DDE902
:10D5C0000C4B994692468E4680462788354630E079
:10D5D000D8F80400002200EB85006946006801903D
:10D5E00001A865DF002830D19DF8000050451FD10B
:10D5F0000EB1002100E0022122880844111859458B
:10D6000022D846B9521C90B2208009F800E0208848
:10D61000401C20800126218801A801EB09026946EF
:10D6200065DF002811D120889DF800100844208073
:10D630006D1CB8F80000A842CADC56B12088C01B97
:10D64000401E80B2FF2802D90C20BDE8FC9F09F8DB
:10D6500007000020F9E70000741F0020941F00203D
:10D6600023D1BCEA5F782315DEEF12120000000020
:10D670000822002028220020542200200D00000053
:10D680000E0000000F000000100000000D0003005D
:10D6900041BF01000E00030041BF01000F00030065
:10D6A00041BF01001000030041BF0100EC22002037
:10D6B00003000000D4D60100001F00207400000009
:10D6C00050B9010048D70100741F00209C230000BE
:10D6D00060B901000000FFFF000000000000000032
:10D6E000000000000000000000000000000000003A
:10D6F0000000000000000000000000000090D003C7
:10D700000000000000000000000000000000000019
:10D710000000000000000000000000000000000009
:10D7200000000000000000000000000000000000F9
:10D7300000000000000000000000000000000000E9
:08D740000000000000000000E1
:040000050001B40141
:00000001FF
