:020000040001F9
:10B00000784200208DB4010095B4010097B401008E
:10B0100099B401009BB401009DB401000000000040
:10B020000000000000000000000000009FB40100CC
:10B03000A1B4010000000000A3B40100A5B4010008
:10B04000A7B40100A7B4010089B90100A7B40100A9
:10B05000A7B40100A7B401001DB50100A7B4010009
:10B06000A7B40100A7B40100A7B40100A7B4010070
:10B07000A7B40100A7B40100A7B40100A7B4010060
:10B08000A7B40100D9B60100A7B40100A7B401001C
:10B090000DB70100A7B4010015B70100A7B4010066
:10B0A000A7B40100A7B40100A7B40100A7B4010030
:10B0B000A7B40100A7B401000000000000000000D8
:10B0C000A7B40100A7B40100A7B40100A7B4010010
:10B0D000A7B40100A7B40100A7B40100000000005C
:10B0E0000000000000000000000000000000000060
:10B0F0000000000000000000000000000000000050
:10B10000000000000000000000000000000000003F
:10B11000000000000000000000000000000000002F
:10B40000DFF80CD000F078F80048004765D0010064
:10B4100078420020401E00BF00BF00BF00BF00BF39
:10B4200000BF00BF00BF00BF00BF00BF00BF00BF24
:10B4300000BF00BF00BF00BF00BF00BF00BF00BF14
:10B4400000BF00BF00BF00BF00BF00BF00BF00BF04
:10B4500000BF00BF00BF00BF00BF00BF00BF00BFF4
:10B4600000BF00BF00BF00BF00BF00BF00BF00BFE4
:10B4700000BF00BF00BF00BF00BF00BF00BF00BFD4
:10B4800000BF00BF00BFC5D170470000064880471D
:10B4900006480047FEE7FEE7FEE7FEE7FEE7FEE7B9
:10B4A000FEE7FEE7FEE7FEE755B7010001B4010045
:10B4B00040EA01039B0703D009E008C9121F08C036
:10B4C000042AFAD203E011F8013B00F8013B521EB6
:10B4D000F9D27047D2B201E000F8012B491EFBD22D
:10B4E00070470022F6E710B513460A46044619468F
:10B4F000FFF7F0FF204610BD064C074D06E0E06860
:10B5000040F0010394E8070098471034AC42F6D3AA
:10B51000FFF77AFF38E4010058E401002DE9FE4FFF
:10B520000026B1464FF4807002900125002412E0FD
:10B53000029801F0E5FF40B100BF4648006828408E
:10B5400018B1029801F0CEFF2E436D000298001D45
:10B5500080B20290641C082CEAD34FF4BE7001F054
:10B56000CFFF48B14FF4BE7001F0BCFF46F000467B
:10B5700000BF394800688146F0B2F8B101250024C7
:10B580001AE005EA0600A8B100BF344850F82400CC
:10B59000C0F30420074600BF304850F82400C0F331
:10B5A00001408046204600F0B5FF824641463846BD
:10B5B000D04700BF6D00641C082CE2D306F00040A9
:10B5C000002844D0002440E025480057401C0028B3
:10B5D0003AD0234810F804A02AF0C007384600F0FB
:10B5E000E1FF804600F096FF0190019858B34FEAC2
:10B5F0009A1B012000FA07F500BF1A4850F82700EF
:10B60000C0F30140804605EA090010B1B8F1020F0D
:10B6100005D005EA0900A8B9B8F1030F12D1BBF1B2
:10B62000030F0BD1B8F1020F01D1032000E002207B
:10B6300000903846009901F03DFF00BF594638465A
:10B64000019A904700BF00BF641C042CBCD3BDE826
:10B65000FE8F00000463004010050050106500409C
:10B66000302200200007005000F01F02012191400D
:10B67000024A430942F823107047000080E200E0CC
:10B6800000F01F02012191404209920002F1E022E4
:10B69000C2F800117047000000F01F020121914024
:10B6A000024A430942F823107047000000E200E01C
:10B6B00010B5002807DA4A07140E054A00F00F03F8
:10B6C0001B1FD45403E04A07130E024A135410BD43
:10B6D00018ED00E000E400E010B500200949086022
:10B6E00000210948C0F84411C0F84811C0F84C11B5
:10B6F00000200549C1F8000102493C39086002F008
:10B7000041FB10BD401101400010014010B502F096
:10B7100051FA10BD70B50A48006868B10848006861
:10B720008047044600BF254625B100BF284600F0EB
:10B7300039FB00BF00BF01E001F068FA70BD0000F6
:10B74000601F002001480249086070470090D00344
:10B750000C1F002010B501F0C3F810B17D487E49E0
:10B76000486701F0D5F828B17C480068C0F3423042
:10B770007B49086001F0F6F828B17A48006820F0AB
:10B7800080707849086001F005F948B100207649D9
:10B7900008604FF08041C1F810017149091F08602D
:10B7A00001F022F918B103206D496431086001F0FD
:10B7B00033F968B105206D49086001206B49783183
:10B7C000086000206949083108603F20091F0860AF
:10B7D00001F03AF9002855D06548006865490860CD
:10B7E0006348001D0068091D086061480830006852
:10B7F000091D08605E480C300068091D08605C483F
:10B8000010300068091D0860594814300068091D8F
:10B81000086057481830006856492031086054487D
:10B820001C300068091D0860514820300068091D5F
:10B8300008604F4824300068091D08604C482830D3
:10B840000068091D08604A482C300068091D08601E
:10B850004748303000684749403108604448343038
:10B860000068091D0860424838300068091D0860FA
:10B870003F483C300068091D08603D484030006882
:10B88000091D086037487438006840F47000354975
:10B890007439086000BF00BF00BFBFF34F8F00BF07
:10B8A00000BF00BF00BF00BF00BFBFF36F8F00BF6E
:10B8B00000BF00BF3048006800F0004030B92E489B
:10B8C000001D006800F00040002840D001202B49F6
:10B8D000086000BF2A4800680028FBD015202649D0
:10B8E000086000BF264800680028FBD015212248C8
:10B8F000001D016000BF224800680028FBD0002026
:10B900001E49086000BF1E4800680028FBD000BF29
:10B9100000BF00BF00BF00BFBFF34F8F00BF00BF1D
:10B9200000BF1048F038006800F4E0601549084393
:10B93000001D0C49F039086000BF00BF00BFBFF315
:10B940004F8F00BF00BF00BF00BF00BFFDE7FFF784
:10B95000F9FE10BD0DF0ADBA00C007404402001062
:10B960003C050040FCED00E00C010040105600409A
:10B970000404001020C500400012001004E501403E
:10B9800000E401400000FA0510B50448007F10B142
:10B9900002F082FB01E002F0CFFA10BD3822002055
:10B9A00002E008C8121F08C1002AFAD17047704788
:10B9B000002001E001C1121F002AFBD170472DE9D0
:10B9C000FC41044688461646002537880020308012
:10B9D000606B68B1616B08783B463246414601F0C6
:10B9E000D9FF054600BF15B12846BDE8FC8100BF60
:10B9F000206B58B13B4632464146206B02F02AFA92
:10BA0000054600BF0DB12846EFE700BF94F82E00B1
:10BA100060B194F82E003B463246414601F05AF997
:10BA2000054600BF0DB12846DFE700BF94F82D00A2
:10BA300050B13A463146404600F04DFB054600BF46
:10BA40000DB12846D1E700BFA07850B13A46314643
:10BA5000404600F075FA054600BF0DB12846C4E720
:10BA600000BFE07860B1E17848B23B4632464146DB
:10BA700001F02EF8054600BF0DB12846B5E700BF1E
:10BA8000606868B1616891F900003B463246414602
:10BA900002F036FA054600BF0DB12846A5E700BF03
:10BAA000208900280EDD43460622022104F1080009
:10BAB000CDE9006702F01AFC054600BF0DB128462B
:10BAC00093E700BF208A00280EDD434607220321AA
:10BAD00004F11000CDE9006702F008FC054600BF44
:10BAE0000DB1284681E700BF208B00280EDD4346BC
:10BAF0001522142104F11800CDE9006702F0F6FBCD
:10BB0000054600BF0DB128466FE700BF206A58B157
:10BB10003B4632464146206A00F0BFFD054600BF65
:10BB20000DB1284661E700BF606A58B13B46324616
:10BB30004146606A01F0ACFA054600BF0DB12846E7
:10BB400053E700BF94F82C0000280BDD3B4632463B
:10BB50004146204601F039FF054600BF0DB1284699
:10BB600043E700BF207858B13B4632464146204665
:10BB700001F0C9FA054600BF0DB1284635E700BF00
:10BB8000284632E70146C87800F0040008B90720CB
:10BB900070470020FCE7000030B59DB016480068F3
:10BBA00000901648807C8DF8020038210FA8FFF71E
:10BBB00098FC02208DF83C0001208DF83E00062004
:10BBC0008DF83F00382101A8FFF78BFC0120ADF86C
:10BBD0001400CDF818D001A90FA800F0DAF9044636
:10BBE00000BF254625B100BF284600F0DBF800BFA6
:10BBF00000BF1DB030BD000018E40100781F002018
:10BC000030B587B0182101A8FFF76BFC00208DF834
:10BC1000040002908DF80C004FF49670ADF81400FB
:10BC20000020ADF8160001A873DF044600BF2546CA
:10BC300025B100BF284600F0B5F800BF00BF00BF27
:10BC40004FF40030034908600020091F086000BF5E
:10BC500007B030BD0C05005010B5002406E00849BF
:10BC6000096811F8340001F0DFFA641C0548007817
:10BC70008442F4D30448006800F048F910BD000085
:10BC8000281F00202C1F002030E4010010B50024E4
:10BC900007E00749096811F83400012101F0EEFAC4
:10BCA000641C044800788442F3D3002010BD0000D7
:10BCB000281F00202C1F00202DE9F84306460C46C3
:10BCC0001746052F02D20720BDE8F88301F0D6FB06
:10BCD00038B901F0A9FB054600BF0DB12846F3E7CE
:10BCE00000BF16480660164804701648076000201A
:10BCF000154908601549086015E006EBC4081448AA
:10BD00000068009098F802008DF8010098F8000093
:10BD1000104A694601F00EFB054600BF0DB12846EA
:10BD2000D2E700BF00BF201EA4F10101CCB2E4D1D4
:10BD3000094A0021094800F043F8C5E7281F002000
:10BD40002C1F0020301F0020341F0020381F00202F
:10BD500034E401008DCB0100F1C7010030E40100A3
:10BD600000BF00BF00BF00BF00BFBFF34F8F00BFC9
:10BD700000BF00BF0948006800F4E06008490843BC
:10BD8000001D0649086000BF00BF00BFBFF34F8F12
:10BD900000BF00BF00BF00BF00BFFDE70CED00E02B
:10BDA0000000FA050EB504460020009001900290B4
:10BDB00002946A46002144F20100FFF7D1FF00001F
:10BDC00010B503460C4600BF0B48006808B90820B0
:10BDD00010BD00BF0AB90720FAE70BB90720F7E743
:10BDE0001868007C08B10820F2E719680020087480
:10BDF0004C744A6100BFEBE7401F00202DE9F04181
:10BE000080460E4614461F46204600F0030109B93D
:10BE1000012100E0002111B90720BDE8F08124B91B
:10BE200000201D4908600720F7E701F03FFD1B488F
:10BE3000076003201A490870174804601834002569
:10BE40000DE01549096801EBC50000210170417042
:10BE50008670446006EB460104EBC1046D1C032DA3
:10BE6000EFDB00200F4908600F4908700F49087088
:10BE70001420FFF7F9FB03211420FFF719FC14200D
:10BE8000FFF7FEFB404601F0E7FC01F0DFFC08494C
:10BE900008600020C1E70000401F0020581F00205C
:10BEA0003C1F0020441F0020541F0020551F00206D
:10BEB000481F00202DE9F84304460D461746264644
:10BEC00000BF1148006810B90820BDE8F88300BF22
:10BED0000CB90820F9E7052D01D20720F5E77069B4
:10BEE00008B90820F1E7707C012801D1284600E05C
:10BEF0000020804602F0B4F9814643462A46314686
:10BF0000009701F0F1FEE0E7401F002070B5044605
:10BF1000254600BF0948006808B9082070BD00BF69
:10BF20000CB1686908B90820F8E70020287402F00D
:10BF300097F90646294601F005FFEFE7401F00206C
:10BF4000F8B505460C4617462088001DB84201D9B1
:10BF50000C20F8BD684679DF064600BF0EB13046BA
:10BF6000F7E700BF0320218868542088401C208008
:10BF70001920218868542088401C2080208841197D
:10BF8000BDF8000002F01EF921880844208000203E
:10BF9000DFE72DE9F04192B080460D461F20119059
:10BFA0001090B8F1000F17D04046FFF7EBFD0446A4
:10BFB00000BF1CB1204612B0BDE8F08100BF11AA3D
:10BFC00008A94046FFF7FBFC044600BF0CB1204621
:10BFD000F1E700BF08AE02E0002600201190ADB1ED
:10BFE000284601F0BFFD044600BF0CB12046E2E741
:10BFF00000BF10AA69462846FFF7E1FC044600BFCF
:10C000000CB12046D7E700BF6F4602E000270020B2
:10C010001090BDF84000C3B2BDF84400C1B23A462A
:10C02000304672DFC7E7000070B505461C2229467E
:10C030001248FFF73DFA002011490870286850B1F6
:10C04000104829680A680260496841607ADF04463E
:10C050003CB1204670BD0B487BDF04460CB1204646
:10C06000F8E74FF6FF70084908800020074908707C
:10C07000074A00210748FFF7A3FEEBE7A4210020B1
:10C08000241F0020101F00201A1F0020181F00204E
:10C09000D1E101001CE4010010B5044620881028FD
:10C0A00006D0112808D012280ED0502810D107E051
:10C0B000204601F003FB0CE0204601F021FB08E0E4
:10C0C000204601F041FB04E0204601F0E9FA00E0DF
:10C0D00000BF00BF10BD2DE9FC4105460C461746C8
:10C0E00020880930B84202D90C20BDE8FC8168469E
:10C0F00071DF064600BF0EB13046F6E700BF0820EC
:10C10000218868542088401C20801B202188685486
:10C110002088401C208020882844DDF80110016020
:10C12000BDF8051081802088801D20809DF80000CA
:10C1300018B900202188685402E001202188685441
:10C140002088401C20800020CFE7000010B5044666
:10C15000204601F01BFA2046FFF79EFF21460248C9
:10C1600000F046F810BD0000781F002070B586B0C2
:10C1700004460E464FF6FF70A0823068A0611B4B4C
:10C180000FCB01AD0FC504F1120101A863DF054615
:10C1900000BF15B1284606B070BD00BFA07C8DF869
:10C1A000160041F22350ADF81400224605A90120E3
:10C1B000A0DF054600BF0DB12846ECE700BF3146C1
:10C1C000204600F0B9F8054600BF0DB12846E2E769
:10C1D00000BF3146204600F0B2FD054600BF0DB15C
:10C1E0002846D8E700BF0020D5E7000020E4010082
:10C1F00070B505460C462088102804D0112807D0B9
:10C2000050280FD109E02146284601F075FA0AE0CE
:10C210002146284601F094FA05E02146284601F01F
:10C22000BFFA00E000BF00BF70BD13B586B0044682
:10C2300001200190002002900390049005900120BD
:10C240008DF80A006089ADF8080007A8059001A8DC
:10C250000490A08A02A9A6DF08B010BD70B588B00E
:10C2600000BF002348223149082001F049FC05465F
:10C2700000BF2E4626B100BF3046FFF793FD00BF3A
:10C2800000BF00BF03AA0121002001F019FC0446F1
:10C2900000BF254625B100BF2846FFF783FD00BF3C
:10C2A00000BF00BF224E304601F066FB044600BFCF
:10C2B000254625B100BF2846FFF774FD00BF00BF2B
:10C2C00000BF03A801F0EEFB044600BF254625B1E0
:10C2D00000BF2846FFF766FD00BF00BF01A871DF61
:10C2E000044600BF254625B100BF2846FFF75AFD8A
:10C2F00000BF00BF01A9002070DF044600BF254633
:10C3000025B100BF2846FFF74DFD00BF00BF09481B
:10C3100001F0BCFB044600BF254625B100BF2846FE
:10C32000FFF740FD00BF00BF08B070BD5C210020DA
:10C33000001E00204DC1010030B58FB004460D46EF
:10C340000020079000BF9DF81C0020F00F00401C4B
:10C350008DF81C009DF81C0020F0F00010308DF8C6
:10C360001C0000BF00BF9DF81D0020F00F00401C06
:10C370008DF81D009DF81D0020F0F00010308DF8A4
:10C380001D0000BF9DF81E0020F00600801C8DF8E7
:10C390001E001C2108A8FFF7A4F89DF8200020F03B
:10C3A0000200801C8DF820009DF8200020F0100075
:10C3B00010308DF82000002009900B900C9007A8F9
:10C3C0000D9000200E90A07C8DF8060041F22450C4
:10C3D000ADF804000020009000BF9DF8000020F0A0
:10C3E0000F00401C8DF800009DF8000020F0F000C8
:10C3F00010308DF8000000BF00BF9DF8010020F054
:10C400000F008DF801009DF8010020F0F0008DF87C
:10C41000010000BF9DF8020020F00600801C8DF88E
:10C4200002009DF8020020F008008DF802009DF83F
:10C43000020020F010008DF802009DF8020020F0AC
:10C4400001008DF80200142102A8FFF74AF801A8A4
:10C450000290CDF80CD00120ADF810000020ADF80E
:10C4600012000120ADF8140000200690208804F18D
:10C470000A0302AA08A9A2DF0FB030BD2DE9F041DE
:10C4800005460F460D2D15D139460F48FFF7CDFE55
:10C49000044674B143F2020084420AD0082C08D04A
:10C4A00000BF264626B100BF3046FFF77BFC00BF29
:10C4B00000BF05E000BF2846FFF774FC00BF00BFC7
:10C4C00000BFBDE8F0810000781F002070B540F289
:10C4D000666201210648FFF7EFFB044600BF2546D0
:10C4E00025B100BF2846FFF75DFC00BF00BF70BD4F
:10C4F000041F00204FF0FF31054A42F820100828A1
:10C5000004DBFF23A0F108015032535470470000B0
:10C51000E02100200146024850F821007047000049
:10C52000E02100202DE9F04F03460C464FF0FF3983
:10C530000AB1002000E0082084460AB1082000E08B
:10C540000C208046614624E0154850F82100401C2C
:10C55000F0B91D460846274616464FFA80FBDFF81D
:10C5600040A00AF1300A0AF805B0DFF834A04AF812
:10C5700020704EB94FFA85FBA0F1080ADFF820E0E1
:10C580000EF1500E0EF80AB000BF4FFA81F902E02A
:10C59000491C4145D8D300BF4846BDE8F08F000094
:10C5A000E02100200146014840567047102200203B
:10C5B0002DE9F04782461F480068002836D01D4804
:10C5C0000068056801F042F907461B4804682146E7
:10C5D000384601F0CEFAC61C1848007808B901F0B8
:10C5E00047F9AE4201D2284600E03046044424F028
:10C5F0007F44204601F024F901F028F980463946AD
:10C60000404601F0B6FA00F103093946204601F030
:10C61000B0FA814509D901F019F9814601F010F904
:10C620002F20FEF7F7FE01F0F9FB01E001F03EF9E3
:10C63000BDE8F087441F0020481F00205C1F002039
:10C6400001460888062808DB0888B0F5486F06DD33
:10C6500008884FF6FF72904201D007207047488843
:10C66000062808DB4888B0F5486F06DD48884FF695
:10C67000FF72904201D00720F0E708884FF6FF7262
:10C68000904208D04888904205D008884A88904255
:10C6900001DD0720E2E70020E0E72DE9F041064652
:10C6A0000D46144698462088801D404502D90C202E
:10C6B000BDE8F0813046FFF7C3FF074600BF0FB16A
:10C6C0003846F5E700BF0520218868542088401CC3
:10C6D00020801220218868542088401C20802288D5
:10C6E0005119308801F06EFD21880844208022888D
:10C6F0005119708801F066FD2188084420800020CF
:10C70000D6E710B5044600BF2046FFF74BFB00BF3D
:10C7100010BD000030B587B01C216846FEF7E1FE71
:10C72000002000904FF42020019080100290032000
:10C730008DF80C000020ADF80E008DF810000948AF
:10C740000590094806906846FFF76EFC044600BF56
:10C75000254625B100BF2846FFF724FB00BF00BFD8
:10C7600007B030BD75D6010003C7010038B51B48BE
:10C7700000F09EFA20BB1A48007848B11948406979
:10C78000E8B100200090174841696846884716E0E4
:10C790001548007810B91348456801E011488568CC
:10C7A0000022294611480068FFF784FB044634B193
:10C7B0000C48806918B10B4881692046884709E018
:10C7C0000848406930B10120009006484169684638
:10C7D000884700BF00200249087038BD1C1F002098
:10C7E000241F0020A4210020181F00201CE40100A9
:10C7F0002DE9F0478146002532E01C48006800EB37
:10C80000C5042178012000FA01F61948006830407B
:10C8100020B317480068B04315490860207800F03D
:10C82000F5FD074621780120884012490968084033
:10C83000217807FA01F188420FD16078012800D1F0
:10C8400000E00020784080F00108606820B108F026
:10C85000FF0120786268904700BF00BF681CC5B226
:10C86000054800788542C8DBBDE8F087281F002016
:10C87000381F0020341F00202C1F002001461448C0
:10C880000078144A127890421DD011480078401C5C
:10C890000F4A107010460078022801D10020107055
:10C8A0000D480B4A127850F8220008600B4A0868BD
:10C8B00012681044094A10601046006820F07F405A
:10C8C0001060012070470020086000BFFAE70000F8
:10C8D000541F0020551F00204C1F0020481F00201F
:10C8E0000A48007806280ED10848001D007800F09C
:10C8F0000F0040B905480830007800F0F0003028FB
:10C9000001D1012070470020FCE70000E00F00F09B
:10C9100013480078062820D11148001D007800F047
:10C920000F00D0B90E480830007800F0F000302831
:10C9300001D1012070470A480830007800F0F0006B
:10C94000402801D10120F5E705480830007800F0C3
:10C95000F000502801D10120ECE70020EAE70000B8
:10C96000E00F00F00A48007806280ED10848001DA4
:10C97000007800F00F0040B905480830007800F05A
:10C98000F000302801D1012070470020FCE70000B2
:10C99000E00F00F013480078062820D11148001D50
:10C9A000007800F00F00D0B90E480830007800F091
:10C9B000F000302801D1012070470A480830007883
:10C9C00000F0F000402801D10120F5E705480830CB
:10C9D000007800F0F000502801D10120ECE70020A1
:10C9E000EAE70000E00F00F00A48007806280ED1C0
:10C9F0000848001D007800F00F0040B905480830D5
:10CA0000007800F0F000302801D1012070470020AC
:10CA1000FCE70000E00F00F00A48007806280ED17D
:10CA20000848001D007800F00F0040B905480830A4
:10CA3000007800F0F000302801D10120704700207C
:10CA4000FCE70000E00F00F00A48007806280ED14D
:10CA50000848001D007800F00F0040B90548083074
:10CA6000007800F0F000502801D10120704700202C
:10CA7000FCE70000E00F00F0F0B5034600241FE0E3
:10CA8000124E306806689E4203D90668F61A0660A0
:10CA90001AE006689B1B06683444002606600B4EAD
:10CAA00035680A4FC6693E60C66846B10E1926F061
:10CAB0007F464660C66886601668C661156000BF1E
:10CAC000024800680028DBD100BFF0BD441F0020F1
:10CAD00030B504461088C01C984201D90C2030BDE6
:10CAE0000220158848551088401C108001201588A8
:10CAF00048551088401C108015884C551088401CE3
:10CB000010800020EBE700003EB500BF9DF800005C
:10CB100020F00F00401C00909DF8000020F0F00075
:10CB20001030009000BF0D2214A168467CDF04463F
:10CB300000BF254625B100BF2846FFF733F900BFE7
:10CB400000BF0020019002905020ADF80400A0200A
:10CB5000ADF806000020ADF808004FF4C870ADF83D
:10CB60000A0001A87ADF044600BF254625B100BFB0
:10CB70002846FFF717F900BF00BF3EBD4E6F726435
:10CB800069635F426C696E6B790000002DE9F041CA
:10CB900005460F46012000FA05F418480068FFF723
:10CBA000B5F906460EB1BDE8F08115480068204091
:10CBB000E0B9284600F02AFC28B11248006820435A
:10CBC0001049086004E00F480068A0430D49086060
:10CBD0000B48006820430A49086000220A4801689F
:10CBE00006480068FFF766F9064604E00448006856
:10CBF000A0430349086000BFD5E7000030E401000E
:10CC0000381F0020341F0020301F0020F8B52348B3
:10CC1000007800B9F8BD2248006808B9012000E09A
:10CC2000002005461F48006808B9012000E00020E8
:10CC3000064600BF8DB9684652DF0446052C01D177
:10CC4000012509E024B100BF2046FFF7ABF803E05F
:10CC5000134900980968884700BFBEB91248008888
:10CC6000009069461148006861DF0446052C01D137
:10CC700001260AE024B100BF2046FFF793F804E044
:10CC80000A48006807490968884700BF0DB106B126
:10CC900000E0CFE700BF00BFBCE70000641F00203A
:10CCA000741F0020701F00206C1F0020681F0020D0
:10CCB00001464888064A1288904206DB4888044AA2
:10CCC0005288904201DC012070470020FCE7000000
:10CCD000101F002030B504461088C01C984201D9AE
:10CCE0000C2030BD0220158848551088401C10804B
:10CCF0001C20158848551088401C1080012C06D037
:10CD0000022C08D0032C0AD0042C10D10BE00020F8
:10CD1000158848550DE001201588485509E0022086
:10CD20001588485505E003201588485501E007207F
:10CD3000D7E700BF1088401C10800020D1E730B535
:10CD40008FB004460D461C2108A8FEF7CAFB9DF8CB
:10CD5000200020F00200801C8DF820009DF82000AB
:10CD600020F0080008308DF82000002009900B907A
:10CD70000C900D900E90A07C8DF80A0041F2255089
:10CD8000ADF808000020019000BF9DF8040020F0DD
:10CD90000F00401C8DF804009DF8040020F0F00006
:10CDA00010308DF8040000BF00BF9DF8050020F092
:10CDB0000F00401C8DF805009DF8050020F0F000E4
:10CDC00010308DF8050000BF9DF8060020F0060029
:10CDD000801C8DF806009DF8060020F008008DF8F4
:10CDE00006009DF8060020F010008DF806009DF862
:10CDF000060020F001008DF80600142103A8FEF7BC
:10CE000070FB02A8039001A804900120ADF8140063
:10CE10000020ADF816000120ADF8180000200790A2
:10CE20002088A31C03AA08A9A2DF0FB030BD000010
:10CE300041B100BF4FF40032084B1A6000221B1FA3
:10CE40001A6009E000BF4FF40032044B1B1F1A6048
:10CE500000221B1D1A6000BF704700000C05005027
:10CE6000F0B500BF002019E00121814001F4C0218C
:10CE700099B100BF01210A4600231C461D4641EA24
:10CE8000420646EA830646EA042646EA05470A4E73
:10CE900046F8207000BF00BF00BF401C2028E3D32D
:10CEA00000BF00BF4FF4C020044908600020091DE6
:10CEB000086000BFF0BD00000007005008050050EA
:10CEC0002DE9F0412148D0F80080214806782FE074
:10CED0002048006800EBC604257825E005EB4501F5
:10CEE000606800EBC107681CC5B2A078A84200D1F9
:10CEF00000253878022802D0032812D103E0786890
:10CF000000F0BCFE0EE007E0104908680021017443
:10CF10000E4AC169116000BF0C4800680028F3D1B7
:10CF200000E000BF00BF00BF6078A842D6D100BFBC
:10CF3000301EA6F10101CEB2CAD1044800684045B6
:10CF400002D00120BDE8F0810020FBE7441F002053
:10CF50003C1F0020401F00202DE9F04706463B48BB
:10CF6000D0F800903A48077861E03A48006800EB52
:10CF7000C70555E016B13446E66923E02A7802EB8E
:10CF80004202696801EBC2002978491C297029789E
:10CF9000AA78914201D100212970446801780129C1
:10CFA00001D1217C01B13BE081686160C168A16071
:10CFB0000169E1604169A1612749097809B100214E
:10CFC000616000BF254960680968401A20F07F4011
:10CFD0002349884208D221496068096800F0C9FDE8
:10CFE000A1680844206010E01C486168006800F0F7
:10CFF000C0FD8046A068404504D9A068A0EB0800A9
:10D00000206001E00020206000BF00206060A06080
:10D01000012020740020E061204600F0FBFD00BFED
:10D02000002EA7D1287869788842A3D100BF381E86
:10D03000A7F10101CFB298D104480068484502D059
:10D040000120BDE8F0870020FBE70000441F00201E
:10D050003C1F0020401F00205D1F0020481F0020B3
:10D06000FFFF7F00FFF7FCFE00F0DEFEFFF72EFA69
:10D07000FFF7F4F8FFF748FD00F0F2FCFEF78CFD37
:10D08000FFF748FBFEF7BCFD00BF00F0CBFBFCE761
:10D090002DE9F04105460E4614469846A888871C9F
:10D0A0002088801C3844404502D90C20BDE8F0811E
:10D0B000FE2F01D90C20F9E7781C218870542088B4
:10D0C000401C2080FF20218870542088401C208034
:10D0D00022889119288801F075F821880844208059
:10D0E000A88800280DDDA86808B90720DEE7AA880F
:10D0F00023889819A968FEF7DBF92088A9880844D5
:10D1000020800020D2E72DE9F84F05460F4614464F
:10D1100098462878012804D1687810B90720BDE81E
:10D12000F88F2088801C404508D82878012807D12E
:10D130002088801C69780844404501D90C20EEE71E
:10D140002088A8EB0000801E86B200962188891CEA
:10D15000C81969467DDF814600BFB9F1000F01D0D3
:10D160004846DCE700BF2878022806D1BDF8000059
:10D17000B04202DC4FF0090A0BE04FF0080A2878B1
:10D18000012805D16878B04202DC6878009000E0A0
:10D190000096BDF80000FE2801D90C20BFE7BDF8BD
:10D1A0000000401C218878542088401C2080208862
:10D1B00007F800A02088401C20802088BDF80010BF
:10D1C000084420800020AAE770B50B4601461A46A5
:10D1D000002907DA5407260E104C01F00F052D1F09
:10D1E000665503E05407250E0D4C655400BF00BF83
:10D1F00000F01F02012191400A4A440942F824101C
:10D2000000BF00BF00F01F020121914042099200BF
:10D2100002F1E022C2F8001100BF70BD18ED00E07D
:10D2200000E400E080E200E070B50546284600F02A
:10D23000D7FA20B10021284600F03CF918E0284632
:10D2400000F0DAFAA0B12846FFF7ACF90446204610
:10D25000084951F8201021F00102064941F8202028
:10D2600000BF012101FA04F00349086000BF00BFBC
:10D2700070BD000010650040086300402DE9F047D4
:10D2800005460E46284600F0ABFAF8B12846FFF7EF
:10D2900089F9083824490F5CBC11032C0BD100BF5D
:10D2A000224800680121A940084008B1032000E09D
:10D2B0000220804605E0012C01D1022000E003207D
:10D2C00080464146284600F0F5F82AE0284600F05E
:10D2D00093FA30B32846FFF765F90446A00000F53D
:10D2E000807087B22046124951F8201041F00102A7
:10D2F0000F4941F8202000BF384600F0F3F87EB116
:10D300002846FFF74FF98146FFF704F98046B8F148
:10D31000000F04D0012101FA04F000F0FDF800BF75
:10D3200000BFBDE8F087000030220020100500504B
:10D33000106500402DE9FC4704460E4617464FF0A5
:10D340000008204600F03EFA10B14FF0080851E006
:10D35000F27839462046FFF7E5F80546681C0028B4
:10D3600045D0B07860B100BFA10001F1A041D1F873
:10D37000001721F00200214941F8240000BF0CE011
:10D3800096F80190002000904B460246014601901D
:10D39000204600F07DF800BF00BFF078D0B13078B3
:10D3A000174951F82510174A1140154A42F825101F
:10D3B000114651F825104FF4F85202EA04224FF4B6
:10D3C000403303EA00431A4311430D4A42F8251043
:10D3D00000BF0EE0A5F108000B49085C317840EA77
:10D3E000811042B2A5F1080007490A5401E04FF04C
:10D3F000040800BF4046BDE8FC870000000700505D
:10D4000010650040FFE0FCFF30220020014600BF15
:10D4100004480068C84000F0010008B101207047CE
:10D420000020FCE71005005010B5134890F8540098
:10D4300008B1082010BD002404E0204600F0ECF9FB
:10D44000601CC4B2202CF8DB002404E02046FFF767
:10D4500051F8601CC4B20C2CF8DB03210620FFF746
:10D46000B3FE4FF0004000F057F80120024981F868
:10D4700054000020DEE70000E0210020034890F87F
:10D48000540008B1012070470020FCE7E021002093
:10D49000F0B5DDE9054541EA420646EA830646EA7B
:10D4A000042646EA0547024E46F82070F0BD00000B
:10D4B00000070050074A52F8202022F44033054A62
:10D4C00042F8203052F8202042EA0143014A42F853
:10D4D000203070470007005001460148084470475B
:10D4E0000060004038B504462046FFF7F5FF0021F4
:10D4F00001602046FFF7F0FF0068009000BF38BDD4
:10D5000010B504462046FFF7E7FF0068012800D168
:10D5100010BD0020FCE700000149086070470000D2
:10D52000046300400146D1F88004C1F880047047CC
:10D530000246505808B1012070470020FCE7002245
:10D5400042507047C0F8081370470246D2F80403EF
:10D55000084008B1012070470020FCE7012242503A
:10D5600070470146D1F88004C1F880047047024634
:10D57000505808B1012070470020FCE700224250BB
:10D580007047014640F23C504058704770B5054620
:10D590002888102806D0112825D0132840D05228DA
:10D5A00060D14EE000BF4FF4802030490860002079
:10D5B000091F086000BF00BF4FF400300860002062
:10D5C000091D086000BFA88829490880FEF75EFB96
:10D5D000044600BF264626B100BF3046FEF7E2FBF8
:10D5E00000BF00BF3FE000BF4FF480201F49091F6C
:10D5F00008600020091D086000BF4FF6FF701C493D
:10D600000880FEF729FB044600BF264626B100BF6E
:10D610003046FEF7C7FB00BF00BFFEF7F1FA22E07D
:10D6200000231A468521124800887FDF044600BF88
:10D63000264626B100BF3046FEF7B4FB00BF00BF50
:10D6400011E000231A46194609480088A9DF04465C
:10D6500000BF264626B100BF3046FEF7A3FB00BF41
:10D6600000BF00E000BF00BF70BD00000C0500500F
:10D67000001F002070B50546287868B93B2107488F
:10D68000008876DF044600BF264626B100BF30463C
:10D69000FEF788FB00BF00BF70BD0000001F002028
:10D6A00010B504460449D4F806200A60D4F80A00EC
:10D6B0004860FFF75BF810BD1C1F002010B5044642
:10D6C000A088094908800949D4F816200A60D4F8CE
:10D6D0001A0048600020064908700648C08908B949
:10D6E000FFF744F810BD00001A1F00201C1F002087
:10D6F000181F0020A42100208A8882827047000021
:10D7000070B505464FF6FF700949088000200949A9
:10D71000087009480068FEF7F9FB044634B1074871
:10D72000806918B1054881692046884770BD0000AE
:10D730001A1F0020181F00201CE40100A421002053
:10D740004FF6FF728282704770B50546AC1D208887
:10D750001149C98988421DD1208B02281AD100BFE6
:10D7600000BFA17EE27E41EA0221084600F00101ED
:10D7700011B1FEF7FBFF0DE008480068FEF7C6FB9D
:10D78000064636B10448806918B1034881693046BD
:10D79000884700BF70BD0000A42100201CE40100E8
:10D7A00070B504460E46B51D28886188884208D1A8
:10D7B000288B012805D1A06918B1A97E2046A2694D
:10D7C000904770BD014605484056012202EBE070CB
:10D7D00008B1012070470020FCE700001022002063
:10D7E000014604484056082801DB0120704700200C
:10D7F000FCE70000102200200146064840560028A1
:10D8000005DB04484056082801DA01207047002053
:10D81000FCE7000010220020FF2201490A54704753
:10D820001022002070B548DF044600BF254625B110
:10D8300000BF2846FEF7B6FA00BF00BF70BD00006B
:10D840000149086070470000401501400148006828
:10D85000704700000415014010B5044603480460F9
:10D8600003211120FDF724FF10BD00000815014021
:10D8700010B54FF480300A4908600A49C1F8040322
:10D880001120FDF7F1FE1120FDF7FAFE01200549F8
:10D8900008602F20FDF7BEFD01200349087010BD70
:10D8A00044130140001001405C1F002010B51120FE
:10D8B000012181400E4A430942F8231000BF4FF472
:10D8C00080300C4908600C49C1F808030120486009
:10D8D0002F20FDF79FFD01200749886000200749A0
:10D8E00008602F20FDF796FD00200549087010BD47
:10D8F00080E100E04813014000100140481F002073
:10D900005C1F002010B51048C07D40B94FF48471F1
:10D910000E48FFF714FE00BF0D48006810BD4FF41D
:10D9200084710A48FFF70BFE00BF09480068C0B2C7
:10D930000549C968044A527E88540348407E401C09
:10D940000149487600BFE9E7382200200020004066
:10D95000182500407FB504460D4601208DF80000D3
:10D960008DF8084001950348016842686846904771
:10D970007FBD00003822002008B501460448009011
:10D980000098884201D0002008BD0020FCE700007C
:10D99000001F002030B504461088C01C984201D9F1
:10D9A0000C2030BD0220158848551088401C10807E
:10D9B0001120158848551088401C108010880C5480
:10D9C0001088401C10800020EBE72DE9F047074647
:10D9D0000E4614469A46B86A10B90720BDE8F0878B
:10D9E0004FF0000836E008EB4801B86A00EB81050B
:10D9F000A88800F10209B9F1FE0F01D90C20EDE76A
:10DA000009F10100218870542088401C20801620D4
:10DA1000218870542088401C2080228891192888F1
:10DA200000F0D0FB218808442080A88800280DDD64
:10DA3000A86808B90720D1E7AA8823889819A96897
:10DA4000FDF736FD2088A9880844208008F10100F0
:10DA500000F0FF0897F82C004045C4DC0020BDE72B
:10DA600038B50848009069460748FEF77FFB044632
:10DA700000BF254625B100BF2846FEF793F900BF39
:10DA800000BF38BD31CE0100781F0020014600BF25
:10DA900009B90E20704700BF014801600020F9E776
:10DAA000701F00207CB50446044800900098019047
:10DAB00001A9204660DF054628467CBD001F0020E6
:10DAC00070B505460E46144614212046FDF709FDA3
:10DAD00001202080002121610020207326726572C0
:10DAE000607A08B10121A172002070BD70B50446B2
:10DAF0000D461646324629462046FEF731F970BDDE
:10DB00002DE9F04180460C4616461F4614B9072001
:10DB1000BDE8F081204600F0030109B9012100E0D1
:10DB2000002109B90720F3E7094804600948068085
:10DB3000094807600949404610DF05460DB12846EF
:10DB4000E6E701200649087016202EDFE0E7000016
:10DB5000681F00206C1F0020601F0020EDDA01000C
:10DB6000641F00200146C87808B1072070470020D4
:10DB7000FCE70246501A20F07F40704770B504461B
:10DB80000B48006878B10A4AD4E905011268904749
:10DB9000054600BF2E4626B100BF3046FEF702F90B
:10DBA00000BF00BF02E0D4E90510884770BD000047
:10DBB000581F00202DE9FC41002001900F48046807
:10DBC0000F4807686846FEF759FE0546FFF778F9E3
:10DBD00006462DB101AA21460098FEF74DFF012609
:10DBE0000198FFF7B9F900B1012616B13846FEF7E2
:10DBF000DFFC002003490870BDE8FC81481F0020BD
:10DC0000441F00205D1F002010B51420FDF744FDC7
:10DC100010BD000010B51849096811B9164908600F
:10DC200028E0154A01681268126891420DD812491D
:10DC3000096809680268891A0F4A126811600E495A
:10DC40000968C1610C49086014E002680A4C236845
:10DC5000216803E00C68121B0B46C96911B10C68FE
:10DC60009442F7D311B10C68A41A0C600260C16130
:10DC7000D86100BF10BD0000441F002030B502462F
:10DC8000154C2168084604E0904200D103E00146AB
:10DC9000C0690028F8D100BF00B930BD814210D161
:10DCA0000D4C2468E4690C4D2C602C46246844B962
:10DCB00001240A4DAC600024094D2C600124094D5B
:10DCC0002C700368C469CC61C86910B104681C4435
:10DCD000046000BFE1E70000441F00200010014085
:10DCE000481F00205D1F00202DE9F84305460E4621
:10DCF00017469846DDF820901149096801EBC500E8
:10DD0000694600F0D9FA044614B90420BDE8F88346
:10DD1000012020706660FFF799FDA060E760C4F8FD
:10DD20001080C4F814900649096801EBC5009DF8FD
:10DD3000001000F0D9FAFFF767FF0020E6E70000C7
:10DD4000401F0020F8B504460E460D49096801EB56
:10DD5000C400694600F0B0FA05460DB90420F8BDCC
:10DD6000022028706E600649096801EBC4009DF826
:10DD7000001000F0B9FAFFF747FF0020EFE70000BE
:10DD8000401F00202DE9F0411F480068002838D0CE
:10DD90000027FFF75BFD80461C4801684046FFF7FF
:10DDA000E8FE06461848056810E02868B04200D929
:10DDB0000EE02868361A286807442C46ED69207C56
:10DDC00020B1002020742046FFF7D8FE002DECD1B2
:10DDD00000BF0F4800780F490978884209D10D48E3
:10DDE0000078401CC0B20B490870022801D1002005
:10DDF000087009480749097840F82170FFF704FFC7
:10DE000000BFBDE8F0810000441F0020481F002033
:10DE1000541F0020551F00204C1F002010B511205A
:10DE2000FDF73AFC10BD000070B500BF0023084AA2
:10DE300005211846FDF7E2FF044600BF254625B13F
:10DE400000BF2846FDF7AEFF00BF00BF00BF70BD9A
:10DE5000941F002070B504461D4610881230A84259
:10DE600001D90C2070BD1120168888551088401CDF
:10DE700010801020168888551088401C10800F23B1
:10DE800007E0E05C16888855581E43B21088401C95
:10DE90001080002BF5DA0020E4E7000010B54FF405
:10DEA0008E710948FFF74BFB084880680749898A4B
:10DEB000445C0648808A401C044988822046044904
:10DEC000086000BF10BD0000002000403822002084
:10DED0001C2500401FB5044600208DF800008DF879
:10DEE000084006488068019000200449887508466B
:10DEF00001684268684690471FBD00003822002034
:10DF000030B504461088C01C984201D90C2030BDA1
:10DF10000220158848551088401C10800A2015885A
:10DF200048551088401C108015884C551088401C9E
:10DF300010800020EBE700007FB54FF400715448DB
:10DF4000FFF703FB68B34FF492715148FFF7F0FA03
:10DF500038B34FF492714E48FFF7F1FA4FF4017164
:10DF60004B48FFF7EFFA4B48807E18B90421484828
:10DF7000FFF7F4FA02208DF800004548FFF7D2FAC7
:10DF800003904448C17D8DF80810C06801900020BE
:10DF90004049C87508760846016842686846904757
:10DFA0003CE004213A48FFF7D0FA002836D04FF47D
:10DFB00084713748FFF7BCFA00282FD0FFF7A2FC86
:10DFC0003448C07D3349497E884227D13148007E9C
:10DFD00080B13048C468457E007E2E49C875084629
:10DFE0000069C86000200876487621462846FFF779
:10DFF000B1FC13E02748807E18B904212448FFF7BC
:10E00000ADFA4FF401712248FFF79CFA0020214934
:10E01000C8750A46D168507EFFF79CFC4FF48E719C
:10E020001B48FFF785FAA0B11A48808A1949897DF3
:10E03000884202DAFFF732FF0BE04FF48E7114488A
:10E04000FFF77DFA1348807D18B11249887DFFF7EC
:10E0500041FF4FF4A2710E48FFF76AFAB0B14FF4D6
:10E06000A2710B48FFF76BFA0A48807E18B10021B5
:10E070000748FFF773FA0748C07D38B1002005490B
:10E08000C8750A46D168507EFFF764FC7FBD00006A
:10E0900000200040382200207FB54FF4927146489E
:10E0A000FFF765FAF0B14FF492714348FFF766FA53
:10E0B00002208DF800004048FFF753FA03903E48D5
:10E0C000FFF75FFAC1B28DF808103C48C0680190B4
:10E0D00000203A49C87508760846016842686846D3
:10E0E000904737E04FF488713348FFF740FA002833
:10E0F00030D04FF488713048FFF740FA2E48FFF7D0
:10E1000040FAC4B22D48C07DA04222D12B48007EE7
:10E11000B8B12A48C5682020294909688143264AA0
:10E12000C2F8001200BF2548007E2449C875084681
:10E130000069C8600020087629462046FFF70AFCDF
:10E1400007E000201D49C8750846C1682046FFF752
:10E1500001FC00BF4FF4A2711748FFF708FA98B10D
:10E160004FF4A2711448FFF709FA1448C07D58B162
:10E1700000201249C8751048FFF703FAC4B20F48CF
:10E18000C1682046FFF7E6FB4FF490710A48FFF79D
:10E19000EEF978B14FF490710748FFF7EFF90748AF
:10E1A000807D38B1044840F24C510958CCB2204629
:10E1B000FFF790FE7FBD00000020004038220020C5
:10E1C0000022004002460A70100A48700220704780
:10E1D00038B505461E4800884FF6FF71884235D095
:10E1E0001C480078401C1B4908701B48007B0978BC
:10E1F00088420DDB19491648008875DF044634B1A2
:10E200001548806918B114488169204688471DE087
:10E210000020104908701048007C68B13B210C4870
:10E22000008876DF044634B10B48806918B10A488B
:10E2300081692046884700BF0748406930B1002007
:10E240000090054841696846884700BF38BD000016
:10E250001A1F0020181F0020A4210020101F0020DA
:10E2600030B500BF12490968C1F308028AB1A2F1B2
:10E27000100359B2002907DA0D4C143401F00F05D0
:10E280002D1F645D640902E00A4C645C6409E1B21C
:10E2900000E00421012902D0032904D101E000207B
:10E2A00003E0012001E0022000BF00BF30BD0000FC
:10E2B00004ED00E000E400E030B502460B46507883
:10E2C000401CC1B29078884200D100211078884269
:10E2D00001D1002030BD1970557805EB4505506817
:10E2E00000EBC5042046F5E7417070472DE9FC4777
:10E2F0008046894615469A46DDE90A67534602225A
:10E3000049464046CDE9006700F017F8044600BFD3
:10E3100014B12046BDE8FC8700BF534610222946B1
:10E320004046CDE9006700F008F8044600BF0CB194
:10E330002046EFE700BF0020ECE72DE9FF5F06462F
:10E340008B4696461D460E9C4FF000082088039091
:10E3500000274AE0706800EB870000680190002207
:10E3600002A901A865DF824600BFBAF1000F03D001
:10E37000504604B0BDE8F09F00BF9DF8080070450E
:10E3800032D1B8F1000F01D0002000E0022000904F
:10E3900020889DF808100144009801440F9881429C
:10E3A00001DD0C20E5E7B8F1000F0AD12088401C00
:10E3B0002080208805F800B02088401C20804FF085
:10E3C00001082088421902A901A865DF824600BF22
:10E3D000BAF1000F01D05046CBE700BF20889DF86E
:10E3E00008100844208000BF7F1C3088B842B1DC90
:10E3F000B8F1000F0DD021880398401C081A1FFAAD
:10E4000080F9B9F1FF0F01DD0C20B2E7039805F8A0
:10E4100000900020ADE7000023150000C02100207F
:10E4200023D1BCEA5F782315DEEF12120000000052
:10E43000582200200300000058E40100001F0020C3
:10E4400078000000A0B90100D0E40100781F00208E
:10E4500000230000B0B90100FFFF00000D00030021
:10E460007DC401000090D003000000000000000007
:10E47000000000000000000000000000000000009C
:10E48000000000000000000000000000000000008C
:10E49000000000000000000000000000000000007C
:10E4A000000000000000000000000000000000006C
:10E4B000000000000000000000000000000000005C
:10E4C000000000000000000000000000000000004C
:040000050001B40141
:00000001FF
