:020000040001F9
:10B00000704200208DB4010095B4010097B4010096
:10B0100099B401009BB401009DB401000000000040
:10B020000000000000000000000000009FB40100CC
:10B03000A1B4010000000000A3B40100A5B4010008
:10B04000A7B40100A7B401003DB90100A7B40100F5
:10B05000A7B40100A7B401001DB50100A7B4010009
:10B06000A7B40100A7B40100A7B40100A7B4010070
:10B07000A7B40100A7B40100A7B40100A7B4010060
:10B08000A7B4010085B60100A7B40100A7B4010070
:10B09000A9B60100A7B40100ADB60100A7B4010034
:10B0A000A7B40100A7B40100A7B40100A7B4010030
:10B0B000A7B40100A7B401000000000000000000D8
:10B0C000A7B40100A7B40100A7B40100A7B4010010
:10B0D000A7B40100A7B40100A7B40100000000005C
:10B0E0000000000000000000000000000000000060
:10B0F0000000000000000000000000000000000050
:10B10000000000000000000000000000000000003F
:10B11000000000000000000000000000000000002F
:10B40000DFF80CD000F078F80048004755C801007C
:10B4100070420020401E00BF00BF00BF00BF00BF41
:10B4200000BF00BF00BF00BF00BF00BF00BF00BF24
:10B4300000BF00BF00BF00BF00BF00BF00BF00BF14
:10B4400000BF00BF00BF00BF00BF00BF00BF00BF04
:10B4500000BF00BF00BF00BF00BF00BF00BF00BFF4
:10B4600000BF00BF00BF00BF00BF00BF00BF00BFE4
:10B4700000BF00BF00BF00BF00BF00BF00BF00BFD4
:10B4800000BF00BF00BFC5D170470000064880471D
:10B4900006480047FEE7FEE7FEE7FEE7FEE7FEE7B9
:10B4A000FEE7FEE7FEE7FEE7D1B6010001B40100CA
:10B4B00040EA01039B0703D009E008C9121F08C036
:10B4C000042AFAD203E011F8013B00F8013B521EB6
:10B4D000F9D27047D2B201E000F8012B491EFBD22D
:10B4E00070470022F6E710B513460A46044619468F
:10B4F000FFF7F0FF204610BD064C074D06E0E06860
:10B5000040F0010394E8070098471034AC42F6D3AA
:10B51000FFF77AFF50D5010070D501002DE9F04703
:10B520000025DFF8F090A8464FF4807601242F46DE
:10B53000304601F01DFC38B1D9F80403204203D095
:10B54000304601F00BFC2543361D64007F1CB6B26B
:10B55000082FEDD34FF4BE74204601F009FC38B13A
:10B56000204601F0FBFB2C4845F00045D0F8008058
:10B570002A4E15F0FF0F14D0012700242F420CD0C3
:10B5800009EB8401D1F81005D1F81015C0F304209F
:10B5900056F82420C1F3014190477F00641C082C19
:10B5A000ECD3002D32DA0024B14609EB04004E46FC
:10B5B00090F95010491C26D090F8507027F0C00523
:10B5C000284600F069FE56F82060E6B1BF09012068
:10B5D000A840A90001F1A041D1F8001710EA080F16
:10B5E000C1F3014102D0022902D00CE003290AD1A3
:10B5F000032F05D102290BD00221284601F09FFB21
:10B6000039462846B047641C042CCED3BDE8F087E9
:10B610000321F2E70060004010050050D421002013
:10B6200000F01F02012191404009800000F1E0205C
:10B63000C0F88012704700F01F02012191404009BC
:10B64000800000F1E020C0F80011704700F01F02F8
:10B65000012191404009800000F1E020C0F8001273
:10B6600070474907090E002806DA00F00F0000F1C4
:10B67000E02080F8141D704700F1E02080F80014ED
:10B680007047000007480021C0F84011C0F844117D
:10B69000C0F84811C0F84C11C0F80011C0F80411EE
:10B6A00001F01CBD0010014001F0B4BC074810B50A
:10B6B000406830B18047002807D0BDE8104000F056
:10B6C000EDBABDE8104000F035BF10BD581F002096
:10B6D00070B58D480023021D0178101D0124062934
:10B6E00007D115782D0704D10578C5F30315032D6F
:10B6F00002D0062904D00FE0854E844D75670EE018
:10B7000015782D0708D10578C5F30315032D06D04C
:10B71000042D04D0052D02D0062909D010E04FF0E9
:10B720008055D5F844527B4EC5F34235356002E072
:10B7300015782D0704D10578C5F30315032D02D024
:10B74000062906D011E0744D2E6826F080762E6012
:10B750000EE015782D0708D10578C5F30315032DE4
:10B7600006D0042D04D0052D02D006290AD011E000
:10B770004FF08045C5F80C31C5F81031654D2D1FCF
:10B780002B6002E015782D0704D10578C5F3031569
:10B79000032D02D0062905D00CE05E4A0321643255
:10B7A00011600AE015782D0704D10578C5F303155B
:10B7B000032D02D006290DD06AE0584A05211160F8
:10B7C000564978310C60554908310B603F21121DF4
:10B7D000116002E0117809075AD10078C0F3031014
:10B7E000052855D14E4800684E4908604C48001D58
:10B7F0000068091D08604A4808300068091D086093
:10B8000047480C300068091D086045481030006842
:10B81000091D0860424814300068091D086040484E
:10B82000183000683F49203108603D481C300068EE
:10B83000091D08603A4820300068091D0860384832
:10B8400024300068091D0860354828300068091D4B
:10B85000086033482C300068091D086030483030DB
:10B8600000683049403108602D4834300068091DB7
:10B8700008602B4838300068091D086028483C30B3
:10B880000068091D0860264840300068091D0860EE
:10B8900021487438016841F470010160BFF34F8F93
:10B8A000BFF36F8F4FF01021D1F80002002803DBA7
:10B8B000D1F80402002822DA1B4A14601B480468ED
:10B8C000002CFCD01524C1F800420568002DFCD0E6
:10B8D000C1F8044201680029FCD013600168002906
:10B8E000FCD0BFF34F8F0C48F0380168104A01F4C8
:10B8F000E06111430160BFF34F8F00BFFDE70E49C8
:10B900000C48086070BD0000E00F00F00DF0ADBA0B
:10B9100000C007403C050040FCED00E01056004030
:10B920000404001020C5004004E5014000E401408B
:10B930000400FA050090D0030C1F00200348007F8C
:10B9400008B101F0B5BC01F02FBC00002C22002092
:10B9500002E008C8121F08C1002AFAD170477047D8
:10B96000002001E001C1121F002AFBD170472DE920
:10B97000FC5F0025168807461580406B14468946F3
:10B98000A8464FF00C0A11234FF0020B98B1017832
:10B990004846032E48D380F800B02288521C92B249
:10B9A000228083542288521C92B2228009F802100D
:10B9B0002088401C20803A6BDAB12088494600F18B
:10B9C0001205B54230D80B5420881023401C80B299
:10B9D00020800B542088401C20800F202388155C79
:10B9E000401ECD54238840B25B1C23800028F5DA2A
:10B9F000454697F82E0030B133462246494600F0BE
:10BA0000DFFD050011D197F82D0030B132462146F7
:10BA1000484600F0B5FA050007D1B87820B3208871
:10BA2000C846001DB04202D95046BDE8FC9F68469A
:10BA300079DF0028F9D12188032008F80100208847
:10BA40001921401C80B2208008F800102088401C7A
:10BA500080B2208000EB0801BDF8000001F094FCEA
:10BA60000146208808442080F878B8B1228897F9E8
:10BA70000310D31C4846B342D6D800F802B022883F
:10BA80000123521C92B2228083542288521C92B20B
:10BA9000228009F802102088401C20807868B8B104
:10BAA000218890F90020CB1C4846B342BCD800F84E
:10BAB00001B021880A23491C89B22180435421887E
:10BAC000491C89B2218009F801202088401C20806F
:10BAD000388950B1CDE900464B460622022107F1D4
:10BAE000080001F0BDFC05009FD1388A50B1CDE9B6
:10BAF00000464B460722032107F1100001F0B0FC7D
:10BB0000050092D1388B50B1CDE900464B46152245
:10BB1000142107F1180001F0A3FC050085D1386A53
:10BB200030B133462246494600F014FC0500DBD113
:10BB3000786A30B133462246494600F043FF05009B
:10BB4000D2D197F82C0038B13346224649463846C0
:10BB500001F0DAF90500C7D1387838B1334622460A
:10BB60004946384600F060FF0500BDD128465CE735
:10BB700010B586B018216846FFF7B3FC00244FF4D7
:10BB80008040ADF81000B420ADF812008DF80040F0
:10BB900001948DF80840684673DF08B100F07EF824
:10BBA00003494FF400300860081D046006B010BD62
:10BBB0000805005070B50024084D05E0686810F8CD
:10BBC000340000F09BFF641C28788442F6D30448BC
:10BBD0000068BDE8704000F005B90000241F002097
:10BBE00048D5010070B50024064D06E068680121C3
:10BBF00010F8340000F0A6FF641C28788442F5D3C6
:10BC0000002070BD241F0020F8B515460C460646DE
:10BC1000052A01D20720F8BD01F076F818B901F025
:10BC200049F80028F7D1104900204E600C70C1E996
:10BC300002500E4D08610DE006EBC40069680091EA
:10BC400081788DF801100078094A694600F0CCFF30
:10BC50000028E0D1641EE4B2EED2BDE8F840054A07
:10BC60000021024800F024B8241F002048D501001C
:10BC7000DDC401003DC40100BFF34F8F05480168DA
:10BC8000054A01F4E06111430160BFF34F8F00BF2B
:10BC9000FDE700000CED00E00400FA050EB5002100
:10BCA0000091CDE901106A4644F20100FFF7E4FF7C
:10BCB000074B9B6823B12AB120B10068037C1BB1FC
:10BCC0000820704707207047417442610020704788
:10BCD000381F00202DE9F0478046994614460F464C
:10BCE00090074FF0000634D11C4D8CB301F0BEF824
:10BCF0000320C5F81490287004F11800002107EB08
:10BD00004703AC6004EBC102491C16705670977073
:10BD1000506000EBC3000329F4DBEE606E70AE7080
:10BD20001420FFF77DFC03211420FFF79AFC142058
:10BD3000FFF781FC0A49C1F8008003211120FFF7B9
:10BD400090FC0748001F006828610020BDE8F087CC
:10BD500001E00720FAE7AE60FBE70000381F002093
:10BD6000081501402DE9F843DFF870900D4617469D
:10BD7000D9F80810044651B34CB3052D02D2072060
:10BD8000BDE8F883606910B3607C012821D00026EB
:10BD900001F030FBD9F80810804601EBC800694675
:10BDA00001F04AFBB8B1012100F8041B0C4910C096
:10BDB000096880E8E200D9F8081001EBC8009DF896
:10BDC000001041701420FFF741FC0020D8E7082044
:10BDD000D6E72E46DCE70420D2E70000381F00201B
:10BDE00004150140F8B5124E0446B168E1B1DCB16A
:10BDF0006069C8B10027277401F0FCFA0546B068F5
:10BE0000694600EBC50001F017FB78B10221017013
:10BE10004460B0689DF8001000EBC500417014202C
:10BE2000FFF714FC3846F8BD0820F8BD0420F8BD23
:10BE3000381F0020F0B50C4693B01F210726ADF83F
:10BE40000010ADF80410002750B1C17849070DD596
:10BE50006A4602A9FFF78BFD002808D102AD02E077
:10BE60000025ADF800706CB1E07810B1304613B029
:10BE7000F0BD01AA0AA92046FFF779FD0028F6D1F6
:10BE80000AAA02E00022ADF80470BDF80400C3B2B3
:10BE9000BDF80000C1B2284672DFE8E770B505467C
:10BEA00001461C220F48FFF703FB0F4C00262670AB
:10BEB000286830B1016861604068A060201D7ADFA9
:10BEC00002E00948001D7BDF00280AD14FF6FF7011
:10BED00060806670BDE87040044A00210448FFF7A6
:10BEE000E7BE70BDB8210020101F002095D30100CF
:10BEF00034D5010070B5204C068800251D49E28923
:10BF0000102E15D01D4B112E1ED0122E2BD0502EC0
:10BF100019D130F8061F914215D1018B022912D197
:10BF2000807E10F0010F13D0BDE8704000F058BAC9
:10BF300083884B80D0F81630CB60D0F81A000861A7
:10BF40004D70002AF0D070BD4FF6FF7048804D70E4
:10BF50001868FFF747FF0028F5D0A1690029F2D043
:10BF6000BDE87040084750F8062FCA604068086175
:10BF7000DAE70000101F0020B821002034D50100AE
:10BF80007CB5054608880C460930904201D90C2042
:10BF90007CBD684671DF0028FAD1218808206854EA
:10BFA00020881B21401C80B2208029542088401CFE
:10BFB00080B220802844DDF801100160BDF8051032
:10BFC00081802088801D80B220809DF8001001B102
:10BFD000012129542088401C208000207CBD0000C5
:10BFE00010B5044600F0DCFE2046FFF783FF214633
:10BFF000BDE81040014800F031B800007C2100206D
:10C0000030B5044685B04FF6FF70A082124B086829
:10C010000D46A0610FCB8DE80F0004F112016846B8
:10C0200063DF002816D1A07C8DF8120041F2235066
:10C03000ADF81000224604A90120A0DF002809D194
:10C040002946204600F076F8002803D129462046EC
:10C0500000F0E0FA05B030BD38D501000A88102A9A
:10C0600010D0112A10D0502A11D131F8062F438850
:10C070009A420CD10A8B012A09D18269002A06D082
:10C08000897E1047898801E04FF6FF7181827047F1
:10C0900003B585B0012100220092ADF81010019285
:10C0A000029203928DF802104189ADF8001006A9A2
:10C0B000039104A90291808A6946A6DF07B000BDFA
:10C0C00000B587B0002348221749082000F08AFFF6
:10C0D00008B1FFF7E3FD6A460121002000F06CFF84
:10C0E00008B1FFF7DBFD114800F006FF08B1FFF7CC
:10C0F000D5FD684600F056FF08B1FFF7CFFD05A853
:10C1000071DF08B1FFF7CAFD05A9002070DF08B193
:10C11000FFF7C4FD064800F03BFF002801D0FFF701
:10C12000BDFD07B000BD000034210020001E00202E
:10C13000E1BF010030B58FB00024054607949DF89B
:10C140001C001C2120F00F00401C20F0F0001030DB
:10C150008DF81C009DF81D0020F00F00401C20F001
:10C16000F00010308DF81D009DF81E0020F0060034
:10C17000801C8DF81E006846FFF7B3F99DF800009B
:10C18000019440F012008DF8000007A8CDE90440AA
:10C1900003940694A87C8DF83A0041F22450ADF83F
:10C1A00038000D949DF83400142120F00F00401C3D
:10C1B00020F0F00010308DF834009DF8350020F0AC
:10C1C000FF008DF835009DF8360020F00600801C39
:10C1D00020F019008DF8360008A8FFF782F90EA8A4
:10C1E00008900DA809900120ADF82800ADF82A406C
:10C1F000ADF82C000C94288805F10A0308AA6946BA
:10C20000A2DF0FB030BD000010B50D280AD10848DC
:10C21000FFF73EFF002809D0A0F54051023905D0B4
:10C22000082803D0BDE81040FFF738BD10BD00005E
:10C230007C21002005494FF0FF32082841F82020DA
:10C2400002D3084480F8482070470000D421002021
:10C25000F0B54FF0FF3512B10023082601E00823A6
:10C260000C260C4C05E000BF54F823707F1C04D052
:10C270005B1CB342F8D32846F0BD26185DB286F8A1
:10C28000305044F82310002AF5D1E11881F8480015
:10C29000F1E70000D42100200249084490F9300061
:10C2A00070470000D42100202DE9F05F2648C168C6
:10C2B000F1B3DFF898B00E688146DBF800400769FB
:10C2C000C078E11B21F07F45ED1CB0B9DFF880801C
:10C2D0004FF48030C8F84403C8F804031120FFF776
:10C2E0009FF91120FFF7A7F94FF0010AC8F800A045
:10C2F0002F20FFF78FF889F803A0B54200D235460A
:10C30000124BE8193C3320F07F401860DBF8001036
:10C310005A46091B21F07F41001B20F07F40C91CB9
:10C3200081420FD9106818602F20FFF773F800E0E2
:10C3300004E0BDE8F05F1120FFF788B9BDE8F05FC9
:10C3400000F094BDBDE8F09F381F002004150140A7
:10C35000001001402DE9F04117880646B81D14462B
:10C360000D46984202D90C20BDE8F08131880722A1
:10C3700006290AD34FF4486C4FF6FF73614501D983
:10C38000994202D17088062801D21046ECE7604538
:10C3900001D99842F9D1994203D0984201D0814203
:10C3A000F3D80520E85520881221401C80B2208057
:10C3B00029542088401C80B220804119308800F028
:10C3C000E3FF2188084480B220804119708800F082
:10C3D000DBFF2188084420800020C5E7FFF75EBC12
:10C3E000F8B5134800F0DEF8114D0026114C0C3D55
:10C3F00030B16169B9B101208DF80000684611E0E3
:10C40000287820B1616971B18DF80060F6E768782D
:10C4100058B1A168084800220068FFF7A3FC10B1DA
:10C42000A16901B188472E70F8BD6168F2E700008C
:10C430001C1F0020B821002034D501002DE9F04157
:10C4400000260125144C22E06068226900EBC60733
:10C45000387805FA00F1114217D08A43226100F0C2
:10C460001FFC02463878E36805FA00F1194002FA29
:10C4700000F3994209D17978012901D0012100E026
:10C48000002151407A6802B19047761CF6B22078BC
:10C490008642D9D3BDE8F081241F00200E4910B593
:10C4A0004A788C780023A24212D0521CD2B24A7031
:10C4B000022A00D14B70084A4B78183252F82320D8
:10C4C00002600869104420F07F400861012010BD1F
:10C4D0000360002010BD0000381F00202DE9F0414E
:10C4E000124E07460125BD403068FFF77BFC00284F
:10C4F0000DD10F4C2069284207D1384600F0D0FBFF
:10C500000028E06805D0284304E0A8432061BDE886
:10C51000F081A843E060206928432061A168306869
:10C52000BDE8F0410022FFF71DBC000048D5010026
:10C53000241F0020F8B51A4C207800282ED020693E
:10C5400028B10026E06820B1002526B110E00126C0
:10C55000F8E70125F9E7684652DF052803D020B146
:10C56000FFF79CFB04E0012602E021690098884760
:10C5700085B96088ADF800006946A06861DF0528CC
:10C5800003D020B1FFF78AFB04E0012502E0D4E9E3
:10C5900002018847002EDED0002DD6D0F8BD000065
:10C5A000581F0020054940880A88904204D34988D2
:10C5B000884201D80120704700207047141F0020D6
:10C5C00030B51488E51C9D4201D90C2030BD0225F0
:10C5D0000D5513881C245B1C9BB21380CC5413880C
:10C5E0005B1C9BB21380012807D0022807D00328C8
:10C5F00007D0042807D0072030BD002004E0012028
:10C6000002E0CD5401E00320C8541088401C108083
:10C61000002030BD30B58FB005461C216846FEF7BE
:10C6200060FF00249DF80000019440F00A008DF89E
:10C6300000000394049405940694A87C8DF83600B9
:10C6400041F22550ADF834000C949DF830001421CF
:10C6500020F00F00401C20F0F00010308DF830006A
:10C660009DF8310020F00F00401C20F0F000103049
:10C670008DF831009DF8320020F00600801C20F07B
:10C6800019008DF8320007A8FEF72BFF0DA80790C0
:10C690000CA808900120ADF82400ADF82640ADF8B4
:10C6A00028000B942888AB1C07AA6946A2DF0FB0AC
:10C6B00030BD000010B5044B00204FF400321C1DAB
:10C6C0001A60206010BD0000080500502DE9F047F9
:10C6D000DFF8ACA0DAF80C009AF8004080469AF82F
:10C6E0000460DAF80890DAF810703AE009EBC40553
:10C6F0002A7833E002EB42016B68521C03EBC10164
:10C70000AB78D2B2934200D100220B78022B02D038
:10C71000032B23D11FE0D1F804C00346014603E0F8
:10C72000614503D00B46C969C1B1F9E7B1B18B428C
:10C7300005D1C06918B9134F0126BE600027D1F892
:10C7400000C0C969D96149B10B6863440B6005E059
:10C750000174C06900E000210028F9D16978914294
:10C76000C8D1641EE4B2C1D2CAE903078AF80460E2
:10C77000404502D00120BDE8F0870020FBE7000023
:10C78000381F0020001001402DE9F04705462F48D2
:10C79000002680460778D0F80C904BE0D8F80800C7
:10C7A00000EBC70440E002D02846ED691EE0207887
:10C7B000616800EB4002401CC0B201EBC201207076
:10C7C000A278904200D126700A784868012A2DD1BB
:10C7D000027C5ABB8A684260CA6882600A69C26089
:10C7E0004969816198F8041001B146604268D8F83F
:10C7F0001030DFF85CC0D11A21F07F41614502D2D0
:10C800008268114406E0991A826821F07F418A42C9
:10C8100002D9511A016000E006604660012186607D
:10C820000174C66100F03CFC002DBCD12078617819
:10C830008842BCD17F1EFFB2B0D2D8F80C10494557
:10C8400002D00120BDE8F0870020FBE7381F002060
:10C85000FFFF7F009EB0012047DF00200125032657
:10C8600005FA00F111F4C02F04D0810001F1A041BC
:10C87000C1F80067401C2028F2D346494FF4C0207D
:10C8800008600024081D04602346434A0521204611
:10C89000FFF720FA08B1FFF701FA40F266620121C2
:10C8A0003E48FFF7B1F908B1FFF7F8F9FFF708FCC8
:10C8B0009DF808003AA120F00F00401C20F0F00085
:10C8C00010308DF808000D2202A87CDF08B1FFF7B8
:10C8D000E5F900945020ADF80000A0200194ADF8D7
:10C8E0000200ADF804404FF4C870ADF80600684689
:10C8F0007ADF08B1FFF7D2F92D48009069462D483C
:10C90000FFF77EFB08B1FFF7C9F92B483821006813
:10C910001C902848807C8DF872006846FEF7E1FD87
:10C9200002208DF800008DF8025006208DF80300DB
:10C9300038210EA8FEF7D5FD1CA81390ADF848507D
:10C940000EA96846FFF776FA08B1FFF7A7F91C2190
:10C950006846FEF7C6FD4FF42020CDE90040801068
:10C9600002901648059016488DF80C600690ADF8B8
:10C970000E408DF810406846FFF790FA08B1FFF7B7
:10C980008DF9FFF7F5F848DF0028FCD0FFF786F9AE
:10C99000F9E70000080500506C1F0020041F00206C
:10C9A0004E6F726469635F426C696E6B7900000060
:10C9B000B5C601007C21002030D5010021CE010048
:10C9C000DDC3010070B5144682880E4605462088F6
:10C9D000111D0144921C994201D8FE2A01D90C2054
:10C9E00070BD521C32542088FF21401C80B2208030
:10C9F00031542088401C80B220808119288800F0A2
:10CA0000C3FC2188084480B22080AA8842B1A9686A
:10CA100041B13044FEF74CFD2088A98808442080AD
:10CA2000002070BD072070BDF8B50E460178144691
:10CA30000546012901D1687830B12088821C9A42CC
:10CA40002DD8012902D006E00720F8BD69780144FD
:10CA5000891C994223D8181A801E87B2ADF800703D
:10CA60002188B01C084469467DDF0028EDD1287874
:10CA7000022805D1BDF80010B94201D809210AE009
:10CA80000821012805D16878B84202D8ADF8000025
:10CA900001E0ADF80070BDF80000FE2801D90C20BF
:10CAA000F8BD2288401CB0542088401C80B22080F1
:10CAB00031542088401C2080BDF80010084420809C
:10CAC0000020F8BD4907090E002806DA00F00F0221
:10CAD00002F1E02282F8141D03E000F1E02282F866
:10CAE000001400F01F02012191404009800000F174
:10CAF000E020C0F88012C0F80011704710B504465D
:10CB000000F09CF928B12046BDE81040002100F05B
:10CB100016B9204600F09EF900280FD02046FFF7F6
:10CB2000BBFB074A02EB8001D1F8103523F001036B
:10CB3000C1F8103501218140C2F8081310BD000072
:10CB4000006000402DE9F0478846814600F076F904
:10CB50000124224E0028484618D0FFF79DFB3044A0
:10CB600090F848008009032802D0012806D007E089
:10CB70001B48006804FA09F4204201D1022100E0B8
:10CB800003214846BDE8F04700F0D9B800F062F94B
:10CB9000002820D04846FFF77FFB0546114F4FF491
:10CBA000807007EB850100EB8500D1F8102580B27D
:10CBB00042F00102C1F8102500F0D0F8B8F1000FE2
:10CBC00009D04846FFF768FB56F82000002802D03D
:10CBD000AC40C7F80443BDE8F0870000D421002032
:10CBE00010050050006000402DE9FC41DFF8A480F2
:10CBF000044608EB0400002790F930001346C017E4
:10CC00000E46401C01D0082740E0F2781946204625
:10CC1000FFF71EFB0546401C37D0B07848B1A00096
:10CC200000F1A040D0F8001721F00201C0F8001771
:10CC300007E000217378204600910A46019100F038
:10CC40006DF8F078C0B11448317800EB8500D0F869
:10CC50001025124B1A40C0F810254FF4F8524FF42B
:10CC6000403302EA042203EA01410A43D0F81015D6
:10CC70000A43C0F8102509E008EB0500327810F8E7
:10CC8000481F41EA8211017000E004273846BDE8E0
:10CC9000FC810000D421002000600040FFE0FCFF88
:10CCA00003490968C14011F0010000D0012070471C
:10CCB0001005005070B5124D95F8540008B10820C9
:10CCC00070BD0020411E2A18401CC0B282F83010EE
:10CCD0002028F8D300242046FFF7ACFA641CE4B205
:10CCE0000C2CF8D303210620FFF7ECFE05494FF08A
:10CCF0000040C1F80403012085F85400002070BDF5
:10CD0000D421002000600040034890F8540000281F
:10CD100000D0012070470000D421002030B541EA46
:10CD20004201DDE9034541EA8301800041EA042133
:10CD300000F1A04041EA0541C0F8001730BD800075
:10CD400000F5E06000F1A040026822F44032026089
:10CD5000026842EA0141016070470000034908B5DA
:10CD60000844002101600068009008BD0060004098
:10CD700002494058012800D0002070470060004060
:10CD80004058002800D001207047D0F80403084024
:10CD900000D0012070474058002800D00120704783
:10CDA00070B51D49068800220B1D1C4C4FF48025D0
:10CDB000102E0CD0112E15D02046132E00881FD017
:10CDC000522E27D100231A461946A9DF1CE00D6018
:10CDD0001A604FF400350D601A6080882080FEF7DD
:10CDE00001FF11E00D601A604FF6FF702080FEF722
:10CDF000E1FE08B1FEF752FFBDE87040FEF7B8BE95
:10CE000000231A4685217FDF002803D0BDE870404B
:10CE1000FEF744BF70BD000008050050001F002051
:10CE20000078002807D104483B21008876DF0028DD
:10CE300001D0FEF733BF7047001F002004490844AB
:10CE400090F93000082801DB01207047002070476E
:10CE5000D42100200449084490F93000082801D268
:10CE60000120704700207047D421002070B50126B2
:10CE700070044FF0E0210025C1F88001084C4010FB
:10CE8000C4F84803C4F8080366602F20FEF7C2FA0E
:10CE9000A660044C2F202561FEF7BCFAE57070BD3A
:10CEA00000100140381F002009480A490022C37DB4
:10CEB000C1F8082143B1D1F81815437EC268D15496
:10CEC000417E491C41767047D1F818057047000033
:10CED0002C220020002000401FB501228DF8080000
:10CEE00004488DF800200191D0E90012684690476F
:10CEF0001FBD00002C22002008B50249002000912F
:10CF000008BD0000001F00202DE9F0410746806A9F
:10CF100014468846C8B3002531E000BFB96A05EB66
:10CF2000450001EB8006B088801CFE2802D90C2049
:10CF3000BDE8F0812288401C08F8020020881622F3
:10CF4000401C80B2208008F800202088401C80B25D
:10CF5000208000EB0801308800F016FA2188084490
:10CF600080B22080B28842B1B16871B14044FEF70E
:10CF70009FFA2088B188084420806D1CEDB297F894
:10CF80002C00A842CAD80020D2E7FFE70720CFE74D
:10CF900018B10349C860002070470E207047000098
:10CFA000581F00201CB5034901910091694660DFBC
:10CFB0001CBD0000001F002070B50E46054614463B
:10CFC00014211046FEF78DFA0120208000212161F6
:10CFD00021732672657205B1A072002070BDFEF744
:10CFE0004BBE000070B509B18C0701D0072070BDA1
:10CFF000064C0125A16062800549636010DF0028AE
:10D00000F5D1257016202EDF70BD0000581F0020BE
:10D01000DFCF01002DE9F84F204C00256846D4E908
:10D0200003B6FFF73BFA8046FFF750FB0746A946D9
:10D03000B8F1000F25D00023009ACC46E06819E033
:10D0400007680146974202D9BA1A026014E0C1F893
:10D0500000C0D1F80C80D21BC8693B448A46B8F1A5
:10D06000000F07D0F71827F07F47C1E90178CAF809
:10D070001C500D460028E3D1E0602846FFF784FBF2
:10D0800004E02846FFF780FB00B917B15846FFF7C8
:10D090000BF984F80490BDE8F88F0000381F0020D9
:10D0A0000D4B10B5D96831B102680C68A24204D8A2
:10D0B000A21A0A60C161D86010BD0B4603E00B469E
:10D0C000C969121B21B10C689442F8D3A41A0C60F0
:10D0D0000260C161D86110BD381F00202DE9F04108
:10D0E0001D4DEC68002C35D01C48002700682969CC
:10D0F000B846401A20F07F462068B04215D8224634
:10D10000361A0744E469107C68B182F810806B69B4
:10D1100033B1D2E90501984728B1FEF7BFFD02E01F
:10D12000D2E905108847002CE6D16978A8788142B9
:10D1300006D1401CC0B2A870022801D185F8028037
:10D140000548A978183040F82170BDE8F041142056
:10D15000FEF77CBABDE8F081381F002004150140BD
:10D16000064A0020C2F81C010548838A8168C95C10
:10D17000838A5B1C8382C2F81C1570470020004024
:10D180002C2200201FB500218DF8080005488DF8DD
:10D190000010826801928175D0E9001268469047BC
:10D1A0001FBD00002C2200202DE9FF413E4D4FF411
:10D1B00000712846FFF7E9FD01273C4C4FF4017848
:10D1C000002600B34FF492712846FFF7D9FDD0B185
:10D1D000C5F82461C5F80883A07E00B96F600220FD
:10D1E0008DF80000D5F88004C5F880040390E07D38
:10D1F0008DF80800E0680190E6752676D4E9001203
:10D200006846904724E004212846FFF7BEFDF8B1A8
:10D210004FF484712846FFF7B3FDC8B1FFF744FE11
:10D22000E07D617E884213D1227E3AB1607EE16862
:10D23000E2752269E2602676667607E0A07E00B994
:10D240006F60C5F80883E675607EE168FFF744FE0D
:10D250004FF48E712846FFF793FD58B1A18AA07D47
:10D26000814202D2FFF77CFF04E0C5F81C6108B1DF
:10D27000FFF788FF4FF4A2712846FFF781FD0028D1
:10D280000FD0C5F84461A07E00B12F60E07D00287A
:10D2900007D0E675607EE16804B0BDE8F041FFF7B5
:10D2A0001BBEBDE8FF810000002000402C220020B2
:10D2B0007FB5334C4FF492712046FFF76CFD314D32
:10D2C0000026B0B1C4F8246102208DF80000D4F823
:10D2D0008004C4F880040390D4F83C058DF808005D
:10D2E000E8680190EE752E76D5E900126846904701
:10D2F0001FE04FF488712046FFF74DFDC8B1C4F818
:10D300001061D4F83C05E97DC0B2814211D12A7E7A
:10D310005AB1E968D4F8003223F02003C4F800328F
:10D32000EA752A69EA602E7601E0EE75E968FFF792
:10D33000D3FD4FF4A2712046FFF72DFD50B1C4F884
:10D340004461E87D30B1EE75D4F83C05E968C0B2BF
:10D35000FFF7C2FD4FF490712046FFF71CFD002837
:10D360000CD0C4F82061A87D002807D0D4F84C0563
:10D3700004B0C0B2BDE87040FFF704BF7FBD00003D
:10D38000002000402C2200200870000A4870022073
:10D390007047000038B515494888A0F57F42FF3A2C
:10D3A00023D04A78124C521CD2B24A70237B93424B
:10D3B0000AD3091D75DF002817D0A169002914D0F0
:10D3C00001B0BDE83040084700254D70217C29B1EF
:10D3D0003B2176DF10B1A16901B18847616900295D
:10D3E00003D08DF800506846884738BD101F0020D4
:10D3F000B82100200F480068C005C00D13D01038B8
:10D4000040B2002806DA00F00F0000F1E02090F8AA
:10D41000140D03E000F1E02090F800044009012819
:10D4200003D0032803D0022070470020704701205A
:10D430007047000004ED00E042788378521CD2B2BD
:10D44000934200D100220378934201D1002070471B
:10D450000A704168407800EB400001EBC000704763
:10D460002DE9FC411646DDE90854CDE900541F467C
:10D470008046022200F00CF8002807D1CDE90054C4
:10D480003B4610223146404600F002F8BDE8FC81E0
:10D490002DE9FC5F0026DDE90C4B994692468E464D
:10D4A00080462788354630E0D8F80400002200EB9B
:10D4B000850069460068019001A865DF002830D129
:10D4C0009DF8000050451FD10EB1002100E002215F
:10D4D000228808441118594522D846B9521C90B2E6
:10D4E000208009F800E02088401C20800126218847
:10D4F00001A801EB0902694665DF002811D12088E7
:10D500009DF80010084420806D1CB8F80000A84267
:10D51000CADC56B12088C01B401E80B2FF2802D949
:10D520000C20BDE8FC9F09F807000020F9E7000087
:10D53000231500009821002023D1BCEA5F78231531
:10D54000DEEF1212000000004C2200200300000059
:10D5500070D50100001F00206C00000050B90100D0
:10D56000DCD501006C1F00200423000060B901001D
:10D57000FFFF00000D00030009C201000090D0036E
:10D58000000000000000000000000000000000009B
:10D59000000000000000000000000000000000008B
:10D5A000000000000000000000000000000000007B
:10D5B000000000000000000000000000000000006B
:10D5C000000000000000000000000000000000005B
:0CD5D0000000000000000000000000004F
:040000050001B40141
:00000001FF
