:020000040001F9
:10B00000F04600207DB5010085B5010087B501003F
:10B0100089B501008BB501008DB50100000000006D
:10B020000000000000000000000000008FB50100DB
:10B0300091B501000000000093B5010095B5010035
:10B0400097B5010097B5010065BF010099BC0100EB
:10B0500097B5010097B50100A9BA010097B50100A5
:10B0600097B5010097B5010097B5010097B50100AC
:10B0700097B5010097B5010097B5010097B501009C
:10B0800097B5010065BC010097B5010097B50100B7
:10B09000ADBC010097B50100B5BC010097B501003A
:10B0A00097B5010097B5010097B5010097B501006C
:10B0B00097B5010097B501000000000000000000F6
:10B0C00097B5010097B5010097B5010097B501004C
:10B0D00097B5010097B5010097B501000000000089
:10B0E0000000000000000000000000000000000060
:10B0F0000000000000000000000000000000000050
:10B10000000000000000000000000000000000003F
:10B11000000000000000000000000000000000002F
:10B40000DFF80CD000F03EFB0048004729F60100B1
:10B41000F0460020401E00BF00BF00BF00BF00BFBD
:10B4200000BF00BF00BF00BF00BF00BF00BF00BF24
:10B4300000BF00BF00BF00BF00BF00BF00BF00BF14
:10B4400000BF00BF00BF00BF00BF00BF00BF00BF04
:10B4500000BF00BF00BF00BF00BF00BF00BF00BFF4
:10B4600000BF00BF00BF00BF00BF00BF00BF00BFE4
:10B4700000BF00BF00BF00BF00BF00BF00BF00BFD4
:10B4800000BF00BF00BFC5D170470000401E00BF15
:10B4900000BF00BF00BF00BF00BF00BF00BF00BFB4
:10B4A00000BF00BF00BF00BF00BF00BF00BF00BFA4
:10B4B00000BF00BF00BF00BF00BF00BF00BF00BF94
:10B4C00000BF00BF00BF00BF00BF00BF00BF00BF84
:10B4D00000BF00BF00BF00BF00BF00BF00BF00BF74
:10B4E00000BF00BF00BF00BF00BF00BF00BF00BF64
:10B4F00000BF00BF00BF00BF00BF00BF00BFC5D17D
:10B5000070470000401E00BF00BF00BF00BF00BF6B
:10B5100000BF00BF00BF00BF00BF00BF00BF00BF33
:10B5200000BF00BF00BF00BF00BF00BF00BF00BF23
:10B5300000BF00BF00BF00BF00BF00BF00BF00BF13
:10B5400000BF00BF00BF00BF00BF00BF00BF00BF03
:10B5500000BF00BF00BF00BF00BF00BF00BF00BFF3
:10B5600000BF00BF00BF00BF00BF00BF00BF00BFE3
:10B5700000BF00BF00BFC5D170470000064880472C
:10B5800006480047FEE7FEE7FEE7FEE7FEE7FEE7C8
:10B59000FEE7FEE7FEE7FEE731BD010001B4010072
:10B5A00040EA01039B0703D009E008C9121F08C045
:10B5B000042AFAD203E011F8013B00F8013B521EC5
:10B5C000F9D27047D2B201E000F8012B491EFBD23C
:10B5D00070470022F6E710B513460A46044619469E
:10B5E000FFF7F0FF204610BD30B5044600200346AB
:10B5F00000E05B1C934203D2E05CCD5C401BF8D0C2
:10B6000030BD2DE9FE4F804681EA0300C00F0C4695
:10B61000009021F0004123F00045B8EB0200A94161
:10B6200005D24046214690461C460B46024623F072
:10B630000040104347D0270DC7F30A00C3F30A5157
:10B640000290401A019040286BDAC3F3130040F4D3
:10B65000801B0098924620B10023D2EB030A63EBD3
:10B660000B0B01985946C0F14002504600F07BF99F
:10B6700006460D4650465946019A00F093F910EBE4
:10B6800008006141002487EA115284EAE7731A43F3
:10B6900040D0009A62B3019A012A4FEA075215DCA2
:10B6A000001B61EB02014FF0004202EA0752CDE9B4
:10B6B0000042001C41F5801132462B4600F093F900
:10B6C00003B0BDE8F08F40462146F9E7001B61EB6F
:10B6D0000201001C41F5801300185B412018A2F5FF
:10B6E000001747EB030140EAD570B6196D4111E030
:10B6F0006D084FEA360645EAC0754FEA0752001B4F
:10B7000061EB0201001C41F5801149084FEA30004D
:10B710000019514132462B4603B0BDE8F04F00F00E
:10B7200053B90098012240000023D0EB020263EBE2
:10B73000E073009821464FEAE074B8EB000061EB3B
:10B740000401E9E783F000435BE781F0004158E73B
:10B750002DE9FE4F81EA030404F0004421F000418A
:10B7600000944FF0000B23F0004350EA01045ED038
:10B7700052EA03045BD0C3F30A54C1F30A552C44C4
:10B78000A4F2F3340194A0FB0254C1F3130141F479
:10B790008011C3F3130343F4801301FB024400FB45
:10B7A000034E840A970A44EA815447EA8357A4FB6C
:10B7B000076802958D0A05FB07854FEA932C04FB69
:10B7C0000C542705029D4FEA065847EA1637B5EB99
:10B7D00008056EEB070C870E920E47EA811742EAC6
:10B7E0008312A7FB0201B6EB0B0164EB00042B0DE7
:10B7F00043EA0C335E1844EB1C50DA465146E7FB33
:10B800000201C5F313044FEA0B3343EA14534FEA22
:10B810000432019C43EA0603A4F10C040294009C48
:10B82000CDE900B400F0DFF803B0BDE8F08F0020F0
:10B830000146F9E72DE9F04D81EA030404F0004BDD
:10B8400021F0004514464FF0000A23F0004150EA71
:10B85000050220D054EA01021DD0C5F30A57024662
:10B86000C5F31303C1F31300C1F30A5640F4801566
:10B8700043F48013A7EB0608101BD64608F2FD38E8
:10B8800073EB050002D308F1010801E092185B4157
:10B89000B8F1000F03DA00200146BDE8F08D00206A
:10B8A0004FF48011064684460EE0171B73EB050724
:10B8B00005D3121B63EB050306434CEA010C490850
:10B8C0004FEA300092185B4150EA0107EDD152EA8D
:10B8D000030012D082EA040083EA0501084305D080
:10B8E000101BAB4106D20122002306E000224FF0DC
:10B8F000004302E06FF0010253101AEB06004CEB1C
:10B90000085110EB0A0041EB0B01BDE8F04D00F0CF
:10B910005BB80EB5C10F80EAE0700844CA07002189
:10B9200040F233438DE80E000A460B4600F05BF808
:10B9300003B000BDC1F30A5210B5C1F3130140F2C8
:10B94000FF3341F480119A4201DA002010BD40F229
:10B9500033439A42A2F2334203DC524200F012F81F
:10B9600010BD904010BD202A04DB203A00FA02F1FD
:10B97000002070479140C2F1200320FA03F31943DD
:10B9800090407047202A04DB203A21FA02F000217F
:10B99000704721FA02F3D040C2F1200291400843DF
:10B9A00019467047202A06DBCB17203A41FA02F0ED
:10B9B00043EAE07306E041FA02F3D040C2F120020C
:10B9C000914008431946704710B5141E73F10004E6
:10B9D00008DA401C41F1000192185B411A4301D181
:10B9E00020F0010010BD2DE9F04D92469B4611B1AB
:10B9F000B1FA81F202E0B0FA80F220329046FFF70D
:10BA0000B2FF04460F4640EA0A0041EA0B015346E2
:10BA10005A46084313D0114653EA010019D0C8F121
:10BA200040025046FFF7AEFF05460E4650465946C7
:10BA30004246FFF798FF084305D0012004E0204666
:10BA40003946BDE8F08D0020054346EAE0762C43F8
:10BA500037430A986305E40AA0EB08000022FD0AB8
:10BA600044EA47540A3002D500200146E9E70105BF
:10BA700010196941DDE9084500196941BDE8F04D3B
:10BA8000A2E70000064C074D06E0E06840F0010325
:10BA900094E8070098471034AC42F6D3FFF7B4FCA3
:10BAA000D01E0200F01E02002DE9FE4F0026B14616
:10BAB0004FF4807002900125002412E0029804F0F7
:10BAC00061F840B100BF46480068284018B10298AC
:10BAD00004F04AF82E436D000298001D80B20290D7
:10BAE000641C082CEAD34FF4BE7004F04BF848B144
:10BAF0004FF4BE7004F038F846F0004600BF3948F5
:10BB000000688146F0B2F8B1012500241AE005EA88
:10BB10000600A8B100BF344850F82400C0F3042048
:10BB2000074600BF304850F82400C0F3014080466B
:10BB3000204601F047FD824641463846D04700BFC7
:10BB40006D00641C082CE2D306F00040002844D0AD
:10BB5000002440E025480057401C00283AD02348E4
:10BB600010F804A02AF0C007384601F033FD8046E3
:10BB700001F028FD0190019858B34FEA9A1B01206B
:10BB800000FA07F500BF1A4850F82700C0F301403B
:10BB9000804605EA090010B1B8F1020F05D005EAA8
:10BBA0000900A8B9B8F1030F12D1BBF1030F0BD1F3
:10BBB000B8F1020F01D1032000E0022000903846C6
:10BBC000009903F0A9FF00BF59463846019A9047F3
:10BBD00000BF00BF641C042CBCD3BDE8FE8F000076
:10BBE00004630040100500501065004098250020B7
:10BBF0000007005000F01F0201219140024A430952
:10BC000042F823107047000080E200E000F01F02BD
:10BC1000012191404209920002F1E022C2F8001194
:10BC20007047000000F01F0201219140024A4309C1
:10BC300042F823107047000000E200E010B5002831
:10BC400007DA4A07140E054A00F00F031B1FD454ED
:10BC500003E04A07130E024A135410BD18ED00E02A
:10BC600000E400E010B500200949086000210948FF
:10BC7000C0F84411C0F84811C0F84C110020054923
:10BC8000C1F8000102493C39086005F0A7FA10BD6F
:10BC9000401101400010014010B50249024803F074
:10BCA000DFFA10BDA02500200030004010B505F0DF
:10BCB00025F910BD70B50B48006880B109480068CF
:10BCC0008047044600BF25463DB100BF06A24FF4A1
:10BCD000BB71284600F09DFA00BF00BF01E003F0F1
:10BCE0004DFA70BDEC1F00205254455C6E52465F09
:10BCF000536F66744465766963655C6E524635328F
:10BD00003833325F787841415C736F66746465766E
:10BD10006963655F68616E646C65722E6300000024
:10BD200001480249086070470090D003501F00206E
:10BD300010B502F0D3FE10B17D487E49486702F08D
:10BD4000E5FE28B17C480068C0F342307B490860BA
:10BD500002F006FF28B17A48006820F08070784928
:10BD6000086002F015FF48B10020764908604FF0E6
:10BD70008041C1F810017149091F086002F032FFCB
:10BD800018B103206D496431086002F043FF68B1C7
:10BD900005206D49086001206B497831086000205A
:10BDA0006949083108603F20091F086002F04AFF16
:10BDB000002855D065480068654908606348001D43
:10BDC0000068091D0860614808300068091D0860A6
:10BDD0005E480C300068091D08605C48103000683F
:10BDE000091D0860594814300068091D086057484B
:10BDF0001830006856492031086054481C300068EB
:10BE0000091D0860514820300068091D08604F482E
:10BE100024300068091D08604C4828300068091D5E
:10BE200008604A482C300068091D086047483030D7
:10BE30000068474940310860444834300068091DB3
:10BE40000860424838300068091D08603F483C30AF
:10BE50000068091D08603D4840300068091D086001
:10BE600037487438006840F4700035497439086008
:10BE700000BF00BF00BFBFF34F8F00BF00BF00BFB8
:10BE800000BF00BF00BFBFF36F8F00BF00BF00BF88
:10BE90003048006800F0004030B92E48001D0068AE
:10BEA00000F00040002840D001202B49086000BF6E
:10BEB0002A4800680028FBD015202649086000BFEA
:10BEC000264800680028FBD015212248001D01608B
:10BED00000BF224800680028FBD000201E490860EF
:10BEE00000BF1E4800680028FBD000BF00BF00BF95
:10BEF00000BF00BFBFF34F8F00BF00BF00BF10489F
:10BF0000F038006800F4E06015490843001D0C4952
:10BF1000F039086000BF00BF00BFBFF34F8F00BF04
:10BF200000BF00BF00BF00BFFDE7FFF7F9FE10BD77
:10BF30000DF0ADBA00C00740440200103C050040BF
:10BF4000FCED00E00C01004010560040040400101D
:10BF500020C500400012001004E5014000E401404B
:10BF60000000FA0510B50448007F10B105F032FD5D
:10BF700001E005F07FFC10BDC825002002E008C8E4
:10BF8000121F08C1002AFAD170477047002001E053
:10BF900001C1121F002AFBD170472DE9FC41044664
:10BFA000884616460025378800203080606B68B1CF
:10BFB000616B08783B463246414604F079FB054602
:10BFC00000BF15B12846BDE8FC8100BF206B58B109
:10BFD0003B4632464146206B05F088F9054600BFD6
:10BFE0000DB12846EFE700BF94F82E0060B194F839
:10BFF0002E003B463246414603F00EFA054600BF8E
:10C000000DB12846DFE700BF94F82D0050B13A4645
:10C010003146404600F0EBFD054600BF0DB1284615
:10C02000D1E700BFA07850B13A463146404600F013
:10C0300041FA054600BF0DB12846C4E700BFE078CD
:10C0400060B1E17848B23B463246414602F03EFEDE
:10C05000054600BF0DB12846B5E700BF606868B16E
:10C06000616891F900003B463246414605F0E6FB27
:10C07000054600BF0DB12846A5E700BF208900286E
:10C080000EDD43460622022104F10800CDE90067D7
:10C0900005F0D8FD054600BF0DB1284693E700BF67
:10C0A000208A00280EDD43460722032104F11000F8
:10C0B000CDE9006705F0C6FD054600BF0DB1284675
:10C0C00081E700BF208B00280EDD43461522142196
:10C0D00004F11800CDE9006705F0B4FD054600BF86
:10C0E0000DB128466FE700BF206A58B13B46324683
:10C0F0004146206A01F05DFC054600BF0DB12846AF
:10C1000061E700BF606A58B13B4632464146606A0B
:10C1100003F062FB054600BF0DB1284653E700BFA0
:10C1200094F82C0000280BDD3B4632464146204661
:10C1300004F0D9FA054600BF0DB1284643E700BF19
:10C14000207858B13B4632464146204603F07FFBFB
:10C15000054600BF0DB1284635E700BF284632E747
:10C160000146C87800F0040008B907207047002095
:10C17000FCE7000030B599B038210BA8FFF729FA89
:10C1800002208DF82C0001208DF82E0006208DF85D
:10C190002F000220ADF83C0011491091242102A883
:10C1A000FFF717FA01208DF814004FF496700690EF
:10C1B000002007900B4B02AA014600900BA800F04C
:10C1C0000DFA044600BF25463DB100BF06A240F26D
:10C1D000B521284600F01DF800BF00BF19B030BDE2
:10C1E000041F002031FC01002E2E5C2E2E5C2E2E12
:10C1F0005C6D61696E2E630070B504460D4616468F
:10C200000C2000F0D9FE32462946204600F012F8F4
:10C2100070BDFEB504460E461546B0B2ADF800003E
:10C22000019502946A46002144F20100FFF7E4FF01
:10C23000FEBD000018B5012300939DF800301E4B91
:10C24000186059609A606FF48043034463B1012B16
:10C2500019D1194BDA60DB681B88174CA3612346A0
:10C26000DB685B68E3610EE0134B1A611B699B6836
:10C27000114C636123461B691B88A36123461B691C
:10C280005B68E36100BF00BF0B4B1B680A4B5B6838
:10C29000094B9B68084BDB68074B1B69064B5B69C6
:10C2A000054B9B69044BDB6972B600BF9DF80030FB
:10C2B000002BFBD162B618BDCC2600202DE9F04141
:10C2C00004460D461646044807683246294620466D
:10C2D000B847BDE8F0810000E4230020F8B505462A
:10C2E0000C462778A06800EB4000064951F8206012
:10C2F0000548006800902A46394604F10800236981
:10C30000B047F8BDB4260020C01F002010B5044679
:10C310000748007800EB80020548001D00EB820111
:10C320002046FFF7DBFF042004F0A8FA10BD000050
:10C33000E825002010B503460C4600BF0B480068F6
:10C3400008B9082010BD00BF0AB90720FAE70BB9E9
:10C350000720F7E71868007C08B10820F2E71968A1
:10C36000002008744C744A6100BFEBE7CC1F00202A
:10C370002DE9F04180460E4614461F46204600F047
:10C38000030109B9012100E0002111B90720BDE82E
:10C39000F08124B900201D4908600720F7E704F068
:10C3A00013F91B48076003201A49087017480460F6
:10C3B000183400250DE01549096801EBC50000217E
:10C3C000017041708670446006EB460104EBC104C5
:10C3D0006D1C032DEFDB00200F4908600F4908702A
:10C3E0000F4908701420FFF705FC03211420FFF704
:10C3F00025FC1420FFF70AFC404604F0BBF804F0CB
:10C40000B3F8084908600020C1E70000CC1F0020F5
:10C41000E41F0020C81F0020D01F0020E01F0020C4
:10C42000E11F0020D41F00202DE9F84304460D46EB
:10C430001746264600BF1148006810B90820BDE81D
:10C44000F88300BF0CB90820F9E7052D01D20720B9
:10C45000F5E7706908B90820F1E7707C012801D17F
:10C46000284600E00020804605F0A6FB81464346B2
:10C470002A463146009704F0DBFDE0E7CC1F0020A0
:10C4800070B50446254600BF0948006808B9082071
:10C4900070BD00BF0CB1686908B90820F8E700203A
:10C4A000287405F089FB0646294604F0EFFDEFE706
:10C4B000CC1F0020F8B505460C4617462088001D05
:10C4C000B84201D90C20F8BD684679DF064600BFA6
:10C4D0000EB13046F7E700BF03202188685420885A
:10C4E000401C20801920218868542088401C20800E
:10C4F00020884119BDF8000005F002FB218808449E
:10C5000020800020DFE7000070B500224FF4FA41E0
:10C5100008480068FFF788FF044600BF25463DB184
:10C5200000BF05A240F295112846FFF772FE00BF3A
:10C5300000BF70BD801D02002E2E5C2E2E5C2E2EA4
:10C540005C6D61696E2E63002DE9F04192B080460A
:10C550000D461F2011901090B8F1000F17D04046E3
:10C56000FFF7FEFD044600BF1CB1204612B0BDE837
:10C57000F08100BF11AA08A94046FFF70EFD04464E
:10C5800000BF0CB12046F1E700BF08AE02E0002674
:10C5900000201190ADB1284604F0F2F9044600BF26
:10C5A0000CB12046E2E700BF10AA69462846FFF713
:10C5B000F4FC044600BF0CB12046D7E700BF6F462D
:10C5C00002E0002700201090BDF84000C3B2BDF883
:10C5D0004400C1B23A46304672DFC7E72DE9F04762
:10C5E00004460F4615461E46DDF8208000BF14B9EC
:10C5F0000E20BDE8F08700BF00BF0DB90E20F8E7A0
:10C6000000BF002046490870464806604648C0F80A
:10C610000080242229464548FEF7C2FF00F03EF97B
:10C620004348444908604448886038214348FEF73D
:10C63000D0FF207841490870A0788870E078C870F1
:10C64000607848700846D4E90412C0E90412D4E9BD
:10C650000212C0E90212D4E90612C0E90612606AA9
:10C66000D8B137483549486236498160606A0088E8
:10C670003249496A0880606A80883049496A8880FE
:10C68000002005E0616A8968095C2E4A1154401C4B
:10C690002A49496A89888142F4D8A06A20B32A4984
:10C6A0002A4881602549886227492448806A816038
:10C6B000A06A80882149896A8880A06A00881F4909
:10C6C000896A0880002005E0A16A8968095C1E4A21
:10C6D0001154401C1949896A89888142F4D894F818
:10C6E0002C00164981F82C00206A58B118481349CB
:10C6F0000862206A4088096A4880206A00880F49D9
:10C70000096A0880606820B112480C494860606876
:10C71000486039460948FFF717FF8146484668E7F1
:10C720007C1F0020741F0020781F00204024002060
:10C730007424002064240020942400200824002075
:10C74000B4240020C0240020EC240020E024002099
:10C75000801F0020841F002070B504462088102808
:10C7600004D0112809D0192863D11BE0207D0128AD
:10C7700002D1A088304908805CE000202F49087071
:10C78000A0882D49098888420BD1012000F08EF83D
:10C79000054635B12A48006818B128462849096875
:10C7A000884747E0A079002842D126480078012830
:10C7B00006D0022811D003281CD0042836D129E045
:10C7C000022000F073F8054635B11D48006818B125
:10C7D00028461B490968884729E0032000F066F8CD
:10C7E000054635B11648006818B12846144909684D
:10C7F00088471CE0032014490870042000F056F814
:10C80000054635B10E48006818B128460C4909683C
:10C8100088470CE000200C4908700C48006820B1E3
:10C820000846007809490968884700E000BF00BF52
:10C8300000E000BF00BF70BD861F00207D1F0020EC
:10C84000781F00207C1F0020701F0020741F002014
:10C8500070B504460025022C02D0032C15D100E04F
:10C8600000BF0B48007878B10020094908700948DA
:10C87000007800F01BF8054635B10748006818B18C
:10C88000284605490968884700E000BF00BF70BD21
:10C89000681F00207C1F0020781F00200248002114
:10C8A0000160818081717047691F002030B587B0B9
:10C8B00005469848057000200090684603F0F8FA95
:10C8C0000446082C02D10020009003E014B1204659
:10C8D00007B030BD009820B101208F4908700020BA
:10C8E000F6E7FFF7DBFF8D48407818B189480078FC
:10C8F000012806D08948807888B1864800780228C7
:10C900000DD18748006838B1012086490870082099
:10C9100083490968884702E00020824908707D4801
:10C920000078012809D17D48407818B17E4803F08D
:10C9300069FA10B902207749087076480078022811
:10C9400009D17648807818B1774803F05BFA10B9BE
:10C950000320704908707148007B30B96D48007839
:10C96000032802D104206B4908706C48007E40B94E
:10C9700068480078042804D10020664908706B4993
:10C98000087067480068A8B162480078032803D09F
:10C990006048007804280DD16048007850B16448A0
:10C9A000007838B901206349087007205C4909689C
:10C9B000884702E000205F490870182101A8FEF7AF
:10C9C00008FE00208DF8040002908DF80C00049001
:10C9D00050480078012806D0022813D0032825D01B
:10C9E000042876D150E05048401E029001208DF876
:10C9F00004000020ADF81600ADF8140001204B49EA
:10CA0000087071E04848401E029001208DF8040033
:10CA10004248008980B2ADF816004048808880B254
:10CA2000ADF814000220414908705DE03B48808A5F
:10CA300080B2ADF816003948008A80B2ADF8140013
:10CA40003D4805F094F9D8B134480078C0B1384871
:10CA50000078A8B902208DF80C0037480490042013
:10CA60003649C87000213548FFF76EFD044600BF07
:10CA70000CB120462CE700BF05202C49087002E0CD
:10CA800003202A4908702FE02448808B80B2ADF83B
:10CA900014002248008C80B2ADF81600264805F03C
:10CAA00066F9E0B11D480078C8B121480078B0B9F6
:10CAB00002208DF80C002048049004201F49C87003
:10CAC00000211E48FFF740FD044600BF14B1204678
:10CAD000FEE608E000BF06201449087002E00420CA
:10CAE0001249087000E000BF00BF0A48007838B162
:10CAF00001A873DF044600BF0CB12046E8E600BF82
:10CB00000748006820B10948007805490968884746
:10CB10000020DDE67C1F0020681F0020402400204C
:10CB2000741F00207F1F00206A1F0020701F00203C
:10CB30007D1F00207E1F0020642400200824002088
:10CB400070B505461C2229461248FEF729FD002033
:10CB500011490870286850B1104829680A680260B5
:10CB6000496841607ADF04463CB1204670BD0B48FD
:10CB70007BDF04460CB12046F8E74FF6FF7008490A
:10CB80000880002007490870074A00210748FFF77E
:10CB9000D1FBEBE70C2500209C1F0020881F002004
:10CBA000921F0020901F0020291B02001C1E020063
:10CBB00010B504462088102806D0112808D0122865
:10CBC0000ED0502810D107E0204603F0B1F80CE059
:10CBD000204603F0CBF808E0204603F0E7F804E035
:10CBE000204603F097F800E000BF00BF10BD2DE91C
:10CBF000FC4105460C46174620880930B84202D948
:10CC00000C20BDE8FC81684671DF064600BF0EB10E
:10CC10003046F6E700BF0820218868542088401C71
:10CC200020801B20218868542088401C2080208878
:10CC30002844DDF801100160BDF8051081802088CE
:10CC4000801D20809DF8000018B9002021886854BC
:10CC500002E00120218868542088401C20800020A8
:10CC6000CFE7000010B50446204601F07DF92046CC
:10CC7000FFF79EFF2146054800F046F8204602F0E7
:10CC8000FBFF2046FFF768FD10BD000004200020D8
:10CC900070B586B004460E464FF6FF70A08130682E
:10CCA0002061184B0FCB01AD0FC504F10A0101A89B
:10CCB00063DF054600BF15B1284606B070BD00BF52
:10CCC000A07A8DF8160041F22350ADF814002246E8
:10CCD00005A90120A0DF054600BF0DB12846ECE7FD
:10CCE00000BF3146204604F02FF8054600BF0DB1C5
:10CCF0002846E2E700BF00BF0DB12846DDE700BFD0
:10CD00000020DAE78C1D02000A88102A04D0112ABC
:10CD100005D0502A0AD106E08A88828107E04FF6C2
:10CD2000FF72828103E00A89828200E000BF00BFB7
:10CD30007047000070B588B000BF00234822444906
:10CD4000082003F0DFFD054600BF2E463EB100BFC0
:10CD500040A240F225213046FFF75BFA00BF00BF3A
:10CD600000BF03AA0121002003F0ACFD044600BF70
:10CD700025463DB100BF37A240F22B212846FFF7E0
:10CD800048FA00BF00BF00BF364E304603F082FCB9
:10CD9000044600BF25463DB100BF2EA240F22E2121
:10CDA0002846FFF736FA00BF00BF00BF03A803F014
:10CDB0007BFD044600BF25463DB100BF25A240F2E1
:10CDC00032212846FFF725FA00BF00BF01A871DF16
:10CDD000044600BF25463DB100BF1EA240F23721E8
:10CDE0002846FFF716FA00BF00BF01A9002070DF38
:10CDF000044600BF25463DB100BF16A240F23921CE
:10CE00002846FFF706FA00BF00BF174803F040FDB1
:10CE1000044600BF25463DB100BF0EA240F23D21B1
:10CE20002846FFF7F6F900BF00BF104803F09CFD4D
:10CE3000044600BF25463DB100BF06A240F2412195
:10CE40002846FFF7E6F900BF00BF08B070BD00003C
:10CE5000042200202E2E5C2E2E5C2E2E5C6D61692D
:10CE60006E2E6300001E002065CC0100CD0C020078
:10CE70007CB50446A1786A460D4803F02FF80546B4
:10CE8000ADB96178C1EBC1010A4A02EB81001C23F4
:10CE90001A46694603F060F905460748807A074953
:10CEA00051F82020214668469047054600BF7CBDCA
:10CEB000541F002098230020E4230020F81D0200C6
:10CEC00010B5032000F056FB044600BF1CB1062C31
:10CED00001D0204610BD00BF0020FBE72DE9F04146
:10CEE00005460F464FF00008002400E0641C042CA7
:10CEF00004D22A4850F82400A842F7D1042C41D289
:10CF000027B3012F02D0022F3BD133E004EB4400C2
:10CF1000234911F8008004EB44000844407868B1CC
:10CF20002048006800EB800041001F4A1F4800684D
:10CF3000FFF77AFA06460EB91B48057004EB440069
:10CF40001749084480781A4908551AE017480068BC
:10CF5000FFF796FA1648005D04EB4401104A1144AD
:10CF60008978884205D104EB44001146084490F8C2
:10CF7000028006E004EB44000949084490F801806F
:10CF800000BF00BFB8F1000F06D00A48006818B112
:10CF90004046084909688847BDE8F081B81D02008D
:10CFA0008C220020381F0020481F0020B41D0200E2
:10CFB000491F0020441F002070B504460025054885
:10CFC000007800F0010018B1204600F005F8054691
:10CFD000284670BD3C1F00202DE9F0410446002684
:10CFE0000025182C7DD2DFE804F00C1D1E68B4EE7D
:10CFF000EDECEBEAE9E8E7E6E5E4E3E2E1E0DFDED9
:10D00000DDDC00BFFD4801684FF4F010884300F4F8
:10D01000F010FB4908600020091D086000BFF948B6
:10D02000047098E200BF00BFF44801684FF4E010BC
:10D03000884300F4F010F24908600020091D0860E0
:10D0400000BFEF48001F006880F4F01000F40030CB
:10D0500088B100BF4FF40030091F08600020091D8F
:10D06000086000BF022C02D14FF4E16001E04FF4F0
:10D070007A60054610E000BF4FF40030E049091D1A
:10D0800008600020091F086000BF022C01D1C820E1
:10D0900001E04FF4C8700546DA4804706420B5FB1F
:10D0A000F0F0D949096800FB01F700223946D7485A
:10D0B0000068FFF7B9F906464DE200BFCF480168A6
:10D0C0004FF4E010884300F4F010CD4908600020D0
:10D0D000091D086000BFCA48001F006880F4F010F6
:10D0E00000E037E200F4003088B100BF4FF40030B8
:10D0F000091F08600020091D086000BF032C02D131
:10D100004FF4487001E04FF47A60054610E000BF2C
:10D110004FF40030BA49091D08600020091F08605B
:10D1200000BF032C01D1C82001E04FF4C8700546B0
:10D13000B44804706420B5FBF0F0B349096800FB03
:10D1400001F700223946B1480068FFF76DF906463D
:10D1500001E200BFA94801684FF4E010884300F4E1
:10D16000F010A74908600020091D086000BFA4480E
:10D17000001F006880F4F01000F4003020B300BFFE
:10D180004FF40030091F08600020091D086000BF2F
:10D19000042C02D14FF47A6001E04FF47A60054626
:10D1A00024E0CBE1C9E1B3E19DE187E179E13FE131
:10D1B0003DE13BE139E137E12AE105E1EDE0D3E092
:10D1C000BBE0A1E06CE022E000BF4FF400308C49EE
:10D1D000091D08600020091F086000BF042C02D14F
:10D1E0004FF4C87001E04FF4C870054685480470DC
:10D1F0006420B5FBF0F08449096800FB01F70022C8
:10D20000394682480068FFF70FF90646A3E100BFE0
:10D210007A4801684FF4E010884300F4F010784930
:10D2200008600020091D086000BF7548001F0068E5
:10D2300080F4F01000F4003080B100BF4FF40030F3
:10D24000091F08600020091D086000BF052C01D1DE
:10D25000C82001E04FF47A60054610E000BF4FF4AB
:10D2600000306749091D08600020091F086000BFE1
:10D27000052C01D1C82001E04FF4C8700546614873
:10D2800004706420B5FBF0F05F49096800FB01F70A
:10D29000002239465D480068FFF7C6F806465AE1A5
:10D2A00000BF564801684FF4E010884300F4F010C6
:10D2B000534908600020091D086000BF5048001F46
:10D2C000006880F4F01000F4003040B100BF4FF46B
:10D2D0000030091F08600020091D086009E000BF38
:10D2E0004FF400304649091D08600020091F0860FE
:10D2F00000BF444804704448002201684348006865
:10D30000FFF792F8064626E100BF3C4801684FF45B
:10D31000E010884300F4F010394908600020091D2E
:10D32000086000BF00BF4FF4003008600020091FF4
:10D33000086000BF334804700DE100BF3049091F89
:10D3400008684FF4802181432D4A116000F4802148
:10D35000121D116000BF2C48002201682B48006894
:10D36000FFF762F80646F6E000BF2549091F086886
:10D370004FF480218143224A116000F48021121D64
:10D38000116000BF2048006800EB800100221F48A8
:10D390000068FFF749F80646DDE000BF1849091F9D
:10D3A00008684FF480218143154A116000F4802100
:10D3B000121D116000BF1448002201681348006864
:10D3C000FFF732F80646C6E000BF0D49091F08689E
:10D3D0004FF4802181430A4A116000F48021121D1C
:10D3E000116000BF0848006800EB80010022074878
:10D3F0000068FFF719F80646ADE00000401F002066
:10D4000008050050341F0020381F0020AC1D02000A
:10D4100000BF4FF4F010524908600020091F086057
:10D4200000BF5048047096E000BF00BF00BF00BFBF
:10D430004D480068FFF724F80646C4F111050DB306
:10D4400006BB4FF4002049490860012D0FD9C820C0
:10D4500068436421B0FBF1F04549096800FB01F71E
:10D460000022394640480068FEF7DEFF064600BF4E
:10D470003E48006800F4F010394908600020091F98
:10D4800008600DE000BF3948006800F4F01034492E
:10D49000091F08600020091D086000BF33490860AB
:10D4A00059E000BF4FF4F0102D49091F086000201B
:10D4B000091D086000BF2B4804704CE000BF4FF40A
:10D4C000E0102749091F08600020091D086000BFFF
:10D4D00000BF4FF4003008600020091F086000BF43
:10D4E0002048047037E000BF4FF4D0101C49091FDA
:10D4F00008600020091D086000BF00BF4FF48020B5
:10D5000008600020091F086000BF1648047022E070
:10D5100000BF4FF4C0101249091F08600020091D08
:10D52000086000BF00BF4FF4C02008600020091F42
:10D53000086000BF0B4804700DE000BF00BF4FF44F
:10D54000F010074908600020091F086000BF054867
:10D55000047000E000BF00BF3046BDE8F08100006D
:10D560000C050050341F0020B01D0200401F002099
:10D57000381F002030B5024600201AE00F4C54F846
:10D580002040A40004F1A044D4F8001701248440F2
:10D5900014400CB1032400E00024234621F4403160
:10D5A00041EA0341064C054D55F8205044F825103A
:10D5B000401C0428E2D3002030BD0000B81D02004A
:10D5C000000700500146024850F821007047000053
:10D5D0004825002001460148405670477825002024
:10D5E0002DE9F84F3A48007800EB80013848001DDB
:10D5F00000EB8104E668A06800EB4000354901EBD0
:10D600008000B0F80890A06800EB400001EB8000BB
:10D61000B0F80AA0A06800EB400001EB8000406871
:10D62000009002F04CFDB6FBF0F100FB116008B970
:10D63000012000E000208046009809FB0A0760886E
:10D640003044A1884518002023490860B8F1000F34
:10D6500004D002F034FD6188884209D0B8F1000F8F
:10D6600003D0BD4201D1A08810B1A068032809D120
:10D6700002F025FDB6FBF0F018490860032003F026
:10D68000FDF822E002F01BFDA1883144B1FBF0F26D
:10D6900000FB121080081249086002F010FDB5FB73
:10D6A000F0F100FB115008B9012000E00020834692
:10D6B000BD4206D0BBF1000F03D1B9B2A8B203F04E
:10D6C0001DFB022003F0DAF800BFBDE8F88F000070
:10D6D000E8250020B4260020B01F0020B41F002041
:10D6E000AC1F002010B50848007800EB8001064808
:10D6F000001D00EB81042078042802D000F0BAF865
:10D7000001E003F073FA10BDE825002010B50F48C2
:10D71000007800EB80010D48001D00EB810460885B
:10D720000B4908602078012804D0032805D004287C
:10D7300009D105E003F05AFA06E0FFF751FF03E0D4
:10D7400004F0E4F900E000BF00BF10BDE8250020B0
:10D75000C01F002010B50348407808B1FFF7D6FF7E
:10D7600010BD0000E8250020002200EB80031149D5
:10D7700001F8232000EB800301EB83014A800222A1
:10D7800000EB80030B4901EB83018A60002200EB70
:10D790008003084901EB8301CA6000EB800305495F
:10D7A00001EB83010A6100EB8003024901EB830175
:10D7B0008A807047EC2500202DE9F04706460F4689
:10D7C00090469946DDF820A0204840780A2839D0B4
:10D7D0001E4800781D49497844180A2C00D30A3C99
:10D7E00004EB84011948001D00F8216004EB84015A
:10D7F00000EB8100C0F8108004EB84011348001D89
:10D8000000EB8100D7E90012C0E9021204EB8401A9
:10D810000E48001D00EB8100A0F8029004EB84018B
:10D820000A48001D00EB8100A0F804A007484078DA
:10D83000401C064948700648007808B9FFF766FFA3
:10D84000002500E004252846BDE8F087E8250020F3
:10D85000A81F002010B5002005490870487000245A
:10D8600003E02046FFF780FF641C0A2CF9D310BDAB
:10D87000E825002010B50848007800EB8002064833
:10D88000001D00EB82010020FEF728FD00F006F8E5
:10D89000002002F0F3FF10BDE825002010B5094973
:10D8A0000878FFF761FF07484078401E0549487037
:10D8B00008460078401CC0B208700A2801D1002038
:10D8C000087010BDE82500202DE9F04782461F486A
:10D8D0000068002836D01D480068056802F044FE44
:10D8E00007461B4804682146384603F0CEFAC61C9A
:10D8F0001848007808B902F049FEAE4201D2284625
:10D9000000E03046044424F07F44204602F026FE26
:10D9100002F02AFE80463946404603F0B6FA00F18E
:10D9200003093946204603F0B0FA814509D902F0CF
:10D930001BFE814602F012FE2F20FDF7E3FD03F0EF
:10D9400099FC01E002F040FEBDE8F087D01F002006
:10D95000D41F0020E81F002001460888062808DBA5
:10D960000888B0F5486F06DD08884FF6FF729042D0
:10D9700001D0072070474888062808DB4888B0F5A2
:10D98000486F06DD48884FF6FF72904201D00720AD
:10D99000F0E708884FF6FF72904208D0488890421E
:10D9A00005D008884A88904201DD0720E2E7002080
:10D9B000E0E72DE9F04106460D46144698462088DA
:10D9C000801D404502D90C20BDE8F0813046FFF7AC
:10D9D000C3FF074600BF0FB13846F5E700BF05207B
:10D9E000218868542088401C208012202188685497
:10D9F0002088401C208022885119308804F080F84B
:10DA000021880844208022885119708804F078F811
:10DA10002188084420800020D6E7000010B5044685
:10DA200000BF04A240F273112046FEF7F2FB00BFD4
:10DA300010BD00002E2E5C2E2E5C2E2E5C6D6169BA
:10DA40006E2E630030B587B01C216846FDF7C1FD1E
:10DA5000002000904FF4203001904FF4702002908D
:10DA600003208DF80C000020ADF80E008DF810009A
:10DA70000A4805900A4806906846FFF761F8044690
:10DA800000BF25463DB100BF06A24FF4C571284630
:10DA9000FEF7BFFB00BF00BF07B030BDD5FC0100E3
:10DAA0001DDA01002E2E5C2E2E5C2E2E5C6D61691F
:10DAB0006E2E630038B51B4801F040FC20BB1A48AD
:10DAC000007848B119484069E8B100200090174833
:10DAD00041696846884716E01548007810B9134830
:10DAE000456801E011488568002229461148006810
:10DAF000FEF79AFC044634B10C48806918B10B4813
:10DB000081692046884709E00848406930B1012012
:10DB10000090064841696846884700BF00200249D6
:10DB2000087038BD941F00209C1F00200C25002089
:10DB3000901F00201C1E020070B503460C460820F2
:10DB4000002117E001EB41050C4E06EB8505AD7A8F
:10DB5000254075B14FF6FF75AB4206D001EB41058C
:10DB600006EB85052D899D4202D11160002003E05E
:10DB70000520491C0029E5D000BF70BDD823002036
:10DB8000012100EB40020D4B03EB820291724FF634
:10DB9000FF7100EB400203EB82021181FF2100EBD9
:10DBA000400203EB8202D17200EB40011A4602EB05
:10DBB000810100220A608A808A717047D823002080
:10DBC00010B51A48007800F0080058BB18480068E3
:10DBD000401C174908601748006818B1042003F07A
:10DBE0006BF821E001F0BCFB18B1022003F064F8EF
:10DBF0001AE01148006890B10C48007800F001006C
:10DC000048B90A48006840F001000849086000204F
:10DC100003F052F808E0032003F04EF804E003F0AC
:10DC20001FF801E003F02CF810BD0000C41F002015
:10DC3000B41F0020AC1F0020B01F002010B50B48FF
:10DC4000007800F0080070B90848007800F0020081
:10DC500028B10648006840F001000449086002202D
:10DC600003F02AF801E003F00BF810BDC41F0020F8
:10DC70002DE9FC4104460D46A1786A462B4802F086
:10DC80002DF90746002F4ED1607800EB400028495F
:10DC900001EB8000807A00F04000402801D0022D86
:10DCA00001D1244E04E0012D01D1234E00E0234E8A
:10DCB000A078C0EBC000224A02EB800100231C22A6
:10DCC0006846B0470746EFB9022D1BD0607800EBDD
:10DCD0004000174901EB8000807A20F04000617815
:10DCE00001EB4101124A02EB810188726078C0EBBE
:10DCF000C000144A02EB80011C231A466846B04754
:10DD0000074600BF022D0ED0207800EB40000E49E0
:10DD100001EB8000807A0D4951F8202021466846A9
:10DD20009047074600BFBDE8FC810000541F00205B
:10DD3000D8230020810402005D0302007D0B020055
:10DD4000D422002098230020E4230020E81D0200B4
:10DD500070B503460A4648F24300002135E0C1EBA6
:10DD6000C1041C4D05EB8404A47EFF2C2CD1147837
:10DD7000022C18D0C1EBC10405EB8404A47E24F06E
:10DD80000204C1EBC105134E06EB8505AC76C1EB71
:10DD9000C104354605EB8404156825619588A58284
:10DDA0009579A5750DE0C1EBC1040A4D05EB84041E
:10DDB000A47E24F00104C1EBC105064E06EB8505E7
:10DDC000AC761970002002E0491C0729C7D300BFB8
:10DDD00070BD0000D42200202DE9F04105460E461A
:10DDE00017464FF0050800241AE03DB9C4EBC40003
:10DDF0000E4901EB8000008BB8420CD07DB1C4EB22
:10DE0000C4010A4A02EB810101F1100007222946F0
:10DE1000FDF7EAFB18B934604FF0000802E0641C1B
:10DE2000072CE2D300BF4046BDE8F081D422002099
:10DE30007CB50546A9B26A46074802F04FF8044689
:10DE400044B97421684602F09BF8044614B9284688
:10DE500001F0E4FF20467CBD541F00202DE9F04175
:10DE600006460F46144600BF25463DB100BF05A239
:10DE70004FF41C712846FEF7CCF900BF00BF00200C
:10DE8000BDE8F0812E2E5C2E2E5C2E2E5C6D61691D
:10DE90006E2E63007FB50546039502F015F9044622
:10DEA00000BF26463EB100BF29A240F28A2130467B
:10DEB000FEF7AFF900BF00BF03A800F0B3FB0446B4
:10DEC00000BF26463EB100BF21A240F28D21304660
:10DED000FEF79FF900BF00BF0020CDF805008DF8C8
:10DEE00009009DF8050020F00100401C8DF8050098
:10DEF0009DF8050020F002008DF805009DF8050052
:10DF000020F01C000C308DF805009DF8050020F075
:10DF100020008DF8050007218DF8061010218DF8DE
:10DF200007100F48009001208DF8040069460D4845
:10DF300000F02AFD044600BF26463EB100BF04A201
:10DF400040F29B213046FEF764F900BF00BF7FBD61
:10DF50002E2E5C2E2E5C2E2E5C6D61696E2E630063
:10DF60005DDE0100001F00202DE9F0478CB0044663
:10DF7000FF200A904FF000094FF0000A00BFFE4852
:10DF8000007810B90CB0BDE8F08700BF00BFFB48B7
:10DF9000006800B9F6E700BF09A800F037FB0546A6
:10DFA00000BF2E463EB100BFF54A4FF41F61304618
:10DFB000FEF72FF900BF00BF00270025201D0790A6
:10DFC0002A20ADF82000FF208DF8260000208DF8D3
:10DFD00024000B902088102813D0A0880BAA0221BF
:10DFE000FFF7AAFD054665B90B9800EB4000E5492F
:10DFF00001EB8000C07A8DF826000B98C0B28DF836
:10E000002500208817287DD008DC10280DD0112885
:10E0100079D0132878D0142877D1C7E0182875D084
:10E020001C2874D05228F7D1B6E20BAE324601213B
:10E030004FF6FF70FFF780FD8046B8F1000F08D162
:10E040000220316801EB4101CE4A02EB8101887266
:10E0500001E04FF0040800BF4546002D62D14FF0AB
:10E06000010911208DF818000B98C0B28DF8250019
:10E07000A0880B9901EB4101C24A02EB81010881A2
:10E0800002200B9901EB410102EB810188720B9890
:10E0900000EB4000114601EB8001D4F806200A6035
:10E0A00062898A80207B8871607D00F0010060B108
:10E0B000607DB54901EB50000078FF280CD0607DF1
:10E0C00001EB500000780A9006E04FF6FF720AA9B3
:10E0D000A01DFFF781FE054625BBDDE90A0101EB26
:10E0E0004101A84A02EB8101C8720B9800EB400085
:10E0F000114601EB8000807A40F008000B9901EB9B
:10E10000410105E019E10EE099E054E2D9E14CE269
:10E1100002EB810188720A98C0B28DF8260009A826
:10E12000FEF7A6FE48E20B9800EB4000954901EB94
:10E130008000807A20F002000B9901EB4101914AA6
:10E1400002EB810188720B9800EB4000114601EB55
:10E150008000807A00F0080008280ED10B9800EBB0
:10E16000400001EB8000807A00F0800080280FD111
:10E17000002109A8FFF77CFD0AE09DF82600FF2892
:10E1800006D09DF8260001F049FEFF208DF82600FC
:10E1900010200B9901EB41017A4A02EB8101887250
:10E1A0004FF0010912208DF8180005E20B9800EBE2
:10E1B0004000744901EB8000C07AFF2824D1E28935
:10E1C0000AA90020FFF708FE0546EDB9DDE90A01BE
:10E1D00001EB41016B4A02EB8101C8720B9800EB25
:10E1E0004000114601EB8000807A40F008000B9956
:10E1F00001EB410102EB810188720A98C0B28DF8EF
:10E20000260009A8FEF734FE0B9800EB40005D499C
:10E2100001EB8000C07AFF2805D00B98C0EBC0004E
:10E220005A4901EB800A0B99C1EBC101584B03EB32
:10E230008102A0880023514682DF0546BCE11320FD
:10E240008DF818000B9800EB40004E4901EB800060
:10E25000807A40F004000B9901EB4101494A02EB3E
:10E26000810188724FF001090B9800EB40001146C4
:10E2700001EB8000C07AFF281AD10B9800EB400018
:10E2800002EB80010AA8FFF763FD054665B90A980D
:10E29000C0B28DF82600DDE90A0101EB4101394ADF
:10E2A00002EB8101C87221E02F464FF001091DE009
:10E2B00016208DF818000B9901EBC101354A02EBCD
:10E2C000810101F108001A21FDF783F90B9800EB99
:10E2D00040002C4901EB8000807A40F040000B990F
:10E2E00001EB4101274A02EB810188720020039073
:10E2F0000B9800EB4000234901EB8000C07AC0EB93
:10E30000C000234901EB80010491002105910B9885
:10E31000C0EBC0001D4901EB80000090002001907F
:10E320000290A0886B46154A121D00217FDF05462A
:10E3300015B12F464FF000093EE11048407A20F019
:10E3400001000E4948720B9800EB40000D4901EBAB
:10E350008000807A20F004000B9901EB4101094A0A
:10E3600002EB8101887214208DF818004FF001092A
:10E37000A079D8B10B990FE0601F0020E4230020A2
:10E38000641E0200D8230020611F00209823002073
:10E39000D4220020B423002001EB410102EB8101D3
:10E3A000C87AFFF745FD0646A77989E0E079C0F312
:10E3B0008000E0B39DF82600FF2838D00B9800EBD2
:10E3C00040008C4901EB8000807A40F008000B99F6
:10E3D00001EB4101874A02EB81018872E07AC0F3C8
:10E3E000400088B19DF82600C0EBC000824901EBD7
:10E3F0008000807E20F001009DF82610C1EBC10155
:10E400007D4A02EB810188760B9800EB4000794948
:10E4100001EB8000C07AFF2852D00B9800EB40003F
:10E4200011F82000022827D09DF8260000E047E0E0
:10E43000C0EBC000704901EB80000B9901EB41017A
:10E440006C4A02EB81010A6802618A8882828979BA
:10E4500081759DF82600C0EBC000674901EB800084
:10E46000807E20F002009DF82610C1EBC101624AB7
:10E4700002EB810188761FE00B98C0EBC0005F497A
:10E4800001EB8000408A9DF82610C1EBC1015A4A79
:10E4900002EB810108839DF82600C0EBC000114605
:10E4A00001EB8000807E20F001009DF82610C1EB7A
:10E4B000C10102EB81018876012109A8FFF7D8FB91
:10E4C0007AE0A0790121B1EB101F43D1A07900F0CF
:10E4D0000F0001283ED10B9800EB4000454901EBAD
:10E4E0008000807A00F00800082833D10B9901EBF6
:10E4F000C101434A02EB810101F108001A21FDF735
:10E5000068F816208DF818000B9800EB4000394988
:10E5100001EB8000807A40F020000B9901EB410173
:10E52000344A02EB810188720B9800EB40001146DF
:10E5300001EB8000807A40F040000B9901EB410133
:10E5400002EB810188722F48407A40F002002D4989
:10E5500048721DE00B9800EB4000264901EB80005B
:10E56000807A40F080000B9901EB4101214A02EBD7
:10E570008101887215208DF818002248807A224A7D
:10E5800052F8201009A8884705460DB148F2410706
:10E5900000274FF001090FE01A48807A1A4A52F812
:10E5A000201009A88847074606E013208DF81800B8
:10E5B0004FF0010900E000BF00BFB9F1000F17D014
:10E5C0003A4606A909A8FDF779FE9DF81800122819
:10E5D0000ED100BF0B9800EB4000064901EB800014
:10E5E000807A012802D00B98FFF7CAFA00BF00BF5B
:10E5F00000BFC7E4D8230020D422002098230020A5
:10E60000B4230020E4230020081E0200014611B9B3
:10E6100048F20E007047FF20087048708870C8707C
:10E620000020F7E77FB506461EB948F20E0004B099
:10E6300070BD002412E02046002100EB4002344B64
:10E6400043F8221000EB400203EB8202517200EB10
:10E65000400203EB8202917200BF641C002CEAD0DE
:10E66000002403E02046FFF78BFA641C002CF9D04D
:10E6700024212848FCF7ADFF002406E0204601F0E5
:10E68000CDFBFF2024490855641C072CF6D37420C9
:10E69000ADF80C000720ADF80E002048029020498C
:10E6A00002A801F0D3FD054625BB01201D490870D5
:10E6B000307800BB00241BE0A1B26A46184801F084
:10E6C0000DFC05467DB9C4EBC401174A02EB81007D
:10E6D00000231C22694601F03FFD05463DB10020A4
:10E6E0001049087006E000200E49087002E0641C22
:10E6F000072CE1D309E0BDF80C00BDF80E20504313
:10E7000081B2074801F03CFC054628468FE700002F
:10E71000E4230020B4230020611F00202DE7010026
:10E72000541F0020601F0020D42200202DE9FF4F3D
:10E730008FB00F4692461D46DDF8709000BF8748A7
:10E74000006810B913B0BDE8F08F00BFB9F1740FC5
:10E7500000D9F7E74FF0010B0BA8FFF757FF06466C
:10E7600000BFB046B8F1000F07D000BF7C4A40F2AE
:10E77000A1514046FDF74DFD00BF00BF00208DF8C0
:10E780002C008DF830000A95CDF82490804614E0D6
:10E790001FFA88F106AA734801F0A0FB064656B995
:10E7A000082206A90F98FCF71FFF20B908F0FF0008
:10E7B0008DF82E0004E008F10108B8F1070FE7D347
:10E7C00000BF9DF82E00FF2878D0032F0AD1B9F1A1
:10E7D000740F03D120208DF830009BE040208DF88D
:10E7E000300097E06048281A1C21B0FBF1F4072C98
:10E7F0001BD208A80D90BAF1000F0ED19DF82E0083
:10E8000001218140594A1268114009B1012100E0FB
:10E81000002111B94FF0000B7CE09DF82E0003F0B1
:10E8200079F920208DF8300074E05148281A1C2115
:10E83000B0FBF1F4F4B908A80D9020208DF8300059
:10E84000E0B28DF82D00002003904A490491C4EBFA
:10E85000C400474901EB800000909DF82E00C0EBFA
:10E86000C000414901EB80000190CDF828D018206C
:10E8700009904FE04048281A2421B0FBF1F4F4B984
:10E8800030208DF83000E0B28DF82D0001208DF899
:10E890002F0004EB4400394901EB8000807A00F03E
:10E8A0000200022836D09DF82D1001EBC101324A3A
:10E8B00002EB81002421FCF78CFE2BE04CE04FF0B2
:10E8C000000B40208DF830002D48854203D10327EE
:10E8D0004FF0010B1EE09DF82E002A4951F8200050
:10E8E000A84217D14FF0010B08A80D9000200EE0B0
:10E8F0009DF82E1000EB4002204B03EB8202D27AEF
:10E90000914203D1C1B28DF82D1002E0401C0028C5
:10E91000EED000BFBBF1010F1ED1032F06D19DF831
:10E92000300040F003008DF830000EE0022F06D1D9
:10E930009DF8300040F001008DF8300005E09DF8B2
:10E94000300040F002008DF8300008A80D905246CB
:10E950000CA90BA8FDF7B2FC00BFF3E6E4230020EE
:10E96000641E0200541F0020D42200205C1F0020DF
:10E9700098230020F0230020B4230020D823002077
:10E98000181E0200B822002010B5024600BF284819
:10E99000007810B948F2080010BD00BF12B948F263
:10E9A0000E00F9E711B948F20E00F5E7086810B952
:10E9B00048F20E00F0E71F48006898BB1D4C08683D
:10E9C00020602046D1F8054044604C7A04720879F2
:10E9D000184CA0722046007A20F0010415480472F9
:10E9E000007A20F00200801C124C20722046007A2F
:10E9F00020F004040F480472C07920F00100401C8C
:10EA00000C4CE0712046C07920F00200801CE071BF
:10EA10002046C07920F004040648C471002010701C
:10EA2000002302E0FFE748F204031846B4E70000C1
:10EA3000601F0020E4230020014614480078144A97
:10EA4000127890421DD011480078401C0F4A107077
:10EA500010460078022801D1002010700D480B4AA2
:10EA6000127850F8220008600B4A086812681044B7
:10EA7000094A10601046006820F07F4010600120B5
:10EA800070470020086000BFFAE70000E01F002088
:10EA9000E11F0020D81F0020D41F002010B50C4813
:10EAA000007800F0080078B90A480068401C09495D
:10EAB000086000F055FC10B9FEF714FE06E00648A9
:10EAC000007801F0DBFE01E000F076FE10BD0000F2
:10EAD000C41F0020B41F0020A81F00200A4800788F
:10EAE00006280ED10848001D007800F00F0040B93C
:10EAF00005480830007800F0F000302801D10120EE
:10EB000070470020FCE70000E00F00F01348007899
:10EB1000062820D11148001D007800F00F00D0B960
:10EB20000E480830007800F0F000302801D10120B4
:10EB300070470A480830007800F0F000402801D102
:10EB40000120F5E705480830007800F0F000502873
:10EB500001D10120ECE70020EAE70000E00F00F01F
:10EB60000A48007806280ED10848001D007800F0F9
:10EB70000F0040B905480830007800F0F000302858
:10EB800001D1012070470020FCE70000E00F00F0F9
:10EB900013480078062820D11148001D007800F0A5
:10EBA0000F00D0B90E480830007800F0F00030288F
:10EBB00001D1012070470A480830007800F0F000C9
:10EBC000402801D10120F5E705480830007800F021
:10EBD000F000502801D10120ECE70020EAE7000016
:10EBE000E00F00F00A48007806280ED10848001D02
:10EBF000007800F00F0040B905480830007800F0B8
:10EC0000F000302801D1012070470020FCE700000F
:10EC1000E00F00F00A48007806280ED10848001DD1
:10EC2000007800F00F0040B905480830007800F087
:10EC3000F000302801D1012070470020FCE70000DF
:10EC4000E00F00F00A48007806280ED10848001DA1
:10EC5000007800F00F0040B905480830007800F057
:10EC6000F000502801D1012070470020FCE700008F
:10EC7000E00F00F0F0B5034600241FE0124E3068AC
:10EC800006689E4203D90668F61A06601AE006680E
:10EC90009B1B06683444002606600B4E35680A4FFD
:10ECA000C6693E60C66846B10E1926F07F464660CA
:10ECB000C66886601668C661156000BF02480068B5
:10ECC0000028DBD100BFF0BDD01F002030B50446C6
:10ECD0001088C01C984201D90C2030BD0220158834
:10ECE00048551088401C1080012015884855108810
:10ECF000401C108015884C551088401C1080002046
:10ED0000EBE7000010B5044614B1112C08D100E067
:10ED10000AE00648006840F008000449086003E083
:10ED20002046FDF7F3FA00BF00BF10BDC41F00204E
:10ED300010B50D480068401C0B490860B0F57A7F9B
:10ED40000DD00A480078022804D00848007801F065
:10ED500095FD07E00648007801F0AEFF02E00D20C7
:10ED6000FDF7D4FA10BD0000B81F0020A81F002036
:10ED7000A91F002010B50A480078012804D00228F5
:10ED800008D0032809D102E001F036FF06E0FFF7C2
:10ED900085FE03E001F084FF00E000BF00BF10BD6E
:10EDA000A81F002070B50446204628DF0546FFF75F
:10EDB000A9FF70BD2DE9F04104460D4616463246C6
:10EDC0002946204629DF0746FFF79CFFBDE8F08172
:10EDD0003EB500BF9DF8000020F00F00401C0090E1
:10EDE0009DF8000020F0F0001030009000BF0322DA
:10EDF0001DA168467CDF044600BF254635B100BF33
:10EE00001AA29D212846FDF704FA00BF00BF41F277
:10EE1000342078DF044600BF254635B100BF13A279
:10EE2000A1212846FDF7F5F900BF00BF00200190A1
:10EE30000290A020ADF80400ADF806000820ADF85F
:10EE400008004FF4C870ADF80A0001A87ADF044644
:10EE500000BF254635B100BF04A2AC212846FDF70E
:10EE6000D8F900BF00BF3EBD42656E002E2E5C2E5D
:10EE70002E5C2E2E5C6D61696E2E630001460020B3
:10EE8000704702460020704702460020704700008D
:10EE90002DE9F04104460027B8460026607800EBD3
:10EEA000C000374901EB8000406848B3607800EB50
:10EEB0004000344901EB8000807A00F08000802817
:10EEC0001ED1607800EB400001EB8000807A00F0FA
:10EED0004000402814D0607800EBC000284901EBC6
:10EEE000800000F10807607800EBC00001EB8000B3
:10EEF00080881FFA80F8607800EBC00051F820602D
:10EF0000617801EB41011F4A02EB81010889334618
:10EF100042463946A9DF05460B2D0CD10126617802
:10EF200001EB4101174A02EB810108893346424651
:10EF30003946A9DF05460DB148F24105012E1BD126
:10EF4000617801EB41010F4A02EB810108894FF61C
:10EF5000FF720C21A7DF054675B143F2020085421E
:10EF600008D0082D06D0801C854203D0112D01D079
:10EF7000002501E048F241052846BDE8F081000087
:10EF8000B4230020D823002070B505460C466178D4
:10EF900001EBC1010E4A02EB8100382324222946ED
:10EFA00001F0DAF8064686B9607800EBC00008493F
:10EFB00001EB80004068401C38B90020617801EB0B
:10EFC000C101034A02EB81014860304670BD000078
:10EFD000B42300202DE9F04188B007460C460326F3
:10EFE0001A200790617801EB4101324A02EB81015E
:10EFF0000889334607AA6946AADF8046B8F1000FA0
:10F0000054D1617801EBC1012B4A02EB810101F17E
:10F010000800BDF81C206946FCF7E6FAA0B9607844
:10F0200000EB4000234901EB8000807A00F00200F1
:10F0300002283BD0617801EBC1011F4A02EB81003D
:10F040002421FCF7C6FA31E0607800EBC0001A49D1
:10F0500001EB8000406808B1184D00E0184D607861
:10F0600000EBC000144941F82060BDF81C00617835
:10F0700001EBC101104A02EB81014860617801EBAC
:10F08000C10102EB810101F10800BDF81C206946B5
:10F09000FCF786FA607800EBC000074A02EB8001BB
:10F0A000382324223846A847804600BF002008B0F5
:10F0B000BDE8F081D8230020B423002081040200A1
:10F0C0005D03020070B505462846FFF7E1FE0446E1
:10F0D00014B900BF00200446204670BD70B5054637
:10F0E0000E4631462846FFF74FFF044614B900BFCD
:10F0F00000200446204670BD70B505460E463146D8
:10F100002846FFF767FF044614B900BF00200446F5
:10F11000204670BD10B51648007800F0080018BBF6
:10F1200000F04AF960B100201249086010480068F8
:10F1300040F001000E490860002001F0BDFD15E01F
:10F1400000F00EF930B100200A490860022001F0F9
:10F15000B3FD0BE00848006818B1032001F0ACFDD6
:10F1600004E001F07DFD01E001F08AFD10BD00002A
:10F17000C41F0020AC1F0020B01F0020F8B5254898
:10F18000007800B9F8BD2448006808B9012000E003
:10F19000002005462148006808B9012000E0002051
:10F1A000064600BF9DB9684652DF0446052C01D1D2
:10F1B00001250BE034B100BF19A2A9212046FDF7BB
:10F1C00028F803E0144900980968884700BFCEB9C1
:10F1D00021480088009069462048006861DF0446A5
:10F1E000052C01D101260CE034B100BF0CA2C821CE
:10F1F0002046FDF70EF804E0184800680749096842
:10F20000884700BF0DB106B100E0CBE700BF00BFEB
:10F21000B8E70000F01F002000200020FC1F0020A5
:10F220005254455C6E52465F536F6674446576690E
:10F2300063655C6E524635323833325F78784141CF
:10F240005C736F66746465766963655F68616E643C
:10F250006C65722E63000000F81F0020F41F002070
:10F260007FB505460C4694F8210094F82010CDE9AE
:10F27000001004F12602D11E2846E36902F069F964
:10F2800000B17FBD94F8230048BB207B022802D048
:10F29000207B032823D1E169206981421FD1606965
:10F2A000E061E07B84F82000207EC0F3401084F809
:10F2B0002100207B03280AD194F82100009094F8C3
:10F2C000203029462046E26902F0D4F933E094F870
:10F2D000203029462046E26902F0C4F82BE0D4E948
:10F2E0000412E06801AB07C394F82300A0B100BF8B
:10F2F000D5F8C414C5F8C41400BF084600F00201D4
:10F3000019B101218DF8001005E000F0040111B1E0
:10F3100002218DF8001002E000208DF8000000208E
:10F3200084F82400207E00F0040018B96846D4E96F
:10F330000021904700BF00BFA3E7000001464888B6
:10F34000064A1288904206DB4888044A5288904256
:10F3500001DC012070470020FCE70000881F00202E
:10F360002DE9F0411148007800EB80010F48001DA5
:10F3700000EB8105EF6800F0A2FE69883944AA8895
:10F380001144491EB1FBF0F609480068B04206D3AB
:10F3900007480068B04204D10648006808B9012453
:10F3A00000E000242046BDE8F0810000E8250020B0
:10F3B000B41F0020B01F00202DE9F0410F48007855
:10F3C00000EB80010D48001D00EB8105EE6800F0A8
:10F3D00076FE69883144AA881144491EB1FBF0F7D2
:10F3E0000748006828B107480068B84201D10124E5
:10F3F00000E000242046BDE8F0810000E825002060
:10F40000B01F0020B41F0020014601F0030008B91E
:10F41000012070470020FCE730B504461088C01C6E
:10F42000984201D90C2030BD02201588485510881B
:10F43000401C10801C20158848551088401C1080E6
:10F44000012C06D0022C08D0032C0AD0042C10D199
:10F450000BE00020158848550DE00120158848551F
:10F4600009E002201588485505E003201588485515
:10F4700001E00720D7E700BF1088401C1080002063
:10F48000D1E700002DE9F0412148D0F80080214863
:10F4900006782FE02048006800EBC604257825E0B8
:10F4A00005EB4501606800EBC107681CC5B2A07898
:10F4B000A84200D100253878022802D0032812D1B2
:10F4C00003E0786801F07EFD0EE007E0104908686F
:10F4D000002101740E4AC169116000BF0C48006828
:10F4E0000028F3D100E000BF00BF00BF6078A84251
:10F4F000D6D100BF301EA6F10101CEB2CAD1044858
:10F500000068404502D00120BDE8F0810020FBE703
:10F51000D01F0020C81F0020CC1F00202DE9F0477D
:10F5200006463B48D0F800903A48077861E03A48F0
:10F53000006800EBC70555E016B13446E66923E0E4
:10F540002A7802EB4202696801EBC2002978491C63
:10F5500029702978AA78914201D100212970446844
:10F560000178012901D1217C01B13BE08168616012
:10F57000C168A1600169E1604169A1612749097819
:10F5800009B10021616000BF254960680968401A1F
:10F5900020F07F402349884208D2214960680968E9
:10F5A00001F073FCA1680844206010E01C48616809
:10F5B000006801F06AFC8046A068404504D9A06854
:10F5C000A0EB0800206001E00020206000BF0020C8
:10F5D0006060A060012020740020E061204601F0FE
:10F5E000BDFC00BF002EA7D1287869788842A3D13E
:10F5F00000BF381EA7F10101CFB298D104480068BE
:10F60000484502D00120BDE8F0870020FBE700005C
:10F61000D01F0020C81F0020CC1F0020E91F0020A1
:10F62000D41F0020FFFF7F0008B55848067806F079
:10F630000100E8B100BF00BF00BF00BF00BFBFF3C3
:10F640004F8F00BF00BF00BF5148006800F4E0606A
:10F6500050490843001D4E49086000BF00BF00BF6D
:10F66000BFF34F8F00BF00BF00BF00BF00BFFDE76B
:10F6700000BF00201AE00121814001F08061A1B1AA
:10F6800000BF01210A4600231F469C4641EA42086A
:10F6900048EA830848EA072848EA0C49DFF8F88076
:10F6A00048F8209000BF00BF00BF401C2028E2D3D4
:10F6B00000BF00BF3949086809068143374A121D57
:10F6C000116000F08061121D116000BF4FF4FA70EC
:10F6D00000F027F900BF31490868090681432F4A25
:10F6E000121D116000F08061121D116000BF01F059
:10F6F0006BFE2B49072001F065F804460CB100BFF2
:10F70000FEE72849082001F05DF804460CB100BF6F
:10F71000FEE76946002001F055F8044601F0B0FD0F
:10F72000012047DFFDF706FB01252846FEF7B2FB67
:10F73000FFF74EFB01F022F8FCF71CFDFEF782F903
:10F74000FCF7E2FE0320FDF7B1F8044600BF2746B0
:10F750003FB100BF14A24FF462713846FCF759FD67
:10F7600000BF00BF042077DF044600BF27463FB13B
:10F7700000BF0DA240F28B313846FCF74AFD00BFB6
:10F7800000BF00BF00F07CFBFCE700000C12001083
:10F790000CED00E00000FA050007005004050050E1
:10F7A000301F0020311F00202E2E5C2E2E5C2E2EAE
:10F7B0005C6D61696E2E630010B50548006820F02D
:10F7C0000800034908600348007801F057F810BDAD
:10F7D000C41F0020A81F00202DE9F04105460E4659
:10F7E00014469846A888871C2088801C38444045C9
:10F7F00002D90C20BDE8F081FE2F01D90C20F9E7D9
:10F80000781C218870542088401C2080FF2021888B
:10F8100070542088401C208022889119288802F08A
:10F820006FF9218808442080A88800280DDDA86889
:10F8300008B90720DEE7AA8823889819A968FBF78A
:10F84000AFFE2088A988084420800020D2E72DE957
:10F85000F84F05460F46144698462878012804D1EB
:10F86000687810B90720BDE8F88F2088801C4045D3
:10F8700008D82878012807D12088801C6978084496
:10F88000404501D90C20EEE72088A8EB0000801E3F
:10F8900086B200962188891CC81969467DDF814699
:10F8A00000BFB9F1000F01D04846DCE700BF28785F
:10F8B000022806D1BDF80000B04202DC4FF0090A70
:10F8C0000BE04FF0080A2878012805D16878B0428B
:10F8D00002DC6878009000E00096BDF80000FE2889
:10F8E00001D90C20BFE7BDF80000401C21887854E6
:10F8F0002088401C2080208807F800A02088401C19
:10F9000020802088BDF80010084420800020AAE74D
:10F910000146002070470246002070470246002042
:10F92000704701B506E00098401E009040F2E730B5
:10F93000FBF770FD00980028F5D108BD70B50B46A7
:10F9400001461A46002907DA5407260E104C01F02A
:10F950000F052D1F665503E05407250E0D4C655409
:10F9600000BF00BF00F01F02012191400A4A440974
:10F9700042F8241000BF00BF00F01F020121914097
:10F980004209920002F1E022C2F8001100BF70BDEE
:10F9900018ED00E000E400E080E200E00146C1F381
:10F9A000073250B270470000027902EB8202064B28
:10F9B00003EBC201026800BF0523C2F8003500BF97
:10F9C000022281F822207047A02500202DE9F0476F
:10F9D00006460C4617469846307900EB80001F49D2
:10F9E00001EBC00595F8220010B10820BDE8F087B2
:10F9F0001CB930791A4901EB00142F60C5F8048056
:10FA00000020A86085F8250085F8240021463046AE
:10FA100001F090FC40F20C611248226840F822107C
:10FA2000626840F822103068D4E90012C0F8081566
:10FA3000C0F80C2500BFA168C0F8241500BF2868D5
:10FA400030B13068FFF7AAFF8146217BFFF776FFD0
:10FA5000012085F822000020C8E70000A025002032
:10FA6000201E020000070050FEB507460C46154652
:10FA70001E46074A07CA8DE807008DF801408DF839
:10FA80000260019500226946384600F021F8FEBD6B
:10FA9000301E02002DE9FE4307460C4615461E4661
:10FAA000DDF8288000200090019002908DF8014040
:10FAB0008DF802600195B8F1000F01D0202000E020
:10FAC000002002466946384600F002F8BDE8FE8391
:10FAD0002DE9F04105460E4614464FF0000804F0AB
:10FAE000010010B10620BDE8F08104F0020008B169
:10FAF0000620F8E7287900EB8000064901EBC007F3
:10FB0000234632463846296801F00AFE80464046C0
:10FB1000E9E70000A0250020074A52F8202022F43F
:10FB20004033054A42F8203052F8202042EA01438F
:10FB3000014A42F8203070470007005001218140FF
:10FB4000014A1160704700000C05005001218140FE
:10FB5000014A116070470000080500500146014845
:10FB6000084470470060004038B504462046FFF75F
:10FB7000F5FF002101602046FFF7F0FF00680090CC
:10FB800000BF38BD10B504462046FFF7E7FF006808
:10FB9000012800D110BD0020FCE70246505808B1F2
:10FBA000012070470020FCE7002242507047C0F857
:10FBB00008137047C0F804137047C0F8001270476C
:10FBC0000122425070470146D1F88004C1F88004F8
:10FBD00070470246505808B1012070470020FCE7EA
:10FBE000002242507047C0F8081370470246D2F80E
:10FBF0000403084008B1012070470020FCE70122FF
:10FC0000425070470146D1F88004C1F88004704723
:10FC10000246505808B1012070470020FCE700223E
:10FC200042507047014640F23C5040587047000037
:10FC300070B5054695B1032D13D10220FDF7BCF92F
:10FC4000044600BF26463EB100BF07A240F2BB11EA
:10FC50003046FCF7DEFA00BF00BF03E000F0D6FD3F
:10FC600000E000BF00BF70BD2E2E5C2E2E5C2E2E3D
:10FC70005C6D61696E2E630070B50546288810289A
:10FC800002D0112819D113E00720FDF795F9044699
:10FC900000BF26463EB100BF09A24FF4F5713046C1
:10FCA000FCF7B7FA00BF00BFA8880949088005E043
:10FCB0004FF6FF700649088000E000BF00BF70BD2E
:10FCC0002E2E5C2E2E5C2E2E5C6D61696E2E6300D6
:10FCD000021F002070B50546287880B93B210848EE
:10FCE000008876DF044600BF26463EB100BF05A26D
:10FCF0004FF4B4713046FCF78CFA00BF00BF70BD02
:10FD0000021F00202E2E5C2E2E5C2E2E5C6D616953
:10FD10006E2E630010B504460449D4F806200A602C
:10FD2000D4F80A004860FDF7C5FE10BD941F0020FE
:10FD300010B50446A088094908800949D4F816205E
:10FD40000A60D4F81A004860002006490870064886
:10FD5000C08908B9FDF7AEFE10BD0000921F00205B
:10FD6000941F0020901F00200C25002070B5054630
:10FD70004FF6FF70094908800020094908700948BA
:10FD80000068FCF77DFB044634B10748806918B170
:10FD9000054881692046884770BD0000921F0020F9
:10FDA000901F00201C1E02000C25002070B5054687
:10FDB000AC1D20881149C98988421DD1208B022899
:10FDC0001AD100BF00BFA17EE27E41EA02210846AF
:10FDD00000F0010111B1FDF76DFE0DE0084800686B
:10FDE000FCF74EFB064636B10448806918B103485B
:10FDF00081693046884700BF70BD00000C25002097
:10FE00001C1E02000246002104E0505C08B10120E3
:10FE10007047491C0629F8D30020F9E710B50446BD
:10FE2000C4EBC400144901EB80000021401C0161B7
:10FE30008182C4EBC401104A02EB81001021FBF760
:10FE4000C8FBFF20C4EBC4010B4A02EB810108741C
:10FE5000C4EBC40102EB810188764FF6FF70C4EB5E
:10FE6000C40102EB81010883204601F053FE00200B
:10FE7000024941F8240010BDD4220020B8220020FD
:10FE800070B548DF044600BF25463DB100BF04A25F
:10FE900040F2D2212846FCF7BCF900BF00BF70BD7C
:10FEA0002E2E5C2E2E5C2E2E5C6D61696E2E6300F4
:10FEB000014600BF0748007800F0040008B9082098
:10FEC000704700BF09B90E20FAE703484078086080
:10FED0000020F5E7C41F0020E82500207CB503467C
:10FEE00000BF2548007800F0040008B908207CBD58
:10FEF00000BF0BB90E20FAE70AB90E20F7E7186821
:10FF0000022806D2186800EB40001C4C54F8200070
:10FF100008B90720EBE7D3E90004CDE90004019814
:10FF20001C6804EB4404154D05EB8404248901FB93
:10FF300004000190009800EB40002C4604EB800088
:10FF40004068009C04EB440405EB84046489009D34
:10FF500005EB4505094E06EB85052D8904FB0500DB
:10FF6000019CA04201D80720C1E7DDE90004C2E9F5
:10FF700000040020BBE70000C41F0020B4260020BE
:10FF80002DE9F84304460D4600BF4348007800F0D1
:10FF9000040010B90820BDE8F88300BF0CB90E209A
:10FFA000F9E72068022806D2206800EB40003B49B0
:10FFB00051F8200008B90720EDE7206800EB400069
:10FFC000364901EB80004068216801EB4101334A6A
:10FFD00002EB81014989226802EB42022F4B03EBBD
:10FFE0008202128901FB02006168884201D8072061
:10FFF000D1E76068FFF708FA08B91020CBE7D4E929
:020000040002F8
:10000000001001EB4101254A02EB81014968401AC9
:10001000216801EB410102EB81010989B0FBF1F29A
:1000200001FB120008B10720B5E7206800EB400093
:100030001A4901EB8000008995FBF0F100FB11509B
:1000400000B90DB90720A6E7206800EB400013496E
:1000500001EB80000089216801EB41010F4A02EBAE
:100060008101498900FB01F660684719206800EBAF
:100070004000114601EB8000406800EB0608474550
:1000800001D9072087E700202B4602462146009031
:100090000320FDF791FB7EE7C41F0020B42600205B
:1000A00010B54FF010204469601C20B100F007F833
:1000B000B4FBF0F010BD4FF080504069FAE74FF00C
:1000C0008050006980B2704710B5FDF7C3FB002077
:1000D00019490880FFF7E4FFC41EFFF7F0FF44430F
:1000E0001648046000201649086000BF10E0002197
:1000F00000EB4002134B43F8221000EB400203EBED
:100100008202118100EB400203EB82025181401C0C
:100110000228ECD300200C4908700C4908600C49F7
:1001200008600C4908600A48006840F0040008496B
:100130000860002010BD0000A01F0020A41F0020A8
:10014000B41F0020B4260020A81F0020B81F0020E4
:10015000C41F0020BC1F0020F8B507460C461546FA
:100160001E4600BF3748007800F0040008B9082098
:10017000F8BD00BF0CB90E20FAE70FB90E20F7E763
:100180002068022806D2206800EB40002E4951F872
:10019000200008B90720EBE7206800EB40002A495F
:1001A00001EB80004068216801EB4101264A02EB27
:1001B00081014989226802EB4202234B03EB820250
:1001C000128901FB02006168884201D80720CFE74D
:1001D00045B1206800EB40001B4901EB800000891D
:1001E000A84201DA0720C3E7A819216801EB410101
:1001F000154A02EB81010989884201DD0720B7E732
:100200003846FFF701F938B13046FFF7FDF818B16D
:100210006068FFF7F9F808B91020A9E7606881194C
:100220002A463846FBF7BCF90095206800EB4000F1
:10023000054951F820C03B46002202212046E047F4
:10024000002095E7C41F0020B42600202DE9F041CE
:1002500004460D4600BF3D48007800F0040010B988
:100260000820BDE8F08100BF0CB90E20F9E70DB9F8
:100270000E20F6E7206808B90E20F2E7FFF71FFF0F
:10028000A188884202DBA088102801DA0720E8E76D
:10029000E08868B1FFF704FF471EFFF710FF4743F0
:1002A000E088A1882A4A126800FB0120874201D217
:1002B0000720D6E7207900F0030008B10720D0E737
:1002C00024480088022801D10420CAE72148008878
:1002D00028601F48006868601E49098801EB4101D9
:1002E0001D4A02EB8101686848601A49098801EBE0
:1002F0004101206842F82100A0881649098801EBD5
:10030000410102EB81010881E0881249098801EB73
:10031000410102EB81014881FFF7D1FEA188E2880B
:1003200001FB02077F1EFFF7CAFE97FBF0F6FFF7FF
:10033000C6FE0749096806FB001005490860054824
:100340000088401C0349088000208AE7C41F002061
:10035000A41F0020A01F0020B4260020F8B50446EA
:100360000E4615461F4600BF3148007800F00400D5
:1003700008B90820F8BD00BF0EB90E20FAE70CB985
:100380000E20F7E72068022806D2206800EB400024
:10039000284951F8200008B90720EBE7206800EB56
:1003A0004000244901EB80004068216801EB4101D5
:1003B000204A02EB81014989226802EB42021D4B6F
:1003C00003EB8202128901FB02006168884201D8B6
:1003D0000720CFE745B1206800EB4000154901EB4D
:1003E00080000089A84201DA0720C3E7E8192168E4
:1003F00001EB41010F4A02EB81010989884201DDCD
:100400000720B7E73046FEF7FFFF38B13846FEF762
:10041000FBFF18B16068FEF7F7FF08B91020A9E7E5
:100420002B463246214601200097FDF7C5F9A1E78A
:10043000C41F0020B426002010B504460E480078E2
:10044000C0B10D480078042814D0022C02D0032C2F
:100450000ED102E0FEF78EFC0BE00848007800F0B9
:10046000080010B9FEF764FC01E0FEF783FC00E031
:1004700000BF00BF10BD0000A81F0020C41F002047
:10048000F8B504460E4615461F4600BF31480078B1
:1004900000F0040008B90820F8BD00BF0EB90E2016
:1004A000FAE70CB90E20F7E72068022806D2206888
:1004B00000EB4000284951F8200008B90720EBE77D
:1004C000206800EB4000244901EB8000406821686F
:1004D00001EB4101204A02EB81014989226802EBCC
:1004E00042021D4B03EB8202128901FB020061688C
:1004F000884201D80720CFE745B1206800EB4000D3
:10050000154901EB80000089A84201DA0720C3E702
:10051000E819216801EB41010F4A02EB81010989C9
:10052000884201DD0720B7E73046FEF76DFF38B19E
:100530003846FEF769FF18B16068FEF765FF08B935
:100540001020A9E72B463246214604200097FDF7EC
:1005500033F9A1E7C41F0020B42600200149086038
:1005600070470000401501400148006870470000D6
:100570000415014010B5044603480460032111200E
:10058000FBF75CFB10BD00000815014010B54FF4EF
:1005900080300A4908600A49C1F804031120FBF7BA
:1005A00029FB1120FBF732FB0120054908602F20B1
:1005B000FAF7A8FF01200349087010BD4413014059
:1005C00000100140E81F002010B5112001218140DA
:1005D0000E4A430942F8231000BF4FF480300C4903
:1005E00008600C49C1F80803012048602F20FAF781
:1005F00089FF0120074988600020074908602F20F3
:10060000FAF780FF00200549087010BD80E100E086
:100610004813014000100140D41F0020E81F0020B3
:1006200010B51048C07D40B94FF484710E48FFF7F3
:10063000D7FA00BF0D48006810BD4FF484710A4816
:10064000FFF7CEFA00BF09480068C0B20549C96883
:10065000044A527E88540348407E401C0149487633
:1006600000BFE9E7C8250020002000401825004011
:100670007FB504460D4601208DF800008DF8084036
:100680000195034801684268684690477FBD0000B5
:10069000C825002008B5014604480090009888420B
:1006A00001D0002008BD0020FCE70000001F002052
:1006B00030B504461088C01C984201D90C2030BDCA
:1006C0000220158848551088401C1080112015887C
:1006D00048551088401C108010880C541088401C0D
:1006E00010800020EBE72DE9F04707460E46144640
:1006F0009A46B86A10B90720BDE8F0874FF00008A5
:1007000036E008EB4801B86A00EB8105A88800F1E3
:100710000209B9F1FE0F01D90C20EDE709F1010042
:10072000218870542088401C208016202188705415
:100730002088401C208022889119288801F0E0F947
:10074000218808442080A88800280DDDA86808B901
:100750000720D1E7AA8823889819A968FAF720FF0B
:100760002088A9880844208008F1010000F0FF08D3
:1007700097F82C004045C4DC0020BDE738B50A4896
:10078000009069460948FCF783FA044600BF2546F5
:100790003DB100BF06A240F23B112846FBF739FDF0
:1007A00000BF00BF38BD0000C107020004200020C8
:1007B0002E2E5C2E2E5C2E2E5C6D61696E2E6300DB
:1007C00070470000F8B504460D46002000900D4823
:1007D00000EB840083780B4800EB840240210A4838
:1007E000FFF758F906460EB13046F8BD054800EB54
:1007F0008400C3782A4640210348FFF735F90646AE
:100800003046F2E70C1F0020841D020070B5002066
:10081000FCF7D2FB044600BF25463DB100BF13A242
:1008200040F2A1112846FBF7F4FC00BF00BFFCF723
:1008300047FB044600BF25463DB100BF0BA240F276
:10084000A5112846FBF7E5FC00BF00BF3CDF0446CE
:1008500000BF25463DB100BF04A240F2A9112846C1
:10086000FBF7D7FC00BF00BF70BD00002E2E5C2E32
:100870002E5C2E2E5C6D61696E2E630010B50446F1
:100880000248047000F0D2F810BD0000A81F00203C
:10089000014600BF09B90E20704700BF0148016042
:1008A0000020F9E7FC1F00207CB5044604480090B6
:1008B0000098019001A9204660DF054628467CBDCE
:1008C000001F002070B505460E4614461421204630
:1008D000FAF77FFE01202080002121610020207393
:1008E00026726572607A08B10121A172002070BD84
:1008F00070B504460D461646324629462046FBF79B
:100900007BFC70BD2DE9F04180460C4616461F4623
:1009100014B90720BDE8F081204600F0030109B9B1
:10092000012100E0002109B90720F3E7094804602C
:1009300009480680094807600949404610DF054616
:100940000DB12846E6E701200649087016202EDF83
:10095000E0E70000F41F0020F81F0020EC1F00203B
:10096000F1080200F01F0020014600BF09B90E2067
:10097000704700BF014801600020F9E70020002017
:100980000146C87808B1072070470020FCE7000046
:1009900010B502480068FEF705FA10BDB41F00202C
:1009A0002DE9F0411D48006820F001001B49086056
:1009B0001B48007800EB80011948001D00EB810402
:1009C000E568FFF77CFBB5FBF0F616480660FFF71D
:1009D00076FB61882944491EB1FBF0F7BE4206D17F
:1009E0000E48006840F002000C49086005E00B4822
:1009F000006820F00200094908600B48006840B90F
:100A00000648007800F0020018B9022000F054F9FE
:100A100002E0002000F050F9BDE8F081C41F002082
:100A2000E8250020B41F0020AC1F002010B50C48A2
:100A3000007830B1012807D0022808D003280CD153
:100A400008E000F017F809E000F068F806E0FFF7AA
:100A5000A7FF03E0FFF79CFF00E000BF00BF10BD51
:100A6000A81F002010B502480068FEF79BF910BDD2
:100A7000B41F002010B50020034908600349086036
:100A8000FCF768FE10BD0000B81F0020BC1F00204E
:100A900070B5FFF705FB461EFFF711FB06FB00F4E0
:100AA000FFF70DFB05490968491E00FB01F50448E5
:100AB000214602682846FEF77DF970BDB41F00206C
:100AC000AC1F00202DE9F0411248007800EB8001B6
:100AD0001048001D00EB8104E568FFF7F0FA61881B
:100AE0002944A2881144B1FBF0F200FB1216FFF773
:100AF000D7FAA0F10108FFF7E2FA08FB0067618866
:100B00002944A288881804490A683946FEF752F930
:100B1000BDE8F081E8250020B01F002010B500F0EE
:100B200031F810BD70B5FFF7BBFA451EFFF7C7FAE5
:100B30004543FFF7C4FAB5FBF0F42046FEF732F95F
:100B400070BD00002DE9F041FFF7B9FA8408FFF706
:100B5000B6FA0949096800FB01F5FFF7A1FA471E3B
:100B6000FFF7ADFA07FB00F6224629463046FEF7AE
:100B700021F9BDE8F0810000B41F002010B5044643
:100B8000002010BD70B51748007800EB80011548B3
:100B9000001D00EB8104FFF792FA6188884214DAA5
:100BA000FFF78DFA61880D1AFFF789FA8608A38886
:100BB000E2681A445019226951193246FEF7FAF8D0
:100BC000FFF77DFA084908600AE0A588E36858192C
:100BD00063889A082169FEF7EDF860880249086089
:100BE00070BD0000E8250020BC1F002010B50120CA
:100BF000FFF744FE10BD000010B50E48007800F06D
:100C00000800A0B90C48007800EB80010A48001DDC
:100C100000EB8104608809490988401A6080608877
:100C200010B9FCF727FE01E0FFF7ACFF01E0FEF78B
:100C3000C3FD10BDC41F0020E8250020BC1F0020FC
:100C400010B50648007800F0080018B9012000F03F
:100C500033F801E000F014F810BD0000C41F0020BC
:100C600010B5FCF73FFD10BD10B50349034A1278DB
:100C700051F82200804710BD3C1E0200A91F002031
:100C800010B50548006820F00800034908600348D3
:100C9000007800F011F810BDC41F0020A91F00202B
:100CA00010B50349034A127851F82200804710BD5D
:100CB000501E0200A91F002010B50446024804700F
:100CC000FFF7D2FF10BD0000A91F002010B5044699
:100CD0002046FFF7B1FB2046FBF7BAFD10BD000030
:100CE00010B50548007800F0080010B9FFF7B8FF0C
:100CF00001E0FFF7C5FF10BDC41F00202DE9F04142
:100D000004460D46FFF7DBF995FBF0F6FFF7D7F940
:100D100094FBF0F7BE4204D1281B80080949086003
:100D20000DE0FFF7CCF98046FFF7C9F994FBF0F12D
:100D300000FB1140A8EB0000800802490860BDE8F4
:100D4000F0810000B01F002030B58FB004460D4682
:100D50000020079000BF9DF81C0020F00F00401CF1
:100D60008DF81C009DF81C0020F0F00010308DF86C
:100D70001C0000BF00BF9DF81D0020F00F00401CAC
:100D80008DF81D009DF81D0020F0F00010308DF84A
:100D90001D0000BF9DF81E0020F00600801C8DF88D
:100DA0001E001C2108A8FAF714FC9DF8200020F072
