:020000040001F9
:10B00000884600207DB5010085B5010087B50100A7
:10B0100089B501008BB501008DB50100000000006D
:10B020000000000000000000000000008FB50100DB
:10B0300091B501000000000093B5010095B5010035
:10B0400097B5010097B5010059BA0100B5B70100E5
:10B0500097B5010097B5010029B6010097B5010029
:10B0600097B5010097B5010097B5010097B50100AC
:10B0700097B5010097B5010097B5010097B501009C
:10B0800097B5010091B7010097B5010097B5010090
:10B09000C5B7010097B50100C9B7010097B5010018
:10B0A00097B5010097B5010097B5010097B501006C
:10B0B00097B5010097B501000000000000000000F6
:10B0C00097B5010097B5010097B5010097B501004C
:10B0D00097B5010097B5010097B501000000000089
:10B0E0000000000000000000000000000000000060
:10B0F0000000000000000000000000000000000050
:10B10000000000000000000000000000000000003F
:10B11000000000000000000000000000000000002F
:10B40000DFF80CD000F0FEF80048004719DD01001D
:10B4100088460020401E00BF00BF00BF00BF00BF25
:10B4200000BF00BF00BF00BF00BF00BF00BF00BF24
:10B4300000BF00BF00BF00BF00BF00BF00BF00BF14
:10B4400000BF00BF00BF00BF00BF00BF00BF00BF04
:10B4500000BF00BF00BF00BF00BF00BF00BF00BFF4
:10B4600000BF00BF00BF00BF00BF00BF00BF00BFE4
:10B4700000BF00BF00BF00BF00BF00BF00BF00BFD4
:10B4800000BF00BF00BFC5D170470000401E00BF15
:10B4900000BF00BF00BF00BF00BF00BF00BF00BFB4
:10B4A00000BF00BF00BF00BF00BF00BF00BF00BFA4
:10B4B00000BF00BF00BF00BF00BF00BF00BF00BF94
:10B4C00000BF00BF00BF00BF00BF00BF00BF00BF84
:10B4D00000BF00BF00BF00BF00BF00BF00BF00BF74
:10B4E00000BF00BF00BF00BF00BF00BF00BF00BF64
:10B4F00000BF00BF00BF00BF00BF00BF00BFC5D17D
:10B5000070470000401E00BF00BF00BF00BF00BF6B
:10B5100000BF00BF00BF00BF00BF00BF00BF00BF33
:10B5200000BF00BF00BF00BF00BF00BF00BF00BF23
:10B5300000BF00BF00BF00BF00BF00BF00BF00BF13
:10B5400000BF00BF00BF00BF00BF00BF00BF00BF03
:10B5500000BF00BF00BF00BF00BF00BF00BF00BFF3
:10B5600000BF00BF00BF00BF00BF00BF00BF00BFE3
:10B5700000BF00BF00BFC5D170470000064880472C
:10B5800006480047FEE7FEE7FEE7FEE7FEE7FEE7C8
:10B59000FEE7FEE7FEE7FEE7EDB7010001B40100BC
:10B5A00040EA01039B0703D009E008C9121F08C045
:10B5B000042AFAD203E011F8013B00F8013B521EC5
:10B5C000F9D27047D2B201E000F8012B491EFBD23C
:10B5D00070470022F6E710B513460A46044619469E
:10B5E000FFF7F0FF204610BD30B5044600200346AB
:10B5F00000E05B1C934203D2E05CCD5C401BF8D0C2
:10B6000030BD0000064C074D06E0E06840F0010345
:10B6100094E8070098471034AC42F6D3FFF7F4FEE5
:10B62000A0F40100C0F401002DE9F0470025DFF887
:10B63000F090A8464FF4807601242F46304602F061
:10B64000A9FD38B1D9F80403204203D0304602F0F6
:10B6500097FD2543361D64007F1CB6B2082FEDD33D
:10B660004FF4BE74204602F095FD38B1204602F03A
:10B6700087FD2C4845F00045D0F800802A4E15F093
:10B68000FF0F14D0012700242F420CD009EB8401B6
:10B69000D1F81005D1F81015C0F3042056F8242075
:10B6A000C1F3014190477F00641C082CECD3002DAE
:10B6B00032DA0024B14609EB04004E4690F95010EE
:10B6C000491C26D090F8507027F0C005284601F09C
:10B6D00029F956F82060E6B1BF090120A840A90069
:10B6E00001F1A041D1F8001710EA080FC1F30141A0
:10B6F00002D0022902D00CE003290AD1032F05D180
:10B7000002290BD00221284602F024FD39462846A2
:10B71000B047641C042CCED3BDE8F0870321F2E7C8
:10B720000060004010050050E825002000F01F02D6
:10B73000012191404009800000F1E020C0F8801212
:10B74000704700F01F02012191404009800000F184
:10B75000E020C0F80011704700F01F020121914065
:10B760004009800000F1E020C0F80012704749074E
:10B77000090E002806DA00F00F0000F1E02080F842
:10B78000141D704700F1E02080F80014704700009D
:10B7900007480021C0F84011C0F84411C0F8481112
:10B7A000C0F84C11C0F80011C0F8041103F018BA29
:10B7B000001001400149024802F02EB96026002025
:10B7C0000030004003F0A8B9074810B5406830B118
:10B7D0008047002807D0BDE8104000F085BABDE8DA
:10B7E000104002F0E1B810BDE41F002070B58D4894
:10B7F0000023021D0178101D0124062907D11578A8
:10B800002D0704D10578C5F30315032D02D00629B1
:10B8100004D00FE0854E844D75670EE015782D0736
:10B8200008D10578C5F30315032D06D0042D04D0E7
:10B83000052D02D0062909D010E04FF08055D5F82B
:10B8400044527B4EC5F34235356002E015782D0732
:10B8500004D10578C5F30315032D02D0062906D0BF
:10B8600011E0744D2E6826F080762E600EE015787B
:10B870002D0708D10578C5F30315032D06D0042D37
:10B8800004D0052D02D006290AD011E04FF08045E2
:10B89000C5F80C31C5F81031654D2D1F2B6002E045
:10B8A00015782D0704D10578C5F30315032D02D0B3
:10B8B000062905D00CE05E4A0321643211600AE0DB
:10B8C00015782D0704D10578C5F30315032D02D093
:10B8D00006290DD06AE0584A052111605649783191
:10B8E0000C60554908310B603F21121D116002E0C8
:10B8F000117809075AD10078C0F30310052855D1F3
:10B900004E4800684E4908604C48001D0068091DFB
:10B9100008604A4808300068091D086047480C3034
:10B920000068091D0860454810300068091D08605E
:10B93000424814300068091D08604048183000680B
:10B940003F49203108603D481C300068091D0860EF
:10B950003A4820300068091D0860384824300068E3
:10B96000091D0860354828300068091D0860334803
:10B970002C300068091D08603048303000683049BC
:10B98000403108602D4834300068091D08602B489C
:10B9900038300068091D086028483C300068091DDF
:10B9A0000860264840300068091D08602148743846
:10B9B000016841F470010160BFF34F8FBFF36F8FD7
:10B9C0004FF01021D1F80002002803DBD1F8040267
:10B9D000002822DA1B4A14601B480468002CFCD0A3
:10B9E0001524C1F800420568002DFCD0C1F80442BE
:10B9F00001680029FCD0136001680029FCD0BFF366
:10BA00004F8F0C48F0380168104A01F4E06111438F
:10BA10000160BFF34F8F00BFFDE70E490C4808607F
:10BA200070BD0000E00F00F00DF0ADBA00C007409F
:10BA30003C050040FCED00E01056004004040010FE
:10BA400020C5004004E5014000E401400400FA057F
:10BA50000090D003501F00200348007F08B103F07E
:10BA600067BB03F0E1BA00004026002002E008C8EE
:10BA7000121F08C1002AFAD170477047002001E068
:10BA800001C1121F002AFBD170472DE9FC5F002580
:10BA9000168807461580406B14468946A8464FF025
:10BAA0000C0A11234FF0020B98B101784846032E7F
:10BAB00048D380F800B02288521C92B2228083546E
:10BAC0002288521C92B2228009F802102088401C61
:10BAD00020803A6BDAB12088494600F11205B54260
:10BAE00030D80B5420881023401C80B220800B5487
:10BAF0002088401C20800F202388155C401ECD54D8
:10BB0000238840B25B1C23800028F5DA454697F86D
:10BB10002E0030B133462246494602F00FF80500A8
:10BB200011D197F82D0030B132462146484600F039
:10BB300057FC050007D1B87820B32088C846001DFF
:10BB4000B04202D95046BDE8FC9F684679DF002824
:10BB5000F9D12188032008F8010020881921401C10
:10BB600080B2208008F800102088401C80B220801D
:10BB700000EB0801BDF8000003F046FB01462088F9
:10BB800008442080F878B8B1228897F90310D31CB4
:10BB90004846B342D6D800F802B022880123521C8E
:10BBA00092B2228083542288521C92B2228009F8D9
:10BBB00002102088401C20807868B8B1218890F954
:10BBC0000020CB1C4846B342BCD800F801B0218805
:10BBD0000A23491C89B2218043542188491C89B217
:10BBE000218009F801202088401C2080388950B12C
:10BBF000CDE900464B460622022107F1080003F07A
:10BC000079FB05009FD1388A50B1CDE900464B46FB
:10BC10000722032107F1100003F06CFB050092D10D
:10BC2000388B50B1CDE900464B461522142107F15F
:10BC3000180003F05FFB050085D1386A30B1334648
:10BC40002246494600F0CEFF0500DBD1786A30B1CC
:10BC500033462246494602F039F90500D2D197F819
:10BC60002C0038B1334622464946384602F070FD72
:10BC70000500C7D1387838B13346224649463846A0
:10BC800002F056F90500BDD128465CE710B5012247
:10BC90000221002000F0E8FC08B1072810D107229B
:10BCA0000221012000F0E0FC08B1072808D10021A2
:10BCB0000A22084600F0D8FC08B1072800D100206D
:10BCC00010BD0000BFF34F8F05480168054A01F41D
:10BCD000E06111430160BFF34F8F00BFFDE700003B
:10BCE0000CED00E00400FA050EB500210091CDE94D
:10BCF00001106A4644F20100FFF7E4FF014B1B68A4
:10BD000018470000E024002038B50C46074BA26815
:10BD1000097802EB420253F82250054A126A009257
:10BD2000024604F108002369A84738BDD025002049
:10BD3000A01F0020074910B50A7802EB820201EB30
:10BD40008201091DFFF7E0FFBDE81040042002F06A
:10BD500075BD000004250020074B9B6823B12AB164
:10BD600020B10068037C1BB1082070470720704792
:10BD70004174426100207047C41F00202DE9F04744
:10BD80008046994614460F4690074FF0000634D17E
:10BD90001C4D8CB302F08EFC0320C5F81490287063
:10BDA00004F11800002107EB4703AC6004EBC1026B
:10BDB000491C167056709770506000EBC300032941
:10BDC000F4DBEE606E70AE701420FFF7AFFC032161
:10BDD0001420FFF7CCFC1420FFF7B3FC0A49C1F88C
:10BDE000008003211120FFF7C2FC0748001F0068F4
:10BDF00028610020BDE8F08701E00720FAE7AE6087
:10BE0000FBE70000C41F0020081501402DE9F8439E
:10BE1000DFF870900D461746D9F80810044651B364
:10BE20004CB3052D02D20720BDE8F883606910B33A
:10BE3000607C012821D0002603F026FAD9F80810EA
:10BE4000804601EBC800694603F040FAB8B1012111
:10BE500000F8041B0C4910C0096880E8E200D9F81A
:10BE6000081001EBC8009DF8001041701420FFF786
:10BE700073FC0020D8E70820D6E72E46DCE7042034
:10BE8000D2E70000C41F002004150140F8B5124E8F
:10BE90000446B168E1B1DCB16069C8B1002727741C
:10BEA00003F0F2F90546B068694600EBC50003F0FF
:10BEB0000DFA78B1022101704460B0689DF800105D
:10BEC00000EBC50041701420FFF746FC3846F8BD72
:10BED0000820F8BD0420F8BDC41F0020F0B50C46B2
:10BEE00093B01F210726ADF80010ADF8041000270D
:10BEF00050B1C17849070DD56A4602A9FFF7C5FDC3
:10BF0000002808D102AD02E00025ADF800706CB148
:10BF1000E07810B1304613B0F0BD01AA0AA920465E
:10BF2000FFF7B3FD0028F6D10AAA02E00022ADF81F
:10BF30000470BDF80400C3B2BDF80000C1B22846C9
:10BF400072DFE8E770B50D4604991646040040D04C
:10BF5000F6B3414800224271C0E903312422314640
:10BF60003E48FFF71DFB00F0D5F83C493431A1F104
:10BF7000100001602031816038215C38FFF729FB17
:10BF80003648217838380170A1788170E178C17025
:10BF900061784170D4E90412C0E90412D4E90212B4
:10BFA000C0E90212D4E90612C0E90612616AD1B1F1
:10BFB00000F1AC0100F1B80241628A60636A1B883B
:10BFC0000B80616A436A898899800021436A07E08F
:10BFD000FFE70E2070BD666AB668765C5654491C51
:10BFE0009E888E42F7D8A16AD9B11C4AAC32A2F120
:10BFF0000C018A608162A36A9B888B80A16A836A34
:10C00000098819800021836A04E0A66AB668765C14
:10C010005654491C9E888E42F7D894F82C1080F80C
:10C020002C10216A49B10C4914310162226A5288EC
:10C030004A80216A026A09881180616821B1064933
:10C04000891D4160616841602946BDE87040034830
:10C050003838FFF743BF0000541F0020AC220020F7
:10C0600010B502881D4C102A18D00021112A1BD0AF
:10C07000192A18D18079002815D16079012820D09B
:10C08000022824D0032824D004280CD12171E2688E
:10C090000846002A07D0BDE810401047017D01295D
:10C0A00001D18088208110BD6170808821898842FB
:10C0B000F9D1012006E021690029F4D0BDE8104043
:10C0C0000847022000F02EF80028F4D110BD03200C
:10C0D000F8E7032020710420F4E70000541F00203B
:10C0E00010B5022801D0032810D1094C207800286F
:10C0F0000CD000202070607900F014F8002805D0E2
:10C100002169002902D0BDE81040084710BD000099
:10C11000541F00200248002181618183817770478C
:10C12000541F00202DE9F04F724C87B0002660713B
:10C1300006A8069602F096F80127082805D00028E0
:10C1400071D1069810B12770C0E00696FFF7E2FFA4
:10C15000694D687810B16079012804D0A87848B199
:10C160006079022806D1E16819B1E7700820884794
:10C1700000E0E6706079DFF87C814FF0020A08F198
:10C1800018084FF0030B012806D1687840B108F178
:10C19000010002F03DF818B16079022802D00AE0EF
:10C1A00084F805A0A87820B108F1010002F030F869
:10C1B00008B984F805B0287B4FF0040920B96079EC
:10C1C000032801D184F80590287E20B960790428DD
:10C1D00001D166712671E16841B16079032801D00F
:10C1E000042803D1287808B16078C0B1A67018215E
:10C1F0006846FFF7EEF98DF8006001968DF808604B
:10C200000396607901280FD0022817D03A4E2436C1
:10C21000A6F15C0703281ED004284DD13BE0A7708F
:10C2200007208847E3E752E0ADF81260CDF80480BC
:10C230008DF80070ADF8106027713FE0CDF80480F4
:10C240008DF800702889ADF81200A888ADF81000AC
:10C2500084F804A032E0A88AADF81200288AADF86C
:10C2600010002548243003F0ACF818B1287808B144
:10C27000607810B184F804B01EE01F488DF808A063
:10C28000039687F8039000213838FFF727FE00282F
:10C290001DD105202BE0A88BADF81000288CADF83F
:10C2A00012001548243003F08CF818B1287808B132
:10C2B000607878B184F80490607918B1684673DFCB
:10C2C000002804D1E16809B120798847002007B02F
:10C2D000BDE8F08F08488DF808A0039687F8039012
:10C2E00000213838FFF7FAFD0028F0D10620207130
:10C2F000E2E70000541F0020AC22002070B5054684
:10C3000001461C220F48FFF74BF90F4C0026267000
:10C31000286830B1016861604068A060201D7ADF44
:10C3200002E00948001D7BDF00280AD14FF6FF70AC
:10C3300060806670BDE87040044A00210448FFF741
:10C340000BBD70BD98230020741F002029F201004E
:10C3500024F4010070B5204C068800251D49E289AF
:10C36000102E15D01D4B112E1ED0122E2BD0502E5C
:10C3700019D130F8061F914215D1018B022912D133
:10C38000807E10F0010F13D0BDE8704000F070BC4B
:10C3900083884B80D0F81630CB60D0F81A00086143
:10C3A0004D70002AF0D070BD4FF6FF7048804D7080
:10C3B0001868FFF76BFD0028F5D0A1690029F2D0BD
:10C3C000BDE87040084750F8062FCA604068086111
:10C3D000DAE70000741F00209823002024F40100F5
:10C3E0007CB5054608880C460930904201D90C20DE
:10C3F0007CBD684671DF0028FAD121880820685486
:10C4000020881B21401C80B2208029542088401C99
:10C4100080B220802844DDF801100160BDF80510CD
:10C4200081802088801D80B220809DF8001001B19D
:10C43000012129542088401C208000207CBD000060
:10C4400070B5044600F07EFD2046FFF783FF2046CE
:10C4500000F074F820880B4D102802D011280BD161
:10C4600007E0072000F022F908B1FFF73DFCA088A3
:10C4700001E04FF6FF70A8802046BDE87040FFF74E
:10C48000EFBD0000001F002000B585B0002348224A
:10C490001449082002F01AFA08B1FFF725FC6A4691
:10C4A0000121002002F0FCF908B1FFF71DFC0E4845
:10C4B00002F046F908B1FFF717FC684602F0E6F90A
:10C4C00008B1FFF711FC094802F0D6F908B1FFF7EF
:10C4D0000BFC074802F012FA002801D0FFF704FC19
:10C4E00005B000BDC0210020001E002041C4010095
:10C4F000F1EA01001CB5044681786A460C4801F057
:10C50000C3FE002813D160780A49C0EBC00001EBDC
:10C5100080001C231A46694601F072FF054806494F
:10C520004C30807A51F820202146684690471CBD47
:10C53000981F0020942400203CF4010010B51A4CF0
:10C540000188606810290ED011292BD1401E60602F
:10C5500028D1FFF79BFB002824D02168002921D097
:10C56000BDE810400847D0B900210122084600F07C
:10C570007BF808B107280FD107220221012000F023
:10C5800073F808B1072807D104220221002000F027
:10C590006BF820B1072802D0216801B18847606894
:10C5A000401C606010BD0000481F002010B5032033
:10C5B00000F09AF908B1062800D1002010BD000053
:10C5C0002DE9F04707460024244802E0641C042CAF
:10C5D00041D250F82420BA42F8D1042C3BD21F4853
:10C5E000DFF87C901F4E0C38A9F1140841B30129E3
:10C5F0000FD002292FD104EB440030444578002DA0
:10C6000029D0D8F81010002925D02846BDE8F047D9
:10C61000084704EB4401755C0E44717861B1D8F8A9
:10C6200004100F4A01EB81014900133A8068FFF7BB
:10C63000EDFB08B988F80170B17809F80410DEE75D
:10C640008068FFF723FC04EB4401314419F804002F
:10C650008D78A842D3D0BDE8F0870000F4F3010044
:10C66000441F00204822002070B50023042810D267
:10C670000D4D00EB4004012A02D101290CD000220B
:10C68000094E00EB4000304461B1012906D0022977
:10C6900006D00723184670BD0D30C2B22A55F9E7FF
:10C6A0004270F7E78270F5E748220020044A01460D
:10C6B0000020127AD20702D0084600F003B8704773
:10C6C000301F00202DE9F84F854EDFF810A24FF4FF
:10C6D000E01CF16807462CEA010C0091002071680B
:10C6E0000AF10404251D7F4B4FF400324FF4802BD8
:10C6F00001EB810E8146182F16D2DFE807F00C17E8
:10C70000173A4E607083868F868FEAA0A0A0A0A003
:10C71000CAD1D8E1EAEA009A4FF4F01191432160BE
:10C72000C5F8009086F80090BDE8F88FC4F800C006
:10C730004846C5F80090DAF800C08CF4F01C5FEAB7
:10C740008C3C09D522602860022F02D14FF4E160B1
:10C7500008E04FF47A6005E02A602060022F3CD0A8
:10C760004FF4C8706422B0FBF2F0414337700022EE
:10C770005EE0C4F800C04846C5F80090DAF800C092
:10C780008CF4F01C5FEA8C3C04D5226028604FF4E6
:10C790004870E7E72A6020601FE0C4F800C0484600
:10C7A000C5F80090DAF800C08CF4F01C5FEA8C3C0D
:10C7B00002D522602860CCE72A602060D0E7C4F868
:10C7C00000C04846C5F80090DAF800C08CF4F01CB0
:10C7D0005FEA8C3CDED522602860C820C2E7C4F83E
:10C7E00000C04846C5F80090DAF800C08CF4F01C90
:10C7F0005FEA8C3C02D52260286001E02A6020605C
:10C80000377014E0C4F800C04DE0DAF800002BEAFD
:10C810000002226000F48020286008E0DAF80000BE
:10C820002BEA0001216000F480202860714600227C
:10C830001868BDE8F84FFFF7E9BA21602EE0984686
:10C840005868FFF723FBD7F1110100D040B1F16820
:10C8500001F4F0112160C5F80090C6F80C9063E770
:10C860004FF40022F26001290CD9C82011FB00F11D
:10C870006420B1FBF0F1706800224143D8F8040055
:10C88000FFF7C4FAF16801F4F0112960C4F80090D0
:10C890004AE74FF4F0112160C5F80090377043E784
:10C8A0004FF4E01121604946C5F8009006E04FF4CE
:10C8B000D01121604946C5F800905A462A60BCE76D
:10C8C0004FF4C01121604946C5F800904FF4C022D2
:10C8D000F4E74FF4F01129604946AEE70405005033
:10C8E000301F0020E8F3010070B500210C4D012439
:10C8F00055F82120920002F1A042D2F8006704FA14
:10C9000001F3034000D0032326F4403646EA0343F4
:10C91000C2F80037491C0429EAD3002070BD00008A
:10C92000F4F301000249084490F930007047000018
:10C93000E82500202DE9F0413B48017801EB810119
:10C9400000EB8104D4E9030600EB40013648241DC6
:10C95000CC3000EB8100B0F808804589476801F0D1
:10C960001AFDB6FBF0F100FB116088B35FF0000028
:10C9700008FB05776188A288DFF8B08011448D1923
:10C980000022C8F8102040B101F005FD61888842FE
:10C9900021D0BD4201D1A088E8B1A06803281AD0F7
:10C9A00001F0F9FCA18844463144B1FBF0F200FBF0
:10C9B00012108008C8F80C0001F0EDFCB5FBF0F196
:10C9C00000FB115078B10020BD4228D068B126E0AC
:10C9D000FFE70120CCE701F0DEFCB6FBF0F103201D
:10C9E000C8F814101CE00120EEE7ADB2BEB201F0B1
:10C9F000D2FCB6FBF0F701F0CEFCB5FBF0F08742BD
:10CA000001D1701B09E001F0C6FC064601F0C3FC31
:10CA1000B5FBF0F100FB1150301A800820610220B4
:10CA2000BDE8F04101F00ABF04250020A01F00204E
:10CA30000648017801EB810100EB810000790428B0
:10CA400001D000F059B8012001F0F8BE0425002003
:10CA50000A480B4A017801EB810100EB8100C18893
:10CA600011620079012805D0032801D0042804D1DF
:10CA7000FFF760BF012001F0E1BE704704250020F0
:10CA8000A01F002000EB80020548002100EB82007F
:10CA900002220171C180C0E9032141610181704717
:10CAA000042500202DE9F041114D069E6C780A2CDA
:10CAB0001BD02F783C440A2C00D30A3C04EB84049E
:10CAC00005EB840420716261D1E90001C4E903012E
:10CAD000E38026816878401C68700648007808B9B1
:10CAE000FFF7B6FF0020BDE8F0810420FBE700005F
:10CAF00004250020A01F002010B50E4C207800EB6C
:10CB0000800004EB80010020091DFFF7FDF820786C
:10CB1000FFF7B8FF6078401E60702078401CC0B2FC
:10CB200020700A2801D100202070BDE810400020AC
:10CB300001F084BE042500202DE9F05F2648C1687D
:10CB4000F1B3DFF898B00E688146DBF80040076962
:10CB5000C078E11B21F07F45ED1CB0B9DFF8808083
:10CB60004FF48030C8F84403C8F804031120FEF7DE
:10CB7000DDFD1120FEF7E5FD4FF0010AC8F800A029
:10CB80002F20FEF7BFFC89F803A0B54200D235463E
:10CB9000124BE8193C3320F07F401860DBF800109E
:10CBA0005A46091B21F07F41001B20F07F40C91C21
:10CBB00081420FD9106818602F20FEF7A3FC00E017
:10CBC00004E0BDE8F05F1120FEF7C6BDBDE8F05FF0
:10CBD00001F070BDBDE8F09FC41F002004150140A6
:10CBE000001001402DE9F04117880646B81D144693
:10CBF0000D46984202D90C20BDE8F0813188072209
:10CC000006290AD34FF4486C4FF6FF73614501D9EA
:10CC1000994202D17088062801D21046ECE760459F
:10CC200001D99842F9D1994203D0984201D081426A
:10CC3000F3D80520E85520881221401C80B22080BE
:10CC400029542088401C80B220804119308802F08D
:10CC5000DBFA2188084480B220804119708802F0F4
:10CC6000D3FA2188084420800020C5E7FFF73CB8AC
:10CC7000F8B5134800F02CFF114D0026114C0C3D67
:10CC800030B16169B9B101208DF80000684611E04A
:10CC9000287820B1616971B18DF80060F6E7687895
:10CCA00058B1A168084800220068FFF7AFF810B13A
:10CCB000A16901B188472E70F8BD6168F2E70000F4
:10CCC000801F00209823002024F4010070B5094B38
:10CCD000044608209E7A00250E4208D0A4F57F4025
:10CCE000FF3802D01889A04202D10020156070BD23
:10CCF000052070BDD424002000EB4002074801212C
:10CD000000EB820081724FF6FF710181FF21C17239
:10CD1000002101608180817170470000D4240020CF
:10CD200010B5134C207900071ED46069401C606167
:10CD3000E06808B104200AE000F0D8FE08B1022043
:10CD400005E0206960B16068C10704D00320BDE838
:10CD5000104001F0C3BE40F0010060600020F6E723
:10CD6000BDE81040FFF764BEBDE8104001F0ACBE66
:10CD7000A01F002006494868020707D4820702D591
:10CD800040F001004860022001F0A8BE01F09CBE06
:10CD9000A01F00202DE9FC410E46044681786A461A
:10CDA000254801F071FA002828D16078234F00EB64
:10CDB000400007EB8000807A400621D4022E1FD06D
:10CDC000012E1FD01E4DA0781E49C0EBC00001EB04
:10CDD000800100231C226846A847A8B1022E0DD06E
:10CDE0002078164900EB40000C3101EB8000164919
:10CDF000807A51F82020214668469047BDE8FC81A2
:10CE0000124DE0E7124DDEE7022EF7D0607800EB1E
:10CE1000400007EB8000817A21F0400181720749D0
:10CE200060784039C0EBC00001EB80011C231A463A
:10CE30006846A847D4E70000981F0020D4240020AB
:10CE400051EA0100D02300202CF401002DE601005E
:10CE50005DE501002DE9F04705250F4F9046894615
:10CE600006460024C4EBC40007EB800036B107225D
:10CE700031461030FEF7B8FB18B106E0018B414592
:10CE800003D10025C9F8004002E0641C072CE9D357
:10CE90002846BDE8F0870000D02300207CB5054679
:10CEA00081B26A46074801F0EFF9040008D1742105
:10CEB000684601F013FA040002D1284601F0B2F9E5
:10CEC00020467CBD981F002010B5100001D0FEF751
:10CED0000BFF002010BD00001FB58DF80C0001F005
:10CEE0005FFA08B1FEF700FF03A800F063FA08B18B
:10CEF000FEF7FAFE0020CDF805008DF809009DF838
:10CF00000500694620F01E0040F001000C3020F0C2
:10CF100020008DF8050007208DF8060010208DF800
:10CF200007000648009001208DF80400044800F036
:10CF30006BFB002801D0FEF7D7FE1FBDC9CE010054
:10CF4000001F00202DE9F04F054693B0FA48FF245A
:10CF50000E9400784FF0000A002858D0DFF8DC83E8
:10CF6000D8F80000002852D001A800F017FA08B144
:10CF7000FEF7BAFE281D05902A20ADF818000027FC
:10CF8000FF208DF806008DF804700097EB4C288880
:10CF90000C3CBB4610280FD0A8886A460221FFF738
:10CFA00095FE48B9009800EB400104EB8101C97A75
:10CFB0008DF806108DF80500DFF880932888A9F118
:10CFC0004C09132109F11C02A2F1E006172875D0C3
:10CFD00010DC10281ED011285ED013286FD0142822
:10CFE00015D1009800EB400004EB8000C07AFF28C8
:10CFF0007DD09AE0D24B182877D01C2876D05228C2
:10D0000005D198F80A0053F8201001A8884713B0FA
:10D01000BDE8F08F4FF6FF766A4601213046FFF7F4
:10D0200055FE0028F3D10099022201EB410004EBE8
:10D030008000827211228DF810208DF80510A988C9
:10D040000181D5F80610016069898180297B817191
:10D05000687DC10708D0B849083101EB500000785D
:10D06000FF2808D00E9006E032460EA9A81DFFF753
:10D07000F1FE00280FD100990E9801EB410104EB5D
:10D080008101C8728A7A42F008028A728DF806001D
:10D0900001A8FFF72FFA6BE1009800EB400004EBCA
:10D0A0008001887A20F002008872010708D5000606
:10D0B0000FD5002101A8FFF76DFE0AE0B8E043E0BC
:10D0C0009DF80600FF2804D001F0ACF8FF208DF891
:10D0D00006000099102001EB410104EB81018872E8
:10D0E00012208DF8100043E101E0F9E03EE1EA8909
:10D0F0000EA90020FFF7AEFE78B900990E9801EB5B
:10D10000410104EB8101C8728A7A42F008028A72F6
:10D110008DF8060001A8FFF7EDF9009800EB40003C
:10D1200004EB8000C07AFF2804D00098C0EBC00157
:10D1300009EB810A00980023C0EBC00006EB8002D7
:10D14000A888514682DF62E700988DF8101000EB46
:10D15000400104EB81018B7A43F004038B72CB7A9C
:10D16000FF2B32D0162100EBC0008DF8101002EB1F
:10D1700080001A210830FEF72CFA009800EB4000DE
:10D1800004EB8000817A41F0400181720099CDF872
:10D190002CB001EB410204EB820208ABD27ACDF84D
:10D1A00028B0C2EBC20206EB8202CDE90C2BC1EB28
:10D1B000C10209EB8201CDE9081BA88808F104022D
:10D1C00000217FDF0028BED1D2E00DF1380C48F2FB
:10D1D00043020020C0EBC00306EB83039B7EFF2BC2
:10D1E00004D0401C0728F5D31746CFE70A78022A57
:10D1F0000CD0C0EBC00206EB8202FD2393760B68D5
:10D2000013618B8893828979917505E0C0EBC00129
:10D2100006EB8101FE228A768CF8000000990E98B8
:10D2200001EB410104EB81018DF80600C872ADE706
:10D2300098F8091021F0010188F80910DDF800C004
:10D240000CEB4C0304EB8300817A21F00402827220
:10D2500014218DF81010A97921B1C07AFFF71EFEB4
:10D26000AF7985E0E979490739D59DF80610FF299E
:10D270007ED042F008028272EA7A920707D5C1EBAB
:10D28000C10206EB8202957E25F001059576C27AF1
:10D29000FF2A6DD014F82320022A0ED0C1EBC10161
:10D2A00006EB810102680A6182888A82807988752A
:10D2B000887E20F0020088760DE0CCEBCC0209EBF2
:10D2C0008200428AC1EBC10006EB80000283817EAE
:10D2D00021F001018176012101A8FFF75BFD47E004
:10D2E000A8790121B1EB101F2CD100F00F0001280B
:10D2F00028D1009800EB400104EB8101897A0907ED
:10D3000020D500EBC00002EB80001A210830FEF7A8
:10D3100060F916208DF81000009800EB400004EB37
:10D320008000817A41F06001817298F8091041F023
:10D33000020188F8091017E0881F0020E02400206F
:10D340004CF40100009800EB400004EB8000817A6F
:10D3500041F08001817215208DF8100098F80A00C4
:10D3600053F8201001A88847002701E08DF810101D
:10D370003A4604A901A8FEF7C1FC9DF81000122846
:10D380007FF4E1AE009800EB400104EB8101897A63
:10D3900001293FF4D8AEFFF7AFFC38E630B1FF21EA
:10D3A000017041708170C1700020704748F20E001A
:10D3B000704700002DE9FF4105003AD02B480024BA
:10D3C0000460447284722046FFF796FC27482421AB
:10D3D0003038FEF7FEF80026DFF89480FF2730464D
:10D3E00000F020FF08F80670761C072EF7D3742093
:10D3F000ADF804000720ADF806001E481C49009057
:10D400000831684601F050F800280FD1184E01206D
:10D41000083E3070287878B1BDF80400BDF80610D9
:10D42000484381B206F1100000F058FF04B0BDE897
:10D43000F08148F20E00F9E70F4F00250C48A9B221
:10D4400002AA083000F020FF48B9C5EBC50007EB81
:10D45000800000231C2202A900F0D2FF08B1347022
:10D46000E4E76D1C072DE9D3E0E70000E02400208D
:10D47000901F00207DD40100D02300202DE9F04F23
:10D4800080465D488FB01E460068189F93468A46C6
:10D49000002870D0742F6ED86846FFF77FFF08B160
:10D4A000FEF722FC00248DF800408DF80440CDE901
:10D4B00005762546A9B20DAA504800F0E5FE28B928
:10D4C00008220DA94046FEF78FF8E0B16D1C072D2C
:10D4D000F0D300BF9DF80200FF284CD04FF0200988
:10D4E0004FF0400C04ADBAF1030F0FD0444A1C2793
:10D4F000B11AB1FBF7F1012307291AD20295BBF14A
:10D50000000F0BD010E08DF80250E3E7742F02D02B
:10D510008DF804C067E08DF8049064E037498340DB
:10D52000103949680B425BD001F074FE8DF804900D
:10D5300046E031494C39A6EB0108B8FBF7F7DFB1FB
:10D5400001F11C02B11A2427B1FBF7F702F1240103
:10D5500047B32C4A8DF804C0964244D0A1F590728E
:10D5600052F82020B2423BD10295C97A884227D195
:10D570008DF8014024E033E01F488DF804908DF8C9
:10D5800001400C30CDE90A409DF802000295C0EB45
:10D59000C00002EB8000089007A8069018200791B1
:10D5A00005900DE030208DF801408DF804008DF8D5
:10D5B0000330887A800703D410462421FEF709F847
:10D5C0009DF80400BAF1020F12D040F0020000BF33
:10D5D0008DF804005A4601A968460295FEF78EFBB5
:10D5E0000FB0BDE8F08F9DF8040040F00300EFE7B6
:10D5F00040F00100ECE70000E0240020981F00202C
:10D60000D023002028F40100174A10B512785AB12F
:10D6100048F20E0258B151B10B6843B1134A146875
:10D620003CB148F2040010BD48F2080010BD10469D
:10D6300010BD0E4C13602C3CD1F8053023634B7A9F
:10D6400084F834300979917223F0050141F0020128
:10D650001172D17921F0040141F00301D17100214F
:10D660000170084610BD0000881F0020E024002043
:10D670000E4910B54A788C780023A24212D0521C71
:10D68000D2B24A70022A00D14B70084A4B78183245
:10D6900052F8232002600869104420F07F4008619E
:10D6A000012010BD0360002010BD0000C41F002039
:10D6B000002808D0112801D0FEF73CBB0248416881
:10D6C00041F0080141607047A01F002010B51F4CB9
:10D6D000204621784068012910D002292DD0032945
:10D6E00032D1000725D46069401C606100F0FEF96A
:10D6F000D8B12078BDE8104001F0A0B8000718D4D8
:10D700001348A28B017801EB810100EB8100C188F5
:10D71000891A0904090CC18003D0BDE8104001F04A
:10D7200099B9BDE81040FFF7E7B9BDE81040FFF731
:10D730007FB9BDE8104000F0BFBB0648617850F8E3
:10D740002100BDE81040004710BD0000A01F0020D0
:10D750000425002070F4010028DFFFF7A9BF29DFAE
:10D76000FFF7A6BF002070470020704700207047D9
:10D770002DE9F0474178DFF8A890054601EBC1029A
:10D7800009EB8200002401EB410109F1240A4368FE
:10D79000274626460AEB810163B191F80AC05FEA89
:10D7A0000C6807D55FEA4C6C04D459F8226000F18C
:10D7B00008049FB20889D04633463A462146A9DF7D
:10D7C00048F241090B281ED000B14846012E18D15D
:10D7D00068784FF6FF7200EB400008EB80000C21E8
:10D7E0000089A7DF00280CD0A0F54051023915D0E0
:10D7F000082813D0A0F5405104390FD011280DD0BE
:10D800000020BDE8F0876878012300EB400008EBBA
:10D8100080003A4600892146A9DFD9E74846F0E76B
:10D82000B024002070B50C46014660780A4D00EB2C
:10D83000C00005EB80003823242200F0E1FD002821
:10D8400008D1617801EBC10105EB81014A68521CE6
:10D8500000D14A6070BD0000B02400202DE9F041E5
:10D8600088B0804603271A20ADF81C0048782A4E5D
:10D8700000EB400006EB80000D4600893B4607AAFE
:10D880006946AADF28BB6878A6F1240400EBC00033
:10D8900004EB8000BDF81C2069460830FDF7A4FEAB
:10D8A0000028687807D000EBC00004EB80014968CD
:10D8B00081B11A4E0FE000EB400106EB8101897A3D
:10D8C000890724D400EBC00004EB80002421FDF77D
:10D8D00080FE1CE0124E44F820706878BDF81C20D1
:10D8E00000EBC00004EB800069464260687800EB02
:10D8F000C00004EB80000830FDF752FE6878382342
:10D9000000EBC00004EB800124224046B04708B081
:10D910000020BDE8F0810000D42400202DE60100A5
:10D920005DE50100FFF724BFFFF77CBFFFF796BF5F
:10D9300070B51B4C207900072DD41A48017801EBF3
:10D94000810100EB81052E6900F025FDE9882A8917
:10D95000761E11443144B1FBF0F02169002549B134
:10D960006169814206D1E560606840F00100606055
:10D97000002008E000F0BAF810B10220E56002E0F3
:10D98000206920B10320BDE8704001F0A7B8BDE8D0
:10D990007040FFF74DB8BDE8704001F095B8000049
:10D9A000A01F002004250020F8B51A4C207800287C
:10D9B0002ED0206928B10026E06820B1002526B1CC
:10D9C00010E00126F8E70125F9E7684652DF05284F
:10D9D00003D020B1FEF788F904E0012602E02169B6
:10D9E0000098884785B96088ADF800006946A0684E
:10D9F00061DF052803D020B1FEF776F904E00125A8
:10DA000002E0D4E902018847002EDED0002DD6D0F6
:10DA1000F8BD0000E41F00207FB50C46054691F8D4
:10DA2000211094F82000CDE9000104F12602D11E56
:10DA30002846E36901F0D6F9002823D194F82300A1
:10DA400008BB207B022801D003281CD12269E16990
:10DA5000914218D16269E261E37B84F82030217E33
:10DA60000328C1F3401184F8211006D004B02946E0
:10DA70002046BDE8704001F063B900912946204678
:10DA800001F029FA7FBD04F10C0001AB07C883E85F
:10DA9000070094F82300002168B1D5F8C404C5F844
:10DAA000C404820701D5012002E0400705D5022009
:10DAB0008DF8000001E08DF8001084F82410207E1D
:10DAC0004007DFD4D4E90021684690477FBD0000BD
:10DAD000054940880A88904204D34988884201D881
:10DAE0000120704700207047781F002070B50E4855
:10DAF000017801EB810100EB8104256900F04BFC0A
:10DB0000E18822896D1E11442944B1FBF0F10748D8
:10DB100042698A4205D301D1006910B14FF000007B
:10DB200070BD4FF0010070BD04250020A01F002033
:10DB3000800701D0002070470120704730B514885D
:10DB4000E51C9D4201D90C2030BD02250D551388DE
:10DB50001C245B1C9BB21380CC5413885B1C9BB2AF
:10DB60001380012807D0022807D0032807D00428F3
:10DB700007D0072030BD002004E0012002E0CD5492
:10DB800001E00320C8541088401C1080002030BDE4
:10DB90002DE9F047DFF8ACA0DAF80C009AF8004065
:10DBA00080469AF80460DAF80890DAF810703AE0E3
:10DBB00009EBC4052A7833E002EB42016B68521C82
:10DBC00003EBC101AB78D2B2934200D100220B78B3
:10DBD000022B02D0032B23D11FE0D1F804C003464F
:10DBE000014603E0614503D00B46C969C1B1F9E7BD
:10DBF000B1B18B4205D1C06918B9134F0126BE607F
:10DC00000027D1F800C0C969D96149B10B686344E4
:10DC10000B6005E00174C06900E000210028F9D123
:10DC200069789142C8D1641EE4B2C1D2CAE903073F
:10DC30008AF80460404502D00120BDE8F08700204A
:10DC4000FBE70000C41F0020001001402DE9F04751
:10DC500005462F48002680460778D0F80C904BE008
:10DC6000D8F8080000EBC70440E002D02846ED6970
:10DC70001EE02078616800EB4002401CC0B201EB5E
:10DC8000C2012070A278904200D126700A784868BC
:10DC9000012A2DD1027C5ABB8A684260CA68826020
:10DCA0000A69C2604969816198F8041001B146604F
:10DCB0004268D8F81030DFF85CC0D11A21F07F41FB
:10DCC000614502D28268114406E0991A826821F007
:10DCD0007F418A4202D9511A016000E00660466025
:10DCE000012186600174C66100F05CFF002DBCD18B
:10DCF000207861788842BCD17F1EFFB2B0D2D8F8BC
:10DD00000C10494502D00120BDE8F0870020FBE758
:10DD1000C41F0020FFFF7F0000239AB05F4A052147
:10DD20001846FEF72BF808B1FDF7DEFF00200125AD
:10DD30005FF0030605FA00F1490104D5810001F105
:10DD4000A041C1F80067401C2028F3D3DFF85081C0
:10DD5000D8F800004FF0806408F1040724EA0001BD
:10DD6000396007F1040900F08061C9F800104FF430
:10DD7000FA7000F031F9D8F8000084433C6000F0FC
:10DD80008061C9F8001000F0C5FF4649072000F087
:10DD900023FD00B1FEE743490820491C00F01CFDAB
:10DDA00000B1FEE718A9002000F016FDFEF76CFB9D
:10DDB000012047DF5046FFF78FF89DF808003AA191
:10DDC00020F00F00401C20F0F00010308DF808000B
:10DDD000032202A87CDF08B1FDF786FF002400942F
:10DDE0005020ADF80000A0200194ADF80200ADF87D
:10DDF00004404FF4C870ADF8060068467ADF08B1F9
:10DE0000FDF772FF382101A8FDF7E3FB02208DF832
:10DE100004008DF8065006208DF807002148ADF863
:10DE20001450401D069024210FA8FDF7D2FB4FF49B
:10DE300096701390B420009414908DF848501B4BAA
:10DE40000FAA002101A8FEF77DF808B1FDF74CFFED
:10DE50001C216846FDF7BDFB4FF42030CDE90040A2
:10DE60004FF4702002901248059012488DF80C6013
:10DE70000690ADF80E408DF810406846FEF73EFA69
:10DE800008B1FDF731FF0320FEF74CF900E048DF51
:10DE90000028FCD0FDF728FFF9E70000F81F00205C
:10DEA00004050050011F002042656E00CFE1010013
:10DEB000F5E101006DCC01000348416821F0080143
:10DEC0004160007800F0BABCA01F002070B5144675
:10DED00082880E4605462088111D0144921C9942F5
:10DEE00001D8FE2A01D90C2070BD521C3254208862
:10DEF000FF21401C80B2208031542088401C80B219
:10DF000020808119288801F07FF92188084480B297
:10DF10002080AA8842B1A96841B13044FDF740FB96
:10DF20002088A98808442080002070BD072070BD8B
:10DF3000F8B50E46017814460546012901D16878E6
:10DF400030B12088821C9A422DD8012902D006E0E7
:10DF50000720F8BD69780144891C994223D8181A12
:10DF6000801E87B2ADF800702188B01C0844694655
:10DF70007DDF0028EDD12878022805D1BDF80010FA
:10DF8000B94201D809210AE00821012805D16878A1
:10DF9000B84202D8ADF8000001E0ADF80070BDF85D
:10DFA0000000FE2801D90C20F8BD2288401CB05486
:10DFB0002088401C80B2208031542088401C208062
:10DFC000BDF80010084420800020F8BD00207047F4
:10DFD000002070470020704731B540F2E73404E07C
:10DFE000401E00902046FDF715FA00980028F7D152
:10DFF00038BD4907090E002806DA00F00F0202F1C9
:10E00000E02282F8141D03E000F1E02282F80014FF
:10E0100000F01F02012191404009800000F1E02042
:10E02000C0F88012C0F80011704700000179064A5C
:10E0300001EB8101006802EBC1010522C0F8002557
:10E04000022081F8220070476026002070B5064645
:10E0500000790D461F4C00EB800104EBC10494F8DD
:10E06000221009B1082070BD15B91B4901EB00153C
:10E070000020C4E90023A06084F8250084F824006F
:10E080002946304600F0EEFD296840F20C60890018
:10E0900001F1A041C1F800076968890001F1A041C0
:10E0A000C1F80007D5E900123068C0F80815C0F8BB
:10E0B0000C25A968C0F82415206828B13068297B90
:10E0C000000B40B2FFF795FF012084F822000020EA
:10E0D00070BD00006026002084F401003EB5074DAD
:10E0E0002C69AD6900948DF80110019202958DF8AC
:10E0F00002300022694600F015F83EBD84F40100AC
:10E100003EB500250095069C8DF8011002958DF80E
:10E11000023001920CB1202200E00022694600F09A
:10E1200001F83EBD30B4D30701D1930702D530BC0E
:10E13000062070470379064C03EB830304EBC3040A
:10E14000006813460A460146204630BC00F001BF75
:10E1500060260020800000F5E06000F1A040026829
:10E1600022F440320260026842EA014101607047D5
:10E1700001218140014801607047000008050050FE
:10E18000034908B50844002101600068009008BDFB
:10E190000060004002494058012800D0002070472C
:10E1A000006000404058002800D0012070474058CF
:10E1B000002800D001207047D0F80403084000D0A8
:10E1C000012070474058002800D00120704710B54A
:10E1D00050B103280CD10220FEF768FA002807D0BE
:10E1E000BDE81040FDF780BDBDE8104000F012BB57
:10E1F00010BD00000078002807D104483B2180882A
:10E2000076DF002801D0FDF76FBD7047001F0020AA
:10E210000021425C0AB101207047491C0629F8D34D
:10E220000020704770B50546C0EBC5010C480026BC
:10E2300000EB81042046C4F81160A4F81560102199
:10E24000FDF7C7F9FF202074A0764FF6FF702083FA
:10E25000284600F0DFFF02481C3840F8256070BDFA
:10E26000D023002006490979490701D408207047C6
:10E2700020B1044949780160002070470E207047A2
:10E28000A01F00200425002070B5124B1B795B07EE
:10E2900001D4082070BDB8B1B2B10368022B11D20D
:10E2A0000D4C03EB430554F825605EB1466804EB62
:10E2B000850004894568408901FB046100FB045026
:10E2C000884203D8072070BD0E2070BDC2E900311E
:10E2D000002070BDA01F0020D0250020F8B5044606
:10E2E00023480E460079400701D40820F8BD24B326
:10E2F0002068022831D21F4D00EB400055F8201055
:10E3000059B305EB800042894168008902FB001186
:10E310006068814221D9FFF70BFC80B1D4E900028B
:10E3200000EB400005EB800043680189D51AB5FB7E
:10E33000F1F701FB175585B903E00E20F8BD102059
:10E34000F8BDB6FBF1F501FB156535B92EB1408975
:10E35000414390191944884201D90720F8BD002093
:10E3600002460090334621460320FEF79BFBF8BD92
:10E37000A01F0020D025002010B54FF010204469C8
:10E38000601C04D000F007F8B4FBF0F010BD4FF0B3
:10E390008050406910BD4FF08050006980B27047D6
:10E3A00070B5154800242546047044702846FEF7D1
:10E3B00069FB6D1C0A2DF9D3104D6C80FFF7DCFF53
:10E3C000C61EFFF7E8FF46430B490020AE60CC3184
:10E3D000C5F8144000EB4002401C41F8224001EB1C
:10E3E0008202022814815481F4D32C70AC61042081
:10E3F000EC616860002070BD04250020A01F002093
:10E400002DE9F843804626481F46164600790C46FB
:10E41000400702D40820BDE8F883ECB1B8F1000F42
:10E420001AD02068022815D21E4D00EB400055F886
:10E43000201079B105EB800042894168008902FB18
:10E4400000116268914205D926B1B04202D3F11998
:10E45000814203D90720DEE70E20DCE74046FFF7C4
:10E4600067FBD0B13846FFF763FBB0B16068FFF7D8
:10E470005FFB90B160683246C1194046FDF790F8E5
:10E4800000962068002200EB4000434655F82050DB
:10E4900002212046A8470020BDE71020BBE700006E
:10E4A000A01F0020D02500202DE9F041294D044671
:10E4B0000E462879400702D40820BDE8F081ECB16F
:10E4C000E6B12068D0B1FFF766FF0146A08881421F
:10E4D00012D3102810D3E08870B1FFF74DFF471E0C
:10E4E000FFF759FF4743E288A188A86802FB0102B1
:10E4F000974201D3890703D00720DEE70E20DCE72F
:10E500006988022924D0C6E90010134A01EB4103AF
:10E5100002EB83014860206842F82300A08808814C
:10E52000E0884881FFF737FFA188E288401E01FBA1
:10E530000204FFF730FF94FBF0F4FFF72CFFA9680B
:10E5400004FB0010A8606888401C68800020B4E7C5
:10E550000420B2E7A01F0020D0250020F8B5044613
:10E560001E481E46154600790F46400701D4082074
:10E57000F8BDDFB1D4B12068022815D2184900EBEC
:10E58000400051F820207AB101EB800042894168B7
:10E59000008902FB00116268914205D925B1A842A9
:10E5A00002D3A919814203D90720F8BD0E20F8BD76
:10E5B0003846FFF7BDFA78B13046FFF7B9FA58B1DF
:10E5C0006068FFF7B5FA38B12B463A46214601207C
:10E5D0000096FEF767FAF8BD1020F8BDA01F0020D6
:10E5E000D025002010490246087800281AD00428B7
:10E5F00018D0022A14D0032A14D10A7912070FD492
:10E600008A69521C8A61B2F57A7F06D0022801D04D
:10E6100000F014B9487800F061BA0D20FDF78ABB0C
:10E62000FFF754B870470000A01F0020F8B504465B
:10E630001E481E46154600790F46400701D40820A3
:10E64000F8BDDFB1D4B12068022815D2184900EB1B
:10E65000400051F820207AB101EB800042894168E6
:10E66000008902FB00116268914205D925B1A842D8
:10E6700002D3A919814203D90720F8BD0E20F8BDA5
:10E680003846FFF755FA78B13046FFF751FA58B1DE
:10E690006068FFF74DFA38B12B463A462146042010
:10E6A0000096FEF7FFF9F8BD1020F8BDA01F00206E
:10E6B000D025002070B5012670044FF0E021002520
:10E6C000C1F88001084C4010C4F84803C4F808039E
:10E6D00066602F20FCF716FFA660044C2F202561F2
:10E6E000FCF710FFE57070BD00100140C41F002052
:10E6F00009480A490022C37DC1F8082143B1D1F875
:10E700001815437EC268D154417E491C417670473A
:10E71000D1F8180570470000402600200020004076
:10E720001FB501228DF8080004488DF800200191E2
:10E73000D0E90012684690471FBD00004026002027
:10E7400008B502490020009108BD0000001F00200C
:10E750002DE9F0410746806A14468846C8B3002573
:10E7600031E000BFB96A05EB450001EB8006B088D7
:10E77000801CFE2802D90C20BDE8F0812288401CB4
:10E7800008F8020020881622401C80B2208008F879
:10E7900000202088401C80B2208000EB08013088D7
:10E7A00000F032FD2188084480B22080B28842B156
:10E7B000B16871B14044FCF7F3FE2088B188084489
:10E7C00020806D1CEDB297F82C00A842CAD800201A
:10E7D000D2E7FFE70720CFE738B50D4601210091CA
:10E7E0000A4901EB80021446937840210848FFF75C
:10E7F00087FC002808D1E37801B02A46BDE8304004
:10E8000040210348FFF76ABC38BD00000A1F002002
:10E81000D0F3010010B50020FDF748FF08B1FDF767
:10E8200063FAFDF7C3FE08B1FDF75EFA3CDF00288E
:10E8300003D0BDE81040FDF757BA10BD0C49087071
:10E8400040B101280FD002280FD003280FD148690A
:10E85000FEF782BF00208861C86106484078002822
:10E8600005D0FEF7F5B800F0F5B800F051B87047E4
:10E87000A01F00200425002018B10349C860002013
:10E8800070470E2070470000E41F00201CB50349AC
:10E8900001910091694660DF1CBD0000001F00204F
:10E8A00070B50E460546144614211046FCF791FE3D
:10E8B000012020800021216121732672657205B13B
:10E8C000A072002070BDFDF7FDB9000070B509B160
:10E8D0008C0701D0072070BD064C0125A160628025
:10E8E0000549636010DF0028F5D1257016202EDF62
:10E8F00070BD0000E41F0020C7E8010018B1034903
:10E900000861002070470E2070470000E41F0020BF
:10E910002DE9F041164C606820F001006060154858
:10E92000017801EB810100EB81063569FFF733FDCA
:10E93000B5FBF0F76761FFF72EFDF1886D1E2944E6
:10E94000B1FBF0F08742606802D140F0020001E0C4
:10E9500020F0020060602079E16800F002000843C6
:10E9600004D00020BDE8F04100F0B8B80220F9E77B
:10E97000A01F00200425002001484069FEF7ECBEDE
:10E98000A01F002010B5FFF7F7FC441EFFF703FDA2
:10E990004443FFF700FD05494A69521E5043CA68C7
:10E9A0002146BDE81040FEF7DABE0000A01F00209F
:10E9B0002DE9F0411048017801EB810100EB810461
:10E9C0002569FFF7E8FCE188228911442944B1FB5D
:10E9D000F0F200FB1216FFF7CFFC471EFFF7DBFC3F
:10E9E00007FB0061E08822891044044A2844126928
:10E9F000BDE8F041FEF7B3BE04250020A01F0020B3
:10EA000010B5FFF7B9FC441EFFF7C5FC4443FFF700
:10EA1000C2FCB4FBF0F0BDE81040FEF79DBE000064
:10EA200070B5FFF7B8FC8608FFF7B5FC07494969E0
:10EA300000FB01F4FFF7A0FC451EFFF7ACFC6843A8
:10EA400032462146BDE87040FEF789BEA01F002077
:10EA50000020704770B51448017801EB810100EB8C
:10EA60008104241DFFF797FC6188104E884211D263
:10EA7000FFF791FC61880D1AFFF78DFC8208A188D1
:10EA8000E0680844216928442944FEF768FEFFF73E
:10EA900082FC07E0A288E06810448A082169FEF73A
:10EAA0005EFE6088F06170BD04250020A01F00207C
:10EAB00004480079000702D4012000F00FB800F0EC
:10EAC00003B80000A01F00200348416821F008019E
:10EAD0004160407800F002B8A01F00200249487051
:10EAE000024951F820000047A01F00205CF40100FB
:10EAF00010B50446FFF776FD2046BDE81040FDF74F
:10EB0000EFBA000003480079000701D4FDF790BF79
:10EB1000FFF7DABFA01F00202DE9F84F204C002599
:10EB20006846D4E903B6FEF7A3FD8046FFF730F848
:10EB30000746A946B8F1000F25D00023009ACC461D
:10EB4000E06819E007680146974202D9BA1A0260E4
:10EB500014E0C1F800C0D1F80C80D21BC8693B4456
:10EB60008A46B8F1000F07D0F71827F07F47C1E9B0
:10EB70000178CAF81C500D460028E3D1E060284611
:10EB8000FFF764F804E02846FFF760F800B917B112
:10EB90005846FDF7D1FF84F80490BDE8F88F0000D7
:10EBA000C41F00200D4B10B5D96831B102680C6844
:10EBB000A24204D8A21A0A60C161D86010BD0B46F7
:10EBC00003E00B46C969121B21B10C689442F8D3CB
:10EBD000A41A0C600260C161D86110BDC41F00207E
:10EBE0002DE9F0411D4DEC68002C35D01C48002764
:10EBF00000682969B846401A20F07F462068B04274
:10EC000015D82246361A0744E469107C68B182F8A8
:10EC100010806B6933B1D2E90501984728B1FDF73F
:10EC200063F802E0D2E905108847002CE6D1697844
:10EC3000A878814206D1401CC0B2A870022801D138
:10EC400085F802800548A978183040F82170BDE8A1
:10EC5000F0411420FCF780BDBDE8F081C41F002006
:10EC6000041501402DE9F0410C46096840F20C60A2
:10EC7000890001F1A041C1F800076168890001F134
:10EC8000A041C1F800072068FFF772FA6068FFF73B
:10EC90006FFA216840F20D60890001F1A041C1F8CE
:10ECA00000076168890001F1A041C1F80007042054
:10ECB000FCF7ECFBDFF8588000250126A8F10407DB
:10ECC0002079D8F80010C14011F0010F02D0002DBA
:10ECD0001BD00FE0207806FA00F038600420FCF723
:10ECE000D5FB2068FFF744FA0420FCF7CFFB6D1C2E
:10ECF000092DE5DB207986403E600420FCF7C6FB49
:10ED00006068BDE8F041FFF733BABDE8F08100006C
:10ED1000100500501FB5094B0FCB8DE80F000748B9
:10ED200000231A4669460838FFF790F908B1FCF746
:10ED3000DBFF02480838FFF779F91FBDD8F301005F
:10ED40002DE9FC5F002705461E4693460C463846D3
:10ED5000C1F80471C1F82471C1F81C71C1F80871BF
:10ED600085F8267085F82370012B0FD05FF0010124
:10ED7000C4F80012012121622160296841B140F2EA
:10ED80008620A860A868C4F8040314E00221EFE715
:10ED9000804605F1260A05F12309CDE900685B46A6
:10EDA00052464946204600F01DF80028F5D195F856
:10EDB000230000B103273846BDE8FC9F30B51C781E
:10EDC000039D944206D2095DC0F81C151878401CBA
:10EDD000187005E0012115B1C161002030BD41610D
:10EDE000012030BD2DE9FF4F81B004460878DDF8E1
:10EDF000389092460F46012803D09AF800204A45E1
:10EE000001D1012600E000264FF49271002530B1B7
:10EE1000C4F82451C4F81C51C4F808514CE08B4686
:10EE20002046FFF7BFF94FF0010820BB4FF48E7169
:10EE30002046FFF7B7F988B1C4F81C51594620465F
:10EE4000FFF7B0F9B8B90F98009053464A462046EC
:10EE50000499FFF7B3FF002838D02DE04FF48471F8
:10EE60002046FFF79FF938B3C4F8085159462046A9
:10EE7000FFF798F930B1C4F82451C4F8148087F82A
:10EE8000008019E09AF800304846049A51468342BF
:10EE900012D2D4F81875D7540A78411E521CD2B237
:10EEA0008AF800208A4203D10220C4F8000201E05F
:10EEB0004A4501D0C4F820805EB14FF482712046EB
:10EEC000FFF770F928B1C4F80451002005B0BDE87F
:10EED000F08F0120FAE72DE9FC5F00260C9F984691
:10EEE00092460C460546C1F80461C1F82461C1F898
:10EEF0001C61C1F80861C1F8006285F8266080F8DD
:10EF0000236001200862886005F126039B46424683
:10EF1000514620460097FFF751FF286830B140F274
:10EF20008620A860A868C4F804030FE005F123094F
:10EF3000CDE9008753465A4649462046FFF752FF1F
:10EF40000028F5D195F8230000B103263046BDE82E
:10EF5000FC9FF8B504464FF0FF30C1F8080394F861
:10EF6000240020B1A068C1F804031120F8BD43F3C8
:10EF70008000401C84F82400180701D50620F8BD45
:10EF8000A36192E8610004F10C0787E861009078C2
:10EF900084F820005068E0615078C1F88805107846
:10EFA000002501280ED008B9980601D5012000E0FF
:10EFB000002084F821000090937852682046FFF7E3
:10EFC0008AFF06E084F82150937852682046FFF7C4
:10EFD000B7FE21680029D2D184F82450F8BD000082
:10EFE000064A0020C2F81C010548838A8168C95C72
:10EFF000838A5B1C8382C2F81C1570470020004086
:10F00000402600201FB500218DF8080005488DF826
:10F010000010826801928175D0E90012684690471D
:10F020001FBD0000402600202DE9FF413E4D4FF45A
:10F0300000712846FFF7C0F801273C4C4FF40178D7
:10F04000002600B34FF492712846FFF7B0F8D0B114
:10F05000C5F82461C5F80883A07E00B96F6002205E
:10F060008DF80000D5F88004C5F880040390E07D99
:10F070008DF80800E0680190E6752676D4E9001264
:10F080006846904724E004212846FFF795F8F8B138
:10F090004FF484712846FFF78AF8C8B1FFF728FBC0
:10F0A000E07D617E884213D1227E3AB1607EE168C4
:10F0B000E2752269E2602676667607E0A07E00B9F6
:10F0C0006F60C5F80883E675607EE168FFF728FB8E
:10F0D0004FF48E712846FFF76AF858B1A18AA07DD7
:10F0E000814202D2FFF77CFF04E0C5F81C6108B141
:10F0F000FFF788FF4FF4A2712846FFF758F8002861
:10F100000FD0C5F84461A07E00B12F60E07D0028DB
:10F1100007D0E675607EE16804B0BDE8F041FFF716
:10F12000FFBABDE8FF81000000200040402600201B
:10F130007FB5334C4FF492712046FFF743F8314DC1
:10F140000026B0B1C4F8246102208DF80000D4F884
:10F150008004C4F880040390D4F83C058DF80800BE
:10F16000E8680190EE752E76D5E900126846904762
:10F170001FE04FF488712046FFF724F8C8B1C4F8A7
:10F180001061D4F83C05E97DC0B2814211D12A7EDC
:10F190005AB1E968D4F8003223F02003C4F80032F1
:10F1A000EA752A69EA602E7601E0EE75E968FFF7F4
:10F1B000B7FA4FF4A2712046FFF704F850B1C4F833
:10F1C0004461E87D30B1EE75D4F83C05E968C0B221
:10F1D000FFF7A6FA4FF490712046FEF7F3FF0028E0
:10F1E0000CD0C4F82061A87D002807D0D4F84C05C5
:10F1F00004B0C0B2BDE87040FFF704BF7FBD00009F
:10F2000000200040402600200870000A48700220BC
:10F210007047000001218140024842688A434260F1
:10F2200070470000881F002038B515494888A0F5B0
:10F230007F42FF3A23D04A78124C521CD2B24A7015
:10F24000237B93420AD3091D75DF002817D0A169DB
:10F25000002914D001B0BDE83040084700254D70AA
:10F26000217C29B13B2176DF10B1A16901B188472A
:10F270006169002903D08DF800506846884738BD81
:10F28000741F0020982300200F480068C005C00D9F
:10F2900013D0103840B2002806DA00F00F0000F159
:10F2A000E02090F8140D03E000F1E02090F8000455
:10F2B0004009012803D0032803D002207047002012
:10F2C000704701207047000004ED00E04278837829
:10F2D000521CD2B2934200D100220378934201D152
:10F2E000002070470A704168407800EB400001EB55
:10F2F000C00070472DE9FC411646DDE90854CDE910
:10F3000000541F468046022200F00CF8002807D166
:10F31000CDE900543B4610223146404600F002F849
:10F32000BDE8FC812DE9FC5F0026DDE90C4B994628
:10F3300092468E4680462788354630E0D8F804004D
:10F34000002200EB850069460068019001A865DF96
:10F35000002830D19DF8000050451FD10EB100218A
:10F3600000E00221228808441118594522D846B9E4
:10F37000521C90B2208009F800E02088401C2080B8
:10F380000126218801A801EB0902694665DF0028F2
:10F3900011D120889DF80010084420806D1CB8F819
:10F3A0000000A842CADC56B12088C01B401E80B2B3
:10F3B000FF2802D90C20BDE8FC9F09F807000020B7
:10F3C000F9E7017911B9007B002800D001207047CE
:10F3D00000300040000000000700000009000000AD
:10F3E00000006806010000000822002028220020FA
:10F3F000542200200D0000000E0000000F0000004D
:10F40000100000000D000300C1C501000E00030044
:10F41000C1C501000F000300C1C5010010000300B9
:10F42000C1C5010078230020FFFFFFFFD5DF0100E9
:10F430005DD801006DD701002DD90100D1DF010099
:10F4400025D8010069D7010029D90100CDDF0100CD
:10F4500071D7010065D7010025D9010001EA01003B
:10F4600021EA010079E90100B1E9010085E9010023
:10F47000B1EA010075CD010021CD010005EB0100CD
:10F4800031D90100000000000100000000009801D7
:10F490000300000001000000000000000000000068
:10F4A000C0F40100001F0020F80000006CBA010049
:10F4B000B8F50100F81F0020902600007CBA01007A
:10F4C00000000000FFFF0A180100E3000103F30041
:10F4D0000103FE000100E6000101E7000101FA0F4F
:10F4E0000208FCC9020684B80201FCC9020100003E
:10F4F000000000000000000000000000000000000C
:10F5000000000000000000000000000000000000FB
:10F510000090D0030000000000000000FFFF00008A
:10F5200000000000000000000000000000000000DB
:10F5300000000000000000000000000000000000CB
:10F5400000000000000000000000000000000000BB
:10F5500000000000000000000000000000000000AB
:10F56000000000000000000000000000000000009B
:10F57000000000000000000000000000000000008B
:10F58000000000000000000000000000000000007B
:10F59000000000000000000000000000000000006B
:10F5A000000000000000000000000000000000005B
:08F5B000000000000000000053
:040000050001B40141
:00000001FF
